500016354     20101028SIMUANUPOS     00S007282DEDividendo en efectivo                             000000734US9841211033XEROX CORPORATION             NYS       USDRV                    000000000                                                     02320301100002055066        000000000802488             ALTAE / RESIDENTES EN ESPA#A            0000000000300000000000000000000000300000201009270000000000000000000000000000000001000000000USD00000000000000000400000000000001275000150039000000000000001913000000000000010837001900390000000000000024230000000000000084142010102920101029        INVERSIS CB NEW YORK                                             000000000                                                    20101029                        00000000000000000000000000000000000000000000000000000000000000000000000000000000000000000000000000000000000DE            0000000000000000000000                                                                                                                                                                                                                                                                                                                                                                                           000OB000000002T
500016354     20101028SIMUANUPOS     00S007468DEDividendo en efectivo                             000001124US8636671013STRYKER                       NYS       USDRV                    000000000                                                     02320301100002054763        000000000802485             CAJAMADRID / RESIDENTES EN ESPA#A       0000000000032000000000000000000000003200201009270000000000000000000000000000000001000000000USD00000000000000001500000000000000480000150000000000000000000720000000000000004080001900000000000000000009120000000000000031682010102920101029        INVERSIS CB NEW YORK                                             000000000                                                    20101029                        00000000000000000000000000000000000000000000000000000000000000000000000000000000000000000000000000000000000DE            0000000000000000000000                                                                                                                                                                                                                                                                                                                                                                                           000OB000000002T
500016354     20101028SIMUANUPOS     00S007453DEDividendo en efectivo                             000001840US68389X1054ORACLE CORPORATION            NDQ       USDRV                    000000000                                                     02320301100002606655        000000000802482             MADRID BOLSA NEW YORK,FIM               0000000000960000000000000000000000009600201010010000000000000000000000000000000001000000000USD00000000000000000500000000000004800000150000000000000000007200000000000000040800001900000000000000000091200000000000000316802010110320101103        INVERSIS CB NEW YORK                                             000000000                                                    20101103                        00000000000000000000000000000000000000000000000000000000000000000000000000000000000000000000000000000000000DE            0000000000000000000000                                                                                                                                                                                                                                                                                                                                                                                           000OB000000002T
500016354     20101028SIMUANUPOS     00S007453DEDividendo en efectivo                             000001840US68389X1054ORACLE CORPORATION            NDQ       USDRV                    000000000                                                     02320301100002606465        000000000802660             CAJAMADRID TELECO-TECH GLOBAL FI        0000000000528100000000000000000000005281201010010000000000000000000000000000000001000000000USD00000000000000000500000000000002640500150009000000000000003961000000000000022444001900020000000000000050170000000000000174272010110320101103        INVERSIS CB NEW YORK                                             000000000                                                    20101103                        00000000000000000000000000000000000000000000000000000000000000000000000000000000000000000000000000000000000DE            0000000000000000000000                                                                                                                                                                                                                                                                                                                                                                                           000OB000000002T
500016354     20101028SIMUANUPOS     00S007453DEDividendo en efectivo                             000001840US68389X1054ORACLE CORPORATION            NDQ       USDRV                    000000000                                                     02320301100002055066        000000000802488             ALTAE / RESIDENTES EN ESPA#A            0000000000012600000000000000000000000126201010010000000000000000000000000000000001000000000USD00000000000000000500000000000000063000150794000000000000000095000000000000000535001904760000000000000001200000000000000004152010110320101103        INVERSIS CB NEW YORK                                             000000000                                                    20101103                        00000000000000000000000000000000000000000000000000000000000000000000000000000000000000000000000000000000000DE            0000000000000000000000                                                                                                                                                                                                                                                                                                                                                                                           000OB000000002T
500016354     20101028SIMUANUPOS     00S007453DEDividendo en efectivo                             000001840US68389X1054ORACLE CORPORATION            NDQ       USDRV                    000000000                                                     02320301100002054860        000000000802820             CAJAMADRID / RESIDENTES EN PAISES 1,2,3 0000000000200000000000000000000000002000201010010000000000000000000000000000000001000000000USD00000000000000000500000000000001000000150000000000000000001500000000000000008500001900000000000000000019000000000000000066002010110320101103        INVERSIS CB NEW YORK                                             000000000                                                    20101103                        00000000000000000000000000000000000000000000000000000000000000000000000000000000000000000000000000000000000DE            0000000000000000000000                                                                                                                                                                                                                                                                                                                                                                                           000OB000000002T
500016354     20101028SIMUANUPOS     00S007453DEDividendo en efectivo                             000001840US68389X1054ORACLE CORPORATION            NDQ       USDRV                    000000000                                                     02320301100002054763        000000000802485             CAJAMADRID / RESIDENTES EN ESPA#A       0000000000436300000000000000000000004363201010010000000000000000000000000000000001000000000USD00000000000000000500000000000002181500149989000000000000003272000000000000018543001900070000000000000041450000000000000143982010110320101103        INVERSIS CB NEW YORK                                             000000000                                                    20101103                        00000000000000000000000000000000000000000000000000000000000000000000000000000000000000000000000000000000000DE            0000000000000000000000                                                                                                                                                                                                                                                                                                                                                                                           000OB000000002T
500016354     20101028SIMUANUPOS     00S007336DEDividendo en efectivo                             000002212US5850551061MEDTRONIC                     NYS       USDRV                    000000000                                                     02320301100002054763        000000000802485             CAJAMADRID / RESIDENTES EN ESPA#A       0000000000015000000000000000000000001500201010050000000000000000000000000000000001000000000USD00000000000000002300000000000000337500149926000000000000000506000000000000002869001899260000000000000006410000000000000022282010102920101029        INVERSIS CB NEW YORK                                             000000000                                                    20101029                        00000000000000000000000000000000000000000000000000000000000000000000000000000000000000000000000000000000000DE            0000000000000000000000                                                                                                                                                                                                                                                                                                                                                                                           000OB000000002T
500016354     20101028SIMUANUPOS     00S007564DEDividendo en efectivo                             000002852US35671D8570FREEPORT MCMORAN COPPER & GOLDNYS       USDRV                    000000000                                                     02320301100002055066        000000000802488             ALTAE / RESIDENTES EN ESPA#A            0000000000027000000000000000000000002700201010120000000000000000000000000000000001000000000USD00000000000000003000000000000000810000150000000000000000001215000000000000006885001900000000000000000015390000000000000053462010110120101101        INVERSIS CB NEW YORK                                             000000000                                                    20101101                        00000000000000000000000000000000000000000000000000000000000000000000000000000000000000000000000000000000000DE            0000000000000000000000                                                                                                                                                                                                                                                                                                                                                                                           000OB000000002T
500016354     20101028SIMUANUPOS     00S007564DEDividendo en efectivo                             000002852US35671D8570FREEPORT MCMORAN COPPER & GOLDNYS       USDRV                    000000000                                                     02320301100002606655        000000000802482             MADRID BOLSA NEW YORK,FIM               0000000000180000000000000000000000018000201010120000000000000000000000000000000001000000000USD00000000000000003000000000000005400000150000000000000000008100000000000000045900001900000000000000000102600000000000000356402010110120101101        INVERSIS CB NEW YORK                                             000000000                                                    20101101                        00000000000000000000000000000000000000000000000000000000000000000000000000000000000000000000000000000000000DE            0000000000000000000000                                                                                                                                                                                                                                                                                                                                                                                           000OB000000002T
500016354     20101028SIMUANUPOS     00S007539DEDividendo en efectivo                             000002908US3703341046GENERAL MILLS INC             NYS       USDRV                    000000000                                                     02320301100002055066        000000000802488             ALTAE / RESIDENTES EN ESPA#A            0000000000040000000000000000000000030000201010050000000000000000000000000000000001000000000USD00000000000000002800000000000001120000150000000000000000001680000000000000009520001900000000000000000021280000000000000073922010110120101101        INVERSIS CB NEW YORK                                             000000000                                                    20101101                        00000000000000000000000000000000000000000000000000000000000000000000000000000000000000000000000000000000000DE            0000000000000000000000                                                                                                                                                                                                                                                                                                                                                                                           000OB000000002T
500016354     20101028SIMUANUPOS     00S007408DEDividendo en efectivo                             000003236US2605431038DOW CHEMICAL                  NYS       USDRV                    000000000                                                     02320301100002606655        000000000802482             MADRID BOLSA NEW YORK,FIM               0000000000500000000000000000000001250000201009270000000000000000000000000000000001000000000USD00000000000000001500000000000007500000150000000000000000011250000000000000063750001900000000000000000142500000000000000495002010102920101029        INVERSIS CB NEW YORK                                             000000000                                                    20101029                        00000000000000000000000000000000000000000000000000000000000000000000000000000000000000000000000000000000000DE            0000000000000000000000                                                                                                                                                                                                                                                                                                                                                                                           000OB000000002T
500016354     20101028SIMUANUPOS     00S007408DEDividendo en efectivo                             000003236US2605431038DOW CHEMICAL                  NYS       USDRV                    000000000                                                     02320301100002055066        000000000802488             ALTAE / RESIDENTES EN ESPA#A            0000000000396000000000000000000000990000201009270000000000000000000000000000000001000000000USD00000000000000001500000000000005940000150000000000000000008910000000000000050490001900000000000000000112860000000000000392042010102920101029        INVERSIS CB NEW YORK                                             000000000                                                    20101029                        00000000000000000000000000000000000000000000000000000000000000000000000000000000000000000000000000000000000DE            0000000000000000000000                                                                                                                                                                                                                                                                                                                                                                                           000OB000000002T
500016354     20101028SIMUANUPOS     00S007408DEDividendo en efectivo                             000003236US2605431038DOW CHEMICAL                  NYS       USDRV                    000000000                                                     02320301100002054763        000000000802485             CAJAMADRID / RESIDENTES EN ESPA#A       0000000000089100000000000000000000222750201009270000000000000000000000000000000001000000000USD00000000000000001500000000000001336500150019000000000000002005000000000000011360001899740000000000000025390000000000000088212010102920101029        INVERSIS CB NEW YORK                                             000000000                                                    20101029                        00000000000000000000000000000000000000000000000000000000000000000000000000000000000000000000000000000000000DE            0000000000000000000000                                                                                                                                                                                                                                                                                                                                                                                           000OB000000002T
500016354     20101028SIMUANUPOS     00S007321DEDividendo en efectivo                             000003266US2441991054DEERE AND CO                  NYS       USDRV                    000000000                                                     02320301100002606655        000000000802482             MADRID BOLSA NEW YORK,FIM               0000000000140000000000000000000000140000201009270000000000000000000000000000000001000000000USD00000000000000003000000000000004200000150000000000000000006300000000000000035700001900000000000000000079800000000000000277202010110120101101        INVERSIS CB NEW YORK                                             000000000                                                    20101101                        00000000000000000000000000000000000000000000000000000000000000000000000000000000000000000000000000000000000DE            0000000000000000000000                                                                                                                                                                                                                                                                                                                                                                                           000OB000000002T
500016354     20101028SIMUANUPOS     00S007321DEDividendo en efectivo                             000003266US2441991054DEERE AND CO                  NYS       USDRV                    000000000                                                     02320301100002054763        000000000802485             CAJAMADRID / RESIDENTES EN ESPA#A       0000000000200000000000000000000000200000201009270000000000000000000000000000000001000000000USD00000000000000003000000000000006000000150000000000000000009000000000000000051000001900000000000000000114000000000000000396002010110120101101        INVERSIS CB NEW YORK                                             000000000                                                    20101101                        00000000000000000000000000000000000000000000000000000000000000000000000000000000000000000000000000000000000DE            0000000000000000000000                                                                                                                                                                                                                                                                                                                                                                                           000OB000000002T
500016354     20101028SIMUANUPOS     00S007434DEDividendo en efectivo                             000003360US2358511028DANAHER CORP                  NYS       USDRV                    000000000                                                     02320301100002054763        000000000802485             CAJAMADRID / RESIDENTES EN ESPA#A       0000000000007000000000000000000000000070201009210000000000000000000000000000000001000000000USD00000000000000000200000000000000014000150000000000000000000021000000000000000119001928570000000000000000270000000000000000922010102920101029        INVERSIS CB NEW YORK                                             000000000                                                    20101029                        00000000000000000000000000000000000000000000000000000000000000000000000000000000000000000000000000000000000DE            0000000000000000000000                                                                                                                                                                                                                                                                                                                                                                                           000OB000000002T
500016354     20101028SIMUANUPOS     00S007434DEDividendo en efectivo                             000003360US2358511028DANAHER CORP                  NYS       USDRV                    000000000                                                     02320301100002606655        000000000802482             MADRID BOLSA NEW YORK,FIM               0000000000480000000000000000000000004800201009210000000000000000000000000000000001000000000USD00000000000000000200000000000000960000150000000000000000001440000000000000008160001900000000000000000018240000000000000063362010102920101029        INVERSIS CB NEW YORK                                             000000000                                                    20101029                        00000000000000000000000000000000000000000000000000000000000000000000000000000000000000000000000000000000000DE            0000000000000000000000                                                                                                                                                                                                                                                                                                                                                                                           000OB000000002T
500016354     20101028SIMUANUPOS     00S007369DEDividendo en efectivo                             000003754US92343V1044VERIZON COMMUNICATIONS        NYS       USDRV                    000000000                                                     02320301100002054763        000000000802485             CAJAMADRID / RESIDENTES EN ESPA#A       0000000000019200000000000000000000019200201010050000000000000000000000000000000001000000000USD00000000000000004900000000000000936000150000000000000000001404000000000000007956001899570000000000000017780000000000000061782010110120101101        INVERSIS CB NEW YORK                                             000000000                                                    20101101                        00000000000000000000000000000000000000000000000000000000000000000000000000000000000000000000000000000000000DE            0000000000000000000000                                                                                                                                                                                                                                                                                                                                                                                           000OB000000002T
500016354     20101028SIMUANUPOS     00S007369DEDividendo en efectivo                             000003754US92343V1044VERIZON COMMUNICATIONS        NYS       USDRV                    000000000                                                     02320301100002606465        000000000802660             CAJAMADRID TELECO-TECH GLOBAL FI        0000000000615900000000000000000000615900201010050000000000000000000000000000000001000000000USD00000000000000004900000000000030025100150001000000000000045038000000000000255213001900010000000000000570480000000000001981652010110120101101        INVERSIS CB NEW YORK                                             000000000                                                    20101101                        00000000000000000000000000000000000000000000000000000000000000000000000000000000000000000000000000000000000DE            0000000000000000000000                                                                                                                                                                                                                                                                                                                                                                                           000OB000000002T
500016354     20101028SIMUANUPOS     00S007405DEDividendo en efectivo                             000003828US1101221083BRISTOL MYERS SQUIBB          NYS       USDRV                    000000000                                                     02320301100002054763        000000000802485             CAJAMADRID / RESIDENTES EN ESPA#A       0000000000218000000000000000000000021800201009280000000000000000000000000000000001000000000USD00000000000000003200000000000006976000150000000000000000010464000000000000059296001899940000000000000132540000000000000460422010110120101101        INVERSIS CB NEW YORK                                             000000000                                                    20101101                        00000000000000000000000000000000000000000000000000000000000000000000000000000000000000000000000000000000000DE            0000000000000000000000                                                                                                                                                                                                                                                                                                                                                                                           000OB000000002T
500016354     20101028SIMUANUPOS     00M662286DEDividendo en efectivo                             000003898US0549371070BB T                          NYS       USDRV                    000000000                                                     02320301100002606655        000000000802482             MADRID BOLSA NEW YORK,FIM               0000000000270000000000000000000000270000201010120000000000000000000000000000000001000000000USD00000000000000001500000000000004050000150000000000000000006075000000000000034425001900000000000000000076950000000000000267302010110120101101        INVERSIS CB NEW YORK                                             000000000                                                    20101101                        00000000000000000000000000000000000000000000000000000000000000000000000000000000000000000000000000000000000              0000000000000000000000                                                                                                                                                                                                                                                                                                                                                                                           000OB000000002T
500016354     20101028SIMUANUPOS     00M662607DEDividendo en efectivo                             000005152NL0000009132AKZO NOBEL NV                 AEX       EURRV                    000000000                                                     02320101200002877600        000000000804000             PREVISION SOCIAL EMPL G.ENDESA, FP      0000000002500000000000000000000012500000201010220000000000000000000000000000000001000000000EUR00000000000000003200000000000080000000150000000000000000120000000000000000680000001900000000000000001520000000000000005280002010110320101103        INVERSIS CB AMSTERDAM                                            000000000                                                    20101103                        00000000000000000000000000000000000000000000000000000000000000000000000000000000000000000000000000000000000              0000000000000000000000                                                                                                                                                                                                                                                                                                                                                                                           000OB000000002T
500016354     20101028SIMUANUPOS     00M662607DEDividendo en efectivo                             000005152NL0000009132AKZO NOBEL NV                 AEX       EURRV                    000000000                                                     02320301100002054763        000000000802485             CAJAMADRID / RESIDENTES EN ESPA#A       0000000000003000000000000000000000015000201010220000000000000000000000000000000001000000000EUR00000000000000003200000000000000096000150000000000000000000144000000000000000816001895830000000000000001820000000000000006342010110320101103        INVERSIS CB AMSTERDAM                                            000000000                                                    20101103                        00000000000000000000000000000000000000000000000000000000000000000000000000000000000000000000000000000000000              0000000000000000000000                                                                                                                                                                                                                                                                                                                                                                                           000OB000000002T
500016354     20101028SIMUANUPOS     00M662436DEDividendo en efectivo                             000011385US78462F1030ETF- SPDR S&P 500 TRUST       ARCA      USDRV                    000000000                                                     02320301100002055066        000000000802488             ALTAE / RESIDENTES EN ESPA#A            0000000000015000000000000000000000000000201009200000000000000000000000000000000001000000000USD00000000000000006000000000000000903200150022000000000000001355000000000000007677001899910000000000000017160000000000000059612010102920101029        INVERSIS CB NEW YORK                                             000000000                                                    20101029                        00000000000000000000000000000000000000000000000000000000000000000000000000000000000000000000000000000000000              0000000000000000000000                                                                                                                                                                                                                                                                                                                                                                                           000OB000000002T
500016354     20101028SIMUANUPOS     00M662436DEDividendo en efectivo                             000011385US78462F1030ETF- SPDR S&P 500 TRUST       ARCA      USDRV                    000000000                                                     02320301100002594269        000000000802599             AHORROMADRID IV FONDO PENSIONES         0000000000084500000000000000000000000000201009200000000000000000000000000000000001000000000USD00000000000000006000000000000005088000150000000000000000007632000000000000043248001899960000000000000096670000000000000335812010102920101029        INVERSIS CB NEW YORK                                             000000000                                                    20101029                        00000000000000000000000000000000000000000000000000000000000000000000000000000000000000000000000000000000000              0000000000000000000000                                                                                                                                                                                                                                                                                                                                                                                           000OB000000002T
500016354     20101028SIMUANUPOS     00M662436DEDividendo en efectivo                             000011385US78462F1030ETF- SPDR S&P 500 TRUST       ARCA      USDRV                    000000000                                                     02320301100002054763        000000000802485             CAJAMADRID / RESIDENTES EN ESPA#A       0000000000002400000000000000000000000000201009200000000000000000000000000000000001000000000USD00000000000000006000000000000000144500150173000000000000000217000000000000001228001903110000000000000002750000000000000009532010102920101029        INVERSIS CB NEW YORK                                             000000000                                                    20101029                        00000000000000000000000000000000000000000000000000000000000000000000000000000000000000000000000000000000000              0000000000000000000000                                                                                                                                                                                                                                                                                                                                                                                           000OB000000002T
500016354     20101028SIMUANUPOS     00M662436DEDividendo en efectivo                             000011385US78462F1030ETF- SPDR S&P 500 TRUST       ARCA      USDRV                    000000000                                                     02320101200002877600        000000000804000             PREVISION SOCIAL EMPL G.ENDESA, FP      0000000019650500000000000000000000000000201009200000000000000000000000000000000001000000000USD00000000000000006000000000001183215600150000000000000001774823000000000010057333001900000000000000022481100000000000078092232010102920101029        INVERSIS CB NEW YORK                                             000000000                                                    20101029                        00000000000000000000000000000000000000000000000000000000000000000000000000000000000000000000000000000000000              0000000000000000000000                                                                                                                                                                                                                                                                                                                                                                                           000OB000000002T
500016354     20101028SIMUANUPOS     00S007308DEDividendo en efectivo                             000011916US20030N1019COMCAST CORP - CL A           NDQ       USDRV                    000000000                                                     02320301100002054763        000000000802485             CAJAMADRID / RESIDENTES EN ESPA#A       0000000000031100000000000000000000031100201010010000000000000000000000000000000001000000000USD00000000000000000900000000000000293900150051000000000000000441000000000000002498001898600000000000000005580000000000000019402010102720101027        INVERSIS CB NEW YORK                                             000000000                                                    20101027                        00000000000000000000000000000000000000000000000000000000000000000000000000000000000000000000000000000000000DE            0000000000000000000000                                                                                                                                                                                                                                                                                                                                                                                           000OB000000002T
500016354     20101028SIMUANUPOS     00S007308DEDividendo en efectivo                             000011916US20030N1019COMCAST CORP - CL A           NDQ       USDRV                    000000000                                                     02320301100002055066        000000000802488             ALTAE / RESIDENTES EN ESPA#A            0000000000007200000000000000000000007200201010010000000000000000000000000000000001000000000USD00000000000000000900000000000000068000150000000000000000000102000000000000000578001897060000000000000001290000000000000004492010102720101027        INVERSIS CB NEW YORK                                             000000000                                                    20101027                        00000000000000000000000000000000000000000000000000000000000000000000000000000000000000000000000000000000000DE            0000000000000000000000                                                                                                                                                                                                                                                                                                                                                                                           000OB000000002T
500016354     20101028SIMUANUPOS     00S007308DEDividendo en efectivo                             000011916US20030N1019COMCAST CORP - CL A           NDQ       USDRV                    000000000                                                     02320301100002606655        000000000802482             MADRID BOLSA NEW YORK,FIM               0000000000180000000000000000000000180000201010010000000000000000000000000000000001000000000USD00000000000000000900000000000001701000150029000000000000002552000000000000014458001900060000000000000032320000000000000112262010102720101027        INVERSIS CB NEW YORK                                             000000000                                                    20101027                        00000000000000000000000000000000000000000000000000000000000000000000000000000000000000000000000000000000000DE            0000000000000000000000                                                                                                                                                                                                                                                                                                                                                                                           000OB000000002T
500016354     20101028SIMUANUPOS     00S007334DEDividendo en efectivo                             000012940US61166W1018MONSANTO                      NYS       USDRV                    000000000                                                     02320301100002054763        000000000802485             CAJAMADRID / RESIDENTES EN ESPA#A       0000000000009000000000000000000000000090201010050000000000000000000000000000000001000000000USD00000000000000002800000000000000252000150000000000000000000378000000000000002142001900790000000000000004790000000000000016632010102920101029        INVERSIS CB NEW YORK                                             000000000                                                    20101029                        00000000000000000000000000000000000000000000000000000000000000000000000000000000000000000000000000000000000DE            0000000000000000000000                                                                                                                                                                                                                                                                                                                                                                                           000OB000000002T
500016354     20101028SIMUANUPOS     00S007105DEDividendo en efectivo                             000013625GB0003718474GAMES WORKSHOP GROUP          SET       GBPRV                    000000000                                                     02320301100002054763        000000000802485             CAJAMADRID / RESIDENTES EN ESPA#A       0000000000004000000000000000000000020000201009280000000000000000000000000000000001000000000GBP00000000000000002800000000000000111100099910000000000000000111000000000000001000001899190000000000000002110000000000000007892010102920101029        INVERSIS CB                                                      000000000                                                    20101029                2010100700000000000000000000000000000000000000000000000000000000000000000000000000000000000000000000000000000000000DE            0000000000000000000000                                                                                                                                                                                                                                                                                                                                                                                           000OB000000002T
500016354     20101028SIMUANUPOS     00S007304DEDividendo en efectivo                             000013664IE0001827041CRH PLC - ORD SHS             SET       EURRV                    000000000                                                     02320301100002607760        000000000802533             PLUSMADRID 15 FIM                       0000000000331600000000000000000000106112201008310000000000000000000000000000000001000000000EUR00000000000000001900000000000006134600199997000000000000012269000000000000049077001900040000000000000116560000000000000374212010102920101029        INVERSIS CB                                                      000000000                                                    20101029                        00000000000000000000000000000000000000000000000000000000000000000000000000000000000000000000000000000000000DE            0000000000000000000000                                                                                                                                                                                                                                                                                                                                                                                           000OB000000002T
500016354     20101028SIMUANUPOS     00S007304DEDividendo en efectivo                             000013664IE0001827041CRH PLC - ORD SHS             SET       EURRV                    000000000                                                     02320301100002607999        000000000802606             PLUSMADRID 75, F.I.M.                   0000000000388500000000000000000000124320201008310000000000000000000000000000000001000000000EUR00000000000000001900000000000007187300200006000000000000014375000000000000057498001900020000000000000136560000000000000438422010102920101029        INVERSIS CB                                                      000000000                                                    20101029                        00000000000000000000000000000000000000000000000000000000000000000000000000000000000000000000000000000000000DE            0000000000000000000000                                                                                                                                                                                                                                                                                                                                                                                           000OB000000002T
500016354     20101028SIMUANUPOS     00S007304DEDividendo en efectivo                             000013664IE0001827041CRH PLC - ORD SHS             SET       EURRV                    000000000                                                     02320301110002608031        000000000802607             PLUSMADRID 50, F.I.M.                   0000000000117100000000000000000000037472201008310000000000000000000000000000000001000000000EUR00000000000000001900000000000002166400200009000000000000004333000000000000017331001899930000000000000041160000000000000132152010102920101029        INVERSIS CB                                                      000000000                                                    20101029                        00000000000000000000000000000000000000000000000000000000000000000000000000000000000000000000000000000000000DE            0000000000000000000000                                                                                                                                                                                                                                                                                                                                                                                           000OB000000002T
500016354     20101028SIMUANUPOS     00S007304DEDividendo en efectivo                             000013664IE0001827041CRH PLC - ORD SHS             SET       EURRV                    000000000                                                     02320301100002608097        000000000802608             PLUSMADRID 25, F.I.M.                   0000000000102500000000000000000000032800201008310000000000000000000000000000000001000000000EUR00000000000000001900000000000001896300200021000000000000003793000000000000015170001900020000000000000036030000000000000115672010102920101029        INVERSIS CB                                                      000000000                                                    20101029                        00000000000000000000000000000000000000000000000000000000000000000000000000000000000000000000000000000000000DE            0000000000000000000000                                                                                                                                                                                                                                                                                                                                                                                           000OB000000002T
500016354     20101028SIMUANUPOS     00S007304DEDividendo en efectivo                             000013664IE0001827041CRH PLC - ORD SHS             SET       EURRV                    000000000                                                     02320105000006127305        000000000802311             CAJA MADRID INDICE EURO STOXX 50, FI    0000000000032500000000000000000000010400201008310000000000000000000000000000000001000000000EUR00000000000000001900000000000000601300200067000000000000001203000000000000004810001899220000000000000011420000000000000036682010102920101029        INVERSIS CB                                                      000000000                                                    20101029                        00000000000000000000000000000000000000000000000000000000000000000000000000000000000000000000000000000000000DE            0000000000000000000000                                                                                                                                                                                                                                                                                                                                                                                           000OB000000002T
500016354     20101028SIMUANUPOS     00S007304DEDividendo en efectivo                             000013664IE0001827041CRH PLC - ORD SHS             SET       EURRV                    000000000                                                     02320301100002606748        000000000802510             PLUSMADRID AHORRO EURO FIM              0000000000045300000000000000000000014496201008310000000000000000000000000000000001000000000EUR00000000000000001900000000000000838100199976000000000000001676000000000000006705001899530000000000000015920000000000000051132010102920101029        INVERSIS CB                                                      000000000                                                    20101029                        00000000000000000000000000000000000000000000000000000000000000000000000000000000000000000000000000000000000DE            0000000000000000000000                                                                                                                                                                                                                                                                                                                                                                                           000OB000000002T
500016354     20101028SIMUANUPOS     000000000                                                    000015201DE0001325017DEUDA ARGENTINA 11,75 200511  RFEOC     EURRF                    000000000                                                     02320301110002497051        000000000802490             RF CAJAMADRID PERS FISICAS RESIDENTES   0000000000000400000000000000000000400000        0000000000000000000000000000000001000000000EUR00000000000000000000000000000000000000000000000000000000000000000000000000000000000000000000000000000000000000000000000000002009052020090520        INVERSIS CB EUROCLEAR                                            000000000                                                                                    00000000000000000000000000000000000000000000000000000000000000000000000000000000000000000000000000000000000              0000000000000000000000                                                                                                                                                                                                                                                                                                                                                                                           000  000000002
500016354     20101028SIMUANUPOS     000000000                                                    000015424ES0278430717TELEFONICA 0 COUPON           RFEOC     EURRF                    000000000                                                     02320301100002608200        000000000802641             MAPFRE VIDA                             0000000000015900000000000000000004778109        0000000000000000000000000000000001000000000EUR00000000000000000000000000000000000000000000000000000000000000000000000000000000000000000000000000000000000000000000000000002005122820051228        INVERSIS CB EUROCLEAR                                            000000000                                                                                    00000000000000000000000000000000000000000000000000000000000000000000000000000000000000000000000000000000000              0000000000000000000000                                                                                                                                                                                                                                                                                                                                                                                           000  000000002
500016354     20101028SIMUANUPOS     000000000                                                    000015424ES0278430717TELEFONICA 0 COUPON           RFEOC     EURRF                    000000000                                                     02320301100002495812        000000000802200             RF CAJAMADRID- JURIDICAS RESIDENTES     0000000000583200000000000000000175257432        0000000000000000000000000000000001000000000EUR00000000000000000000000000000000000000000000000000000000000000000000000000000000000000000000000000000000000000000000000000002005122820051228        INVERSIS CB EUROCLEAR                                            000000000                                                                                    00000000000000000000000000000000000000000000000000000000000000000000000000000000000000000000000000000000000              0000000000000000000000                                                                                                                                                                                                                                                                                                                                                                                           000  000000002
500016354     20101028SIMUANUPOS     000000000                                                    000015424ES0278430717TELEFONICA 0 COUPON           RFEOC     EURRF                    000000000                                                     02320301100002497079        000000000802494             RF ALTAE PERSONAS FISICAS RESIDENTES    0000000000049500000000000000000014875245        0000000000000000000000000000000001000000000EUR00000000000000000000000000000000000000000000000000000000000000000000000000000000000000000000000000000000000000000000000000002005122820051228        INVERSIS CB EUROCLEAR                                            000000000                                                                                    00000000000000000000000000000000000000000000000000000000000000000000000000000000000000000000000000000000000              0000000000000000000000                                                                                                                                                                                                                                                                                                                                                                                           000  000000002
500016354     20101028SIMUANUPOS     000000000                                                    000015424ES0278430717TELEFONICA 0 COUPON           RFEOC     EURRF                    000000000                                                     02320301100002608200        000000000802641             MAPFRE VIDA                             0000000000015900000000000000000004778109        0000000000000000000000000000000001000000000EUR00000000000000000000000000000000000000000000000000000000000000000000000000000000000000000000000000000000000000000000000000002005122820051228        INVERSIS CB EUROCLEAR                                            000000000                                                                                    00000000000000000000000000000000000000000000000000000000000000000000000000000000000000000000000000000000000              0000000000000000000000                                                                                                                                                                                                                                                                                                                                                                                           000  000000002
500016354     20101028SIMUANUPOS     000000000                                                    000015424ES0278430717TELEFONICA 0 COUPON           RFEOC     EURRF                    000000000                                                     02320301100002497079        000000000802494             RF ALTAE PERSONAS FISICAS RESIDENTES    0000000000049500000000000000000014875245        0000000000000000000000000000000001000000000EUR00000000000000000000000000000000000000000000000000000000000000000000000000000000000000000000000000000000000000000000000000002005122820051228        INVERSIS CB EUROCLEAR                                            000000000                                                                                    00000000000000000000000000000000000000000000000000000000000000000000000000000000000000000000000000000000000              0000000000000000000000                                                                                                                                                                                                                                                                                                                                                                                           000  000000002
500016354     20101028SIMUANUPOS     000000000                                                    000015424ES0278430717TELEFONICA 0 COUPON           RFEOC     EURRF                    000000000                                                     02320301100002495812        000000000802200             RF CAJAMADRID- JURIDICAS RESIDENTES     0000000000583200000000000000000175257432        0000000000000000000000000000000001000000000EUR00000000000000000000000000000000000000000000000000000000000000000000000000000000000000000000000000000000000000000000000000002005122820051228        INVERSIS CB EUROCLEAR                                            000000000                                                                                    00000000000000000000000000000000000000000000000000000000000000000000000000000000000000000000000000000000000              0000000000000000000000                                                                                                                                                                                                                                                                                                                                                                                           000  000000002
500016354     20101028SIMUANUPOS     000000000                                                    000015424ES0278430717TELEFONICA 0 COUPON           RFEOC     EURRF                    000000000                                                     02320301100002608200        000000000802641             MAPFRE VIDA                             0000000000015900000000000000000004778109        0000000000000000000000000000000001000000000EUR00000000000000000000000000000000000000000000000000000000000000000000000000000000000000000000000000000000000000000000000000002005122820051228        INVERSIS CB EUROCLEAR                                            000000000                                                                                    00000000000000000000000000000000000000000000000000000000000000000000000000000000000000000000000000000000000              0000000000000000000000                                                                                                                                                                                                                                                                                                                                                                                           000  000000002
500016354     20101028SIMUANUPOS     000000000                                                    000015424ES0278430717TELEFONICA 0 COUPON           RFEOC     EURRF                    000000000                                                     02320301100002497079        000000000802494             RF ALTAE PERSONAS FISICAS RESIDENTES    0000000000049500000000000000000014875245        0000000000000000000000000000000001000000000EUR00000000000000000000000000000000000000000000000000000000000000000000000000000000000000000000000000000000000000000000000000002005122820051228        INVERSIS CB EUROCLEAR                                            000000000                                                                                    00000000000000000000000000000000000000000000000000000000000000000000000000000000000000000000000000000000000              0000000000000000000000                                                                                                                                                                                                                                                                                                                                                                                           000  000000002
500016354     20101028SIMUANUPOS     000000000                                                    000015424ES0278430717TELEFONICA 0 COUPON           RFEOC     EURRF                    000000000                                                     02320301100002495812        000000000802200             RF CAJAMADRID- JURIDICAS RESIDENTES     0000000000583200000000000000000175257432        0000000000000000000000000000000001000000000EUR00000000000000000000000000000000000000000000000000000000000000000000000000000000000000000000000000000000000000000000000000002005122820051228        INVERSIS CB EUROCLEAR                                            000000000                                                                                    00000000000000000000000000000000000000000000000000000000000000000000000000000000000000000000000000000000000              0000000000000000000000                                                                                                                                                                                                                                                                                                                                                                                           000  000000002
500016354     20101028SIMUANUPOS     000000000                                                    000015424ES0278430717TELEFONICA 0 COUPON           RFEOC     EURRF                    000000000                                                     02320301100002608200        000000000802641             MAPFRE VIDA                             0000000000015900000000000000000004778109        0000000000000000000000000000000001000000000EUR00000000000000000000000000000000000000000000000000000000000000000000000000000000000000000000000000000000000000000000000000002005122820051228        INVERSIS CB EUROCLEAR                                            000000000                                                                                    00000000000000000000000000000000000000000000000000000000000000000000000000000000000000000000000000000000000              0000000000000000000000                                                                                                                                                                                                                                                                                                                                                                                           000  000000002
500016354     20101028SIMUANUPOS     000000000                                                    000015424ES0278430717TELEFONICA 0 COUPON           RFEOC     EURRF                    000000000                                                     02320301100002497079        000000000802494             RF ALTAE PERSONAS FISICAS RESIDENTES    0000000000049500000000000000000014875245        0000000000000000000000000000000001000000000EUR00000000000000000000000000000000000000000000000000000000000000000000000000000000000000000000000000000000000000000000000000002005122820051228        INVERSIS CB EUROCLEAR                                            000000000                                                                                    00000000000000000000000000000000000000000000000000000000000000000000000000000000000000000000000000000000000              0000000000000000000000                                                                                                                                                                                                                                                                                                                                                                                           000  000000002
500016354     20101028SIMUANUPOS     000000000                                                    000015424ES0278430717TELEFONICA 0 COUPON           RFEOC     EURRF                    000000000                                                     02320301100002495812        000000000802200             RF CAJAMADRID- JURIDICAS RESIDENTES     0000000000583200000000000000000175257432        0000000000000000000000000000000001000000000EUR00000000000000000000000000000000000000000000000000000000000000000000000000000000000000000000000000000000000000000000000000002005122820051228        INVERSIS CB EUROCLEAR                                            000000000                                                                                    00000000000000000000000000000000000000000000000000000000000000000000000000000000000000000000000000000000000              0000000000000000000000                                                                                                                                                                                                                                                                                                                                                                                           000  000000002
500016354     20101028SIMUANUPOS     000000000                                                    000015424ES0278430717TELEFONICA 0 COUPON           RFEOC     EURRF                    000000000                                                     02320301100002608200        000000000802641             MAPFRE VIDA                             0000000000015900000000000000000004778109        0000000000000000000000000000000001000000000EUR00000000000000000000000000000000000000000000000000000000000000000000000000000000000000000000000000000000000000000000000000002005122820051228        INVERSIS CB EUROCLEAR                                            000000000                                                                                    00000000000000000000000000000000000000000000000000000000000000000000000000000000000000000000000000000000000              0000000000000000000000                                                                                                                                                                                                                                                                                                                                                                                           000  000000002
500016354     20101028SIMUANUPOS     000000000                                                    000015424ES0278430717TELEFONICA 0 COUPON           RFEOC     EURRF                    000000000                                                     02320301100002497079        000000000802494             RF ALTAE PERSONAS FISICAS RESIDENTES    0000000000049500000000000000000014875245        0000000000000000000000000000000001000000000EUR00000000000000000000000000000000000000000000000000000000000000000000000000000000000000000000000000000000000000000000000000002005122820051228        INVERSIS CB EUROCLEAR                                            000000000                                                                                    00000000000000000000000000000000000000000000000000000000000000000000000000000000000000000000000000000000000              0000000000000000000000                                                                                                                                                                                                                                                                                                                                                                                           000  000000002
500016354     20101028SIMUANUPOS     000000000                                                    000015424ES0278430717TELEFONICA 0 COUPON           RFEOC     EURRF                    000000000                                                     02320301100002495812        000000000802200             RF CAJAMADRID- JURIDICAS RESIDENTES     0000000000583200000000000000000175257432        0000000000000000000000000000000001000000000EUR00000000000000000000000000000000000000000000000000000000000000000000000000000000000000000000000000000000000000000000000000002005122820051228        INVERSIS CB EUROCLEAR                                            000000000                                                                                    00000000000000000000000000000000000000000000000000000000000000000000000000000000000000000000000000000000000              0000000000000000000000                                                                                                                                                                                                                                                                                                                                                                                           000  000000002
500016354     20101028SIMUANUPOS     000000000                                                    000015424ES0278430717TELEFONICA 0 COUPON           RFEOC     EURRF                    000000000                                                     02320301100002608200        000000000802641             MAPFRE VIDA                             0000000000015900000000000000000004778109        0000000000000000000000000000000001000000000EUR00000000000000000000000000000000000000000000000000000000000000000000000000000000000000000000000000000000000000000000000000002005122820051228        INVERSIS CB EUROCLEAR                                            000000000                                                                                    00000000000000000000000000000000000000000000000000000000000000000000000000000000000000000000000000000000000              0000000000000000000000                                                                                                                                                                                                                                                                                                                                                                                           000  000000002
500016354     20101028SIMUANUPOS     000000000                                                    000015424ES0278430717TELEFONICA 0 COUPON           RFEOC     EURRF                    000000000                                                     02320301100002497079        000000000802494             RF ALTAE PERSONAS FISICAS RESIDENTES    0000000000049500000000000000000014875245        0000000000000000000000000000000001000000000EUR00000000000000000000000000000000000000000000000000000000000000000000000000000000000000000000000000000000000000000000000000002005122820051228        INVERSIS CB EUROCLEAR                                            000000000                                                                                    00000000000000000000000000000000000000000000000000000000000000000000000000000000000000000000000000000000000              0000000000000000000000                                                                                                                                                                                                                                                                                                                                                                                           000  000000002
500016354     20101028SIMUANUPOS     000000000                                                    000015424ES0278430717TELEFONICA 0 COUPON           RFEOC     EURRF                    000000000                                                     02320301100002495812        000000000802200             RF CAJAMADRID- JURIDICAS RESIDENTES     0000000000583200000000000000000175257432        0000000000000000000000000000000001000000000EUR00000000000000000000000000000000000000000000000000000000000000000000000000000000000000000000000000000000000000000000000000002005122820051228        INVERSIS CB EUROCLEAR                                            000000000                                                                                    00000000000000000000000000000000000000000000000000000000000000000000000000000000000000000000000000000000000              0000000000000000000000                                                                                                                                                                                                                                                                                                                                                                                           000  000000002
500016354     20101028SIMUANUPOS     000000000                                                    000015424ES0278430717TELEFONICA 0 COUPON           RFEOC     EURRF                    000000000                                                     02320301100002608200        000000000802641             MAPFRE VIDA                             0000000000015900000000000000000004778109        0000000000000000000000000000000001000000000EUR00000000000000000000000000000000000000000000000000000000000000000000000000000000000000000000000000000000000000000000000000002005122820051228        INVERSIS CB EUROCLEAR                                            000000000                                                                                    00000000000000000000000000000000000000000000000000000000000000000000000000000000000000000000000000000000000              0000000000000000000000                                                                                                                                                                                                                                                                                                                                                                                           000  000000002
500016354     20101028SIMUANUPOS     000000000                                                    000015424ES0278430717TELEFONICA 0 COUPON           RFEOC     EURRF                    000000000                                                     02320301100002495812        000000000802200             RF CAJAMADRID- JURIDICAS RESIDENTES     0000000000583200000000000000000175257432        0000000000000000000000000000000001000000000EUR00000000000000000000000000000000000000000000000000000000000000000000000000000000000000000000000000000000000000000000000000002005122820051228        INVERSIS CB EUROCLEAR                                            000000000                                                                                    00000000000000000000000000000000000000000000000000000000000000000000000000000000000000000000000000000000000              0000000000000000000000                                                                                                                                                                                                                                                                                                                                                                                           000  000000002
500016354     20101028SIMUANUPOS     000000000                                                    000015424ES0278430717TELEFONICA 0 COUPON           RFEOC     EURRF                    000000000                                                     02320301100002497079        000000000802494             RF ALTAE PERSONAS FISICAS RESIDENTES    0000000000049500000000000000000014875245        0000000000000000000000000000000001000000000EUR00000000000000000000000000000000000000000000000000000000000000000000000000000000000000000000000000000000000000000000000000002005122820051228        INVERSIS CB EUROCLEAR                                            000000000                                                                                    00000000000000000000000000000000000000000000000000000000000000000000000000000000000000000000000000000000000              0000000000000000000000                                                                                                                                                                                                                                                                                                                                                                                           000  000000002
500016354     20101028SIMUANUPOS     000000000                                                    000016532US040114GF14REP. ARGENTINA 7 191208       RFEOC     USDRF                    000000000                                                     02320301110002497051        000000000802490             RF CAJAMADRID PERS FISICAS RESIDENTES   0000000003000000000000000000000003000000        0000000000000000000000000000000001000000000USD00000000000000000400000000000010500000000000000000000000000000000000000000105000001800000000000000000189000000000000000861002007121920071219        INVERSIS CB EUROCLEAR                                            000000000                                                                                    00000000000000000000000000000000000000000000000000000000000000000000000000000000000000000000000000000000000              0000000000000000000000                                                                                                                                                                                                                                                                                                                                                                                           000  000000002
500016354     20101028SIMUANUPOS     000000000                                                    000016534US040114AV28REP. ARGENTINA 9,75 190927    RFEOC     USDRF                    000000000                                                     02320301110002497051        000000000802490             RF CAJAMADRID PERS FISICAS RESIDENTES   0000000000002600000000000000000002600000        0000000000000000000000000000000001000000000USD0000000000000048750000000000001267500000000000000000000000000000000000000012675000000000000000000000000000000000000000126750200709192007091920070919INVERSIS CB EUROCLEAR                                            000000000                                                                                    00000000000000000000000000000000000000000000000000000000000000000000000000000000000000000000000000000000000              0000000000000000000000                                                                                                                                                                                                                                                                                                                                                                                           000  000000002
500016354     20101028SIMUANUPOS     000000000                                                    000016534US040114AV28REP. ARGENTINA 9,75 190927    RFEOC     USDRF                    000000000                                                     02320301110002497051        000000000802490             RF CAJAMADRID PERS FISICAS RESIDENTES   0000000000002600000000000000000002600000        0000000000000000000000000000000001000000000USD0000000000000048750000000000001267500000000000000000000000000000000000000012675000000000000000000000000000000000000000126750200703192007031920070319INVERSIS CB EUROCLEAR                                            000000000                                                                                    00000000000000000000000000000000000000000000000000000000000000000000000000000000000000000000000000000000000              0000000000000000000000                                                                                                                                                                                                                                                                                                                                                                                           000  000000002
500016354     20101028SIMUANUPOS     000000000                                                    000016534US040114AV28REP. ARGENTINA 9,75 190927    RFEOC     USDRF                    000000000                                                     02320301110002497051        000000000802490             RF CAJAMADRID PERS FISICAS RESIDENTES   0000000000002600000000000000000002600000        0000000000000000000000000000000001000000000USD0000000000000048750000000000001267500000000000000000000000000000000000000012675000000000000000000000000000000000000000126750200709192007091920070919INVERSIS CB EUROCLEAR                                            000000000                                                                                    00000000000000000000000000000000000000000000000000000000000000000000000000000000000000000000000000000000000              0000000000000000000000                                                                                                                                                                                                                                                                                                                                                                                           000  000000002
500016354     20101028SIMUANUPOS     000000000                                                    000016534US040114AV28REP. ARGENTINA 9,75 190927    RFEOC     USDRF                    000000000                                                     02320301110002497051        000000000802490             RF CAJAMADRID PERS FISICAS RESIDENTES   0000000000002600000000000000000002600000        0000000000000000000000000000000001000000000USD0000000000000048750000000000001267500000000000000000000000000000000000000012675000000000000000000000000000000000000000126750200609192006091920060919INVERSIS CB EUROCLEAR                                            000000000                                                                                    00000000000000000000000000000000000000000000000000000000000000000000000000000000000000000000000000000000000              0000000000000000000000                                                                                                                                                                                                                                                                                                                                                                                           000  000000002
500016354     20101028SIMUANUPOS     000000000                                                    000016534US040114AV28REP. ARGENTINA 9,75 190927    RFEOC     USDRF                    000000000                                                     02320301110002497051        000000000802490             RF CAJAMADRID PERS FISICAS RESIDENTES   0000000000002600000000000000000002600000        0000000000000000000000000000000001000000000USD0000000000000048750000000000001267500000000000000000000000000000000000000012675000000000000000000000000000000000000000126750200603192006031920060319INVERSIS CB EUROCLEAR                                            000000000                                                                                    00000000000000000000000000000000000000000000000000000000000000000000000000000000000000000000000000000000000              0000000000000000000000                                                                                                                                                                                                                                                                                                                                                                                           000  000000002
500016354     20101028SIMUANUPOS     000000000                                                    000016534US040114AV28REP. ARGENTINA 9,75 190927    RFEOC     USDRF                    000000000                                                     02320301110002497051        000000000802490             RF CAJAMADRID PERS FISICAS RESIDENTES   0000000000002600000000000000000002600000        0000000000000000000000000000000001000000000USD0000000000000048750000000000001267500000000000000000000000000000000000000012675000000000000000000000000000000000000000126750200709192007091920070919INVERSIS CB EUROCLEAR                                            000000000                                                                                    00000000000000000000000000000000000000000000000000000000000000000000000000000000000000000000000000000000000              0000000000000000000000                                                                                                                                                                                                                                                                                                                                                                                           000  000000002
500016354     20101028SIMUANUPOS     000000000                                                    000016534US040114AV28REP. ARGENTINA 9,75 190927    RFEOC     USDRF                    000000000                                                     02320301110002497051        000000000802490             RF CAJAMADRID PERS FISICAS RESIDENTES   0000000000002600000000000000000002600000        0000000000000000000000000000000001000000000USD0000000000000048750000000000001267500000000000000000000000000000000000000012675000000000000000000000000000000000000000126750200609192006091920060919INVERSIS CB EUROCLEAR                                            000000000                                                                                    00000000000000000000000000000000000000000000000000000000000000000000000000000000000000000000000000000000000              0000000000000000000000                                                                                                                                                                                                                                                                                                                                                                                           000  000000002
500016354     20101028SIMUANUPOS     000000000                                                    000016534US040114AV28REP. ARGENTINA 9,75 190927    RFEOC     USDRF                    000000000                                                     02320301110002497051        000000000802490             RF CAJAMADRID PERS FISICAS RESIDENTES   0000000000002600000000000000000002600000        0000000000000000000000000000000001000000000USD0000000000000048750000000000001267500000000000000000000000000000000000000012675000000000000000000000000000000000000000126750200709192007091920070919INVERSIS CB EUROCLEAR                                            000000000                                                                                    00000000000000000000000000000000000000000000000000000000000000000000000000000000000000000000000000000000000              0000000000000000000000                                                                                                                                                                                                                                                                                                                                                                                           000  000000002
500016354     20101028SIMUANUPOS     000000000                                                    000016534US040114AV28REP. ARGENTINA 9,75 190927    RFEOC     USDRF                    000000000                                                     02320301110002497051        000000000802490             RF CAJAMADRID PERS FISICAS RESIDENTES   0000000000002600000000000000000002600000        0000000000000000000000000000000001000000000USD0000000000000048750000000000001267500000000000000000000000000000000000000012675000000000000000000000000000000000000000126750200703192007031920070319INVERSIS CB EUROCLEAR                                            000000000                                                                                    00000000000000000000000000000000000000000000000000000000000000000000000000000000000000000000000000000000000              0000000000000000000000                                                                                                                                                                                                                                                                                                                                                                                           000  000000002
500016354     20101028SIMUANUPOS     000000000                                                    000016534US040114AV28REP. ARGENTINA 9,75 190927    RFEOC     USDRF                    000000000                                                     02320301110002497051        000000000802490             RF CAJAMADRID PERS FISICAS RESIDENTES   0000000000002600000000000000000002600000        0000000000000000000000000000000001000000000USD0000000000000048750000000000001267500000000000000000000000000000000000000012675000000000000000000000000000000000000000126750200609192006091920060919INVERSIS CB EUROCLEAR                                            000000000                                                                                    00000000000000000000000000000000000000000000000000000000000000000000000000000000000000000000000000000000000              0000000000000000000000                                                                                                                                                                                                                                                                                                                                                                                           000  000000002
500016354     20101028SIMUANUPOS     000000000                                                    000016534US040114AV28REP. ARGENTINA 9,75 190927    RFEOC     USDRF                    000000000                                                     02320301110002497051        000000000802490             RF CAJAMADRID PERS FISICAS RESIDENTES   0000000000002600000000000000000002600000        0000000000000000000000000000000001000000000USD0000000000000048750000000000001267500000000000000000000000000000000000000012675000000000000000000000000000000000000000126750200709192007091920070919INVERSIS CB EUROCLEAR                                            000000000                                                                                    00000000000000000000000000000000000000000000000000000000000000000000000000000000000000000000000000000000000              0000000000000000000000                                                                                                                                                                                                                                                                                                                                                                                           000  000000002
500016354     20101028SIMUANUPOS     000000000                                                    000016534US040114AV28REP. ARGENTINA 9,75 190927    RFEOC     USDRF                    000000000                                                     02320301110002497051        000000000802490             RF CAJAMADRID PERS FISICAS RESIDENTES   0000000000002600000000000000000002600000        0000000000000000000000000000000001000000000USD0000000000000048750000000000001267500000000000000000000000000000000000000012675000000000000000000000000000000000000000126750200709192007091920070919INVERSIS CB EUROCLEAR                                            000000000                                                                                    00000000000000000000000000000000000000000000000000000000000000000000000000000000000000000000000000000000000              0000000000000000000000                                                                                                                                                                                                                                                                                                                                                                                           000  000000002
500016354     20101028SIMUANUPOS     000000000                                                    000016534US040114AV28REP. ARGENTINA 9,75 190927    RFEOC     USDRF                    000000000                                                     02320301110002497051        000000000802490             RF CAJAMADRID PERS FISICAS RESIDENTES   0000000000002600000000000000000002600000        0000000000000000000000000000000001000000000USD0000000000000048750000000000001267500000000000000000000000000000000000000012675000000000000000000000000000000000000000126750200703192007031920070319INVERSIS CB EUROCLEAR                                            000000000                                                                                    00000000000000000000000000000000000000000000000000000000000000000000000000000000000000000000000000000000000              0000000000000000000000                                                                                                                                                                                                                                                                                                                                                                                           000  000000002
500016354     20101028SIMUANUPOS     000000000                                                    000016534US040114AV28REP. ARGENTINA 9,75 190927    RFEOC     USDRF                    000000000                                                     02320301110002497051        000000000802490             RF CAJAMADRID PERS FISICAS RESIDENTES   0000000000002600000000000000000002600000        0000000000000000000000000000000001000000000USD0000000000000048750000000000001267500000000000000000000000000000000000000012675000000000000000000000000000000000000000126750200703192007031920070319INVERSIS CB EUROCLEAR                                            000000000                                                                                    00000000000000000000000000000000000000000000000000000000000000000000000000000000000000000000000000000000000              0000000000000000000000                                                                                                                                                                                                                                                                                                                                                                                           000  000000002
500016354     20101028SIMUANUPOS     000000000                                                    000016534US040114AV28REP. ARGENTINA 9,75 190927    RFEOC     USDRF                    000000000                                                     02320301110002497051        000000000802490             RF CAJAMADRID PERS FISICAS RESIDENTES   0000000000002600000000000000000002600000        0000000000000000000000000000000001000000000USD0000000000000048750000000000001267500000000000000000000000000000000000000012675000000000000000000000000000000000000000126750200609192006091920060919INVERSIS CB EUROCLEAR                                            000000000                                                                                    00000000000000000000000000000000000000000000000000000000000000000000000000000000000000000000000000000000000              0000000000000000000000                                                                                                                                                                                                                                                                                                                                                                                           000  000000002
500016354     20101028SIMUANUPOS     000000000                                                    000016534US040114AV28REP. ARGENTINA 9,75 190927    RFEOC     USDRF                    000000000                                                     02320301110002497051        000000000802490             RF CAJAMADRID PERS FISICAS RESIDENTES   0000000000002600000000000000000002600000        0000000000000000000000000000000001000000000USD0000000000000048750000000000001267500000000000000000000000000000000000000012675000000000000000000000000000000000000000126750200603192006031920060319INVERSIS CB EUROCLEAR                                            000000000                                                                                    00000000000000000000000000000000000000000000000000000000000000000000000000000000000000000000000000000000000              0000000000000000000000                                                                                                                                                                                                                                                                                                                                                                                           000  000000002
