X022038ES0129743318150004PAGO DIVID./CUP            00000000000002011011420110118        2011011800000000000430287600000010000001                        2011011120110111AS20110114F000000182
X022038ES0131600019380000A.VOLUN/AUTOCAR            000000000000020110105201101052011011220110112000000000000000000000000100000010182                    2011010520110111MN         00000    
X022038FR0010972844240000AMORT UNICA/ULT            00000000000002011011220110114        2011011800000000000000000000000010000001                        20110111        AN         00000    
