X022038ES0107672034320000CANJE                      00000000000002011012020110120201101212011012100000000000000000000000010000001AUD                     20110120        AN         00000    
X022038ES0147200036380000A.VOLUN/AUTOCAR            000000000000020110120201101202011012120110121000000000000000000000000100000014     0182              20110120        AN         00000    
X022038ES0181480114150028PAGO DIVID./CUP            00000000000002011012420110126        2011012600000000001620000000000010000001                        2011011920110120MS20110124F000000075
X022038FR0010972950240000AMORT UNICA/ULT            00000000000002011011820110120        2011012400000000000000000000000010000001                        20110120        AN         00000    
X020232ES0167161035250001EXCL. DE A.C.              00000000000002011012019910101199101012011012600000000000000000000000010000001                        2011012020110120AN         00000    
X022038ES0167161035250001EXCL. DE A.C.              00000000000002011012019910101199101012011012600000000000000000000000010000001                        2011012020110120AN         00000    
