X022038ES0114989017180000CERTIF.POSICION            00000000000002011011020110112        2011011200000000000000000000000010000001                        20110110        AN         00000    
X022038ES0154653911150008PAGO DIVID./CUP            00000000000002011011520110119        2011011900000000000810000000000010000001                        20110103        MN         00000    
X022038ES0213469754150166PAGO DIVID./CUP            00000000000002011011520110119        2011011900000000033807119500000010000001                        20110110        AN         00000    
X022038ES0213580022150024PAGO DIVID./CUP            00000000000002011011520110119        2011011900000000042875000000000010000001                        20110106        MS20110117F000000042
