X022038ES0155940036250000EXCL. DE A.C.              000000000000020110113                2011011900000000000000000000000010000001                        20110113        AN         00000    
X022038ES0175438235150033PAGO DIVID./CUP            00000000000002011011820110120        2011012000000000001863738500000010000001                        20110113        AS20110118F000000049
X022038ES0313211304150004PAGO DIVID./CUP            00000000000002011011520110119        2011011900000000102060000000000010000001                        20110113        AS20110117F000000182
X022038ES0615010BL1310000SUSCRIPCION                000000000000020110111201101132011011820110118000000000000000000000000100000012100                    20110113        AN         00000    
X022038ES0615010BM9310000SUSCRIPCION                000000000000020110111201101132011011820110118000000000000000000000000100000012100                    20110113        AN         00000    
X022038ES0615010BN7310000SUSCRIPCION                000000000000020110111201101132011011820110118000000000000000000000000100000012100                    20110113        AN         00000    
X022038ES0615010BO5310000SUSCRIPCION                000000000000020110111201101132011011820110118000000000000000000000000100000012100                    20110113        AN         00000    
X022038ES0615010BP2310000SUSCRIPCION                000000000000020110111201101132011011820110118000000000000000000000000100000012100                    20110113        AN         00000    
X022038ES0615010BQ0310000SUSCRIPCION                000000000000020110111201101132011011820110118000000000000000000000000100000012100                    20110113        AN         00000    
X022038ES0615010BR8310000SUSCRIPCION                000000000000020110111201101132011011820110118000000000000000000000000100000012100                    20110113        AN         00000    
X022038ES0615010BS6310000SUSCRIPCION                000000000000020110111201101132011011820110118000000000000000000000000100000012100                    20110113        AN         00000    
X022038ES0615010BT4310000SUSCRIPCION                000000000000020110111201101132011011820110118000000000000000000000000100000012100                    20110113        AN         00000    
X022038ES0615010BU2310000SUSCRIPCION                000000000000020110111201101132011011820110118000000000000000000000000100000012100                    20110113        AN         00000    
X022038ES0615010BV0310000SUSCRIPCION                000000000000020110111201101132011011820110118000000000000000000000000100000012100                    20110113        AN         00000    
X022038ES0615010BW8310000SUSCRIPCION                000000000000020110111201101132011011820110118000000000000000000000000100000012100                    20110113        AN         00000    
X022038ES0615010BX6310000SUSCRIPCION                000000000000020110111201101132011011820110118000000000000000000000000100000012100                    20110113        AN         00000    
X022038ES0615010BY4310000SUSCRIPCION                000000000000020110111201101132011011820110118000000000000000000000000100000012100                    20110113        AN         00000    
X022038ES0615010BZ1310000SUSCRIPCION                000000000000020110111201101132011011820110118000000000000000000000000100000012100                    20110113        AN         00000    
X022038ES0615010CA2310000SUSCRIPCION                000000000000020110111201101132011011820110118000000000000000000000000100000012100                    20110113        AN         00000    
X022038ES0615010CB0310000SUSCRIPCION                000000000000020110111201101132011011820110118000000000000000000000000100000012100                    20110113        AN         00000    
X022038ES0615010CC8310000SUSCRIPCION                000000000000020110111201101132011011820110118000000000000000000000000100000012100                    20110113        AN         00000    
X022038ES0615010CD6310000SUSCRIPCION                000000000000020110111201101132011011820110118000000000000000000000000100000012100                    20110113        AN         00000    
X022038ES0615010CE4310000SUSCRIPCION                000000000000020110111201101132011011820110118000000000000000000000000100000012100                    20110113        AN         00000    
X022038ES0615010CF1310000SUSCRIPCION                000000000000020110111201101132011011820110118000000000000000000000000100000012100                    20110113        AN         00000    
X022038ES0615010CG9310000SUSCRIPCION                000000000000020110111201101132011011820110118000000000000000000000000100000012100                    20110113        AN         00000    
X022038ES0615010CH7310000SUSCRIPCION                000000000000020110111201101132011011820110118000000000000000000000000100000012100                    20110113        AN         00000    
X022038ES0615010CI5310000SUSCRIPCION                000000000000020110111201101132011011820110118000000000000000000000000100000012100                    20110113        AN         00000    
X022038ES0615010CJ3310000SUSCRIPCION                000000000000020110111201101132011011820110118000000000000000000000000100000012100                    20110113        AN         00000    
X022038ES0615010CK1310000SUSCRIPCION                000000000000020110111201101132011011820110118000000000000000000000000100000012100                    20110113        AN         00000    
X022038ES0615010CL9310000SUSCRIPCION                000000000000020110111201101132011011820110118000000000000000000000000100000012100                    20110113        AN         00000    
X022038ES0615010CM7310000SUSCRIPCION                000000000000020110111201101132011011820110118000000000000000000000000100000012100                    20110113        AN         00000    
X022038ES0615010CN5310000SUSCRIPCION                000000000000020110111201101132011011820110118000000000000000000000000100000012100                    20110113        AN         00000    
X022038ES0615010CO3310000SUSCRIPCION                000000000000020110111201101132011011820110118000000000000000000000000100000012100                    20110113        AN         00000    
X022038ES0615010CP0310000SUSCRIPCION                000000000000020110111201101132011011820110118000000000000000000000000100000012100                    20110113        AN         00000    
X022038ES0615010CQ8310000SUSCRIPCION                000000000000020110111201101132011011820110118000000000000000000000000100000012100                    20110113        AN         00000    
X022038ES0615010CR6310000SUSCRIPCION                000000000000020110111201101132011011820110118000000000000000000000000100000012100                    20110113        AN         00000    
X022038ES0615010CS4310000SUSCRIPCION                000000000000020110111201101132011011820110118000000000000000000000000100000012100                    20110113        AN         00000    
X022038ES0615010CT2310000SUSCRIPCION                000000000000020110111201101132011011820110118000000000000000000000000100000012100                    20110113        AN         00000    
X022038ES0615010CU0310000SUSCRIPCION                000000000000020110111201101132011011820110118000000000000000000000000100000012100                    20110113        AN         00000    
X022038ES0615010CV8310000SUSCRIPCION                000000000000020110111201101132011011820110118000000000000000000000000100000012100                    20110113        AN         00000    
X022038ES0615010CW6310000SUSCRIPCION                000000000000020110111201101132011011820110118000000000000000000000000100000012100                    20110113        AN         00000    
X022038ES0615010CX4310000SUSCRIPCION                000000000000020110111201101132011011820110118000000000000000000000000100000012100                    20110113        AN         00000    
X022038ES0615010CY2310000SUSCRIPCION                000000000000020110111201101132011011820110118000000000000000000000000100000012100                    20110113        AN         00000    
X022038ES0615010CZ9310000SUSCRIPCION                000000000000020110111201101132011011820110118000000000000000000000000100000012100                    20110113        AN         00000    
X022038ES0615010DA0310000SUSCRIPCION                000000000000020110111201101132011011820110118000000000000000000000000100000012100                    20110113        AN         00000    
X022038ES0615010DB8310000SUSCRIPCION                000000000000020110111201101132011011820110118000000000000000000000000100000012100                    20110113        AN         00000    
X022038ES0615010DC6310000SUSCRIPCION                000000000000020110111201101132011011820110118000000000000000000000000100000012100                    20110113        AN         00000    
X022038ES0615010DD4310000SUSCRIPCION                000000000000020110111201101132011011820110118000000000000000000000000100000012100                    20110113        AN         00000    
X022038ES0615010DE2310000SUSCRIPCION                000000000000020110111201101132011011820110118000000000000000000000000100000012100                    20110113        AN         00000    
X022038ES0615010DF9310000SUSCRIPCION                000000000000020110111201101132011011820110118000000000000000000000000100000012100                    20110113        AN         00000    
X022038ES0615010DG7310000SUSCRIPCION                000000000000020110111201101132011011820110118000000000000000000000000100000012100                    20110113        AN         00000    
X022038ES0615010DH5310000SUSCRIPCION                000000000000020110111201101132011011820110118000000000000000000000000100000012100                    20110113        AN         00000    
X022038ES0615010DI3310000SUSCRIPCION                000000000000020110111201101132011011820110118000000000000000000000000100000012100                    20110113        AN         00000    
X022038ES0615010DJ1310000SUSCRIPCION                000000000000020110111201101132011011820110118000000000000000000000000100000012100                    20110113        AN         00000    
X022038ES0615010DK9310000SUSCRIPCION                000000000000020110111201101132011011820110118000000000000000000000000100000012100                    20110113        AN         00000    
X022038ES0615010DL7310000SUSCRIPCION                000000000000020110111201101132011011820110118000000000000000000000000100000012100                    20110113        AN         00000    
X022038ES0615010DM5310000SUSCRIPCION                000000000000020110111201101132011011820110118000000000000000000000000100000012100                    20110113        AN         00000    
X022038ES0615010DN3310000SUSCRIPCION                000000000000020110111201101132011011820110118000000000000000000000000100000012100                    20110113        AN         00000    
X022038ES0615010DO1310000SUSCRIPCION                000000000000020110111201101132011011820110118000000000000000000000000100000012100                    20110113        AN         00000    
X022038ES0615010DP8310000SUSCRIPCION                000000000000020110111201101132011011820110118000000000000000000000000100000012100                    20110113        AN         00000    
X022038ES0615010DQ6310000SUSCRIPCION                000000000000020110111201101132011011820110118000000000000000000000000100000012100                    20110113        AN         00000    
X022038ES0615010DR4310000SUSCRIPCION                000000000000020110111201101132011011820110118000000000000000000000000100000012100                    20110113        AN         00000    
X022038ES0615010DS2310000SUSCRIPCION                000000000000020110111201101132011011820110118000000000000000000000000100000012100                    20110113        AN         00000    
X022038ES0615010DT0310000SUSCRIPCION                000000000000020110111201101132011011820110118000000000000000000000000100000012100                    20110113        AN         00000    
X022038ES0615010DU8310000SUSCRIPCION                000000000000020110111201101132011011820110118000000000000000000000000100000012100                    20110113        AN         00000    
X022038ES0615010DV6310000SUSCRIPCION                000000000000020110111201101132011011820110118000000000000000000000000100000012100                    20110113        AN         00000    
X022038ES0615010DW4310000SUSCRIPCION                000000000000020110111201101132011011820110118000000000000000000000000100000012100                    20110113        AN         00000    
X022038ES0615010DX2310000SUSCRIPCION                000000000000020110111201101132011011820110118000000000000000000000000100000012100                    20110113        AN         00000    
X022038ES0615010DY0310000SUSCRIPCION                000000000000020110111201101132011011820110118000000000000000000000000100000012100                    20110113        AN         00000    
X022038ES0615010DZ7310000SUSCRIPCION                000000000000020110111201101132011011820110118000000000000000000000000100000012100                    20110113        AN         00000    
X022038ES0615010EA8310000SUSCRIPCION                000000000000020110111201101132011011820110118000000000000000000000000100000012100                    20110113        AN         00000    
X022038ES0615010EB6310000SUSCRIPCION                000000000000020110111201101132011011820110118000000000000000000000000100000012100                    20110113        AN         00000    
X022038ES0615010EC4310000SUSCRIPCION                000000000000020110111201101132011011820110118000000000000000000000000100000012100                    20110113        AN         00000    
X022038ES0615010ED2310000SUSCRIPCION                000000000000020110111201101132011011820110118000000000000000000000000100000012100                    20110113        AN         00000    
X022038ES0615010EE0310000SUSCRIPCION                000000000000020110111201101132011011820110118000000000000000000000000100000012100                    20110113        AN         00000    
X022038ES0615010EF7310000SUSCRIPCION                000000000000020110111201101132011011820110118000000000000000000000000100000012100                    20110113        AN         00000    
X022038ES0615010EG5310000SUSCRIPCION                000000000000020110111201101132011011820110118000000000000000000000000100000012100                    20110113        AN         00000    
X022038ES0615010EH3310000SUSCRIPCION                000000000000020110111201101132011011820110118000000000000000000000000100000012100                    20110113        AN         00000    
X022038ES0615010EI1310000SUSCRIPCION                000000000000020110111201101132011011820110118000000000000000000000000100000012100                    20110113        AN         00000    
X022038ES0615010EJ9310000SUSCRIPCION                000000000000020110111201101132011011820110118000000000000000000000000100000012100                    20110113        AN         00000    
X022038ES0615010EK7310000SUSCRIPCION                000000000000020110111201101132011011820110118000000000000000000000000100000012100                    20110113        AN         00000    
X022038ES0615010EL5310000SUSCRIPCION                000000000000020110111201101132011011820110118000000000000000000000000100000012100                    20110113        AN         00000    
X022038ES0615010EM3310000SUSCRIPCION                000000000000020110111201101132011011820110118000000000000000000000000100000012100                    20110113        AN         00000    
X022038ES0615010EN1310000SUSCRIPCION                000000000000020110111201101132011011820110118000000000000000000000000100000012100                    20110113        AN         00000    
X022038ES0615010EO9310000SUSCRIPCION                000000000000020110111201101132011011820110118000000000000000000000000100000012100                    20110113        AN         00000    
X022038ES0615010EP6310000SUSCRIPCION                000000000000020110111201101132011011820110118000000000000000000000000100000012100                    20110113        AN         00000    
X022038ES0615010EQ4310000SUSCRIPCION                000000000000020110111201101132011011820110118000000000000000000000000100000012100                    20110113        AN         00000    
X022038ES0615010ER2310000SUSCRIPCION                000000000000020110111201101132011011820110118000000000000000000000000100000012100                    20110113        AN         00000    
X022038ES0615010ES0310000SUSCRIPCION                000000000000020110111201101132011011820110118000000000000000000000000100000012100                    20110113        AN         00000    
X022038ES0615010ET8310000SUSCRIPCION                000000000000020110111201101132011011820110118000000000000000000000000100000012100                    20110113        AN         00000    
X022038ES0615010EU6310000SUSCRIPCION                000000000000020110111201101132011011820110118000000000000000000000000100000012100                    20110113        AN         00000    
X022038ES0615010EV4310000SUSCRIPCION                000000000000020110111201101132011011820110118000000000000000000000000100000012100                    20110113        AN         00000    
X022038ES0615010EW2310000SUSCRIPCION                000000000000020110111201101132011011820110118000000000000000000000000100000012100                    20110113        AN         00000    
X022038ES0615010EX0310000SUSCRIPCION                000000000000020110111201101132011011820110118000000000000000000000000100000012100                    20110113        AN         00000    
X022038ES0615010EY8310000SUSCRIPCION                000000000000020110111201101132011011820110118000000000000000000000000100000012100                    20110113        AN         00000    
X022038ES0615010EZ5310000SUSCRIPCION                000000000000020110111201101132011011820110118000000000000000000000000100000012100                    20110113        AN         00000    
X022038ES0615010FA5310000SUSCRIPCION                000000000000020110111201101132011011820110118000000000000000000000000100000012100                    20110113        AN         00000    
X022038ES0615010FB3310000SUSCRIPCION                000000000000020110111201101132011011820110118000000000000000000000000100000012100                    20110113        AN         00000    
X022038ES0615010FC1310000SUSCRIPCION                000000000000020110111201101132011011820110118000000000000000000000000100000012100                    20110113        AN         00000    
X022038ES0615010FD9310000SUSCRIPCION                000000000000020110111201101132011011820110118000000000000000000000000100000012100                    20110113        AN         00000    
X022038ES0615010FE7310000SUSCRIPCION                000000000000020110111201101132011011820110118000000000000000000000000100000012100                    20110113        AN         00000    
X022038ES0615010FF4310000SUSCRIPCION                000000000000020110111201101132011011820110118000000000000000000000000100000012100                    20110113        AN         00000    
X022038ES0615010FG2310000SUSCRIPCION                000000000000020110111201101132011011820110118000000000000000000000000100000012100                    20110113        AN         00000    
X022038ES0615010FH0310000SUSCRIPCION                000000000000020110111201101132011011820110118000000000000000000000000100000012100                    20110113        AN         00000    
X022038ES0615010FI8310000SUSCRIPCION                000000000000020110111201101132011011820110118000000000000000000000000100000012100                    20110113        AN         00000    
X022038ES0615010FJ6310000SUSCRIPCION                000000000000020110111201101132011011820110118000000000000000000000000100000012100                    20110113        AN         00000    
X022038ES0615010FK4310000SUSCRIPCION                000000000000020110111201101132011011820110118000000000000000000000000100000012100                    20110113        AN         00000    
X022038ES0615010FL2310000SUSCRIPCION                000000000000020110111201101132011011820110118000000000000000000000000100000012100                    20110113        AN         00000    
X022038ES0615010FM0310000SUSCRIPCION                000000000000020110111201101132011011820110118000000000000000000000000100000012100                    20110113        AN         00000    
X022038ES0615010FN8310000SUSCRIPCION                000000000000020110111201101132011011820110118000000000000000000000000100000012100                    20110113        AN         00000    
X022038ES0615010FO6310000SUSCRIPCION                000000000000020110111201101132011011820110118000000000000000000000000100000012100                    20110113        AN         00000    
X022038ES0615010FP3310000SUSCRIPCION                000000000000020110111201101132011011820110118000000000000000000000000100000012100                    20110113        AN         00000    
X022038ES0615010FQ1310000SUSCRIPCION                000000000000020110111201101132011011820110118000000000000000000000000100000012100                    20110113        AN         00000    
X022038ES0615010FR9310000SUSCRIPCION                000000000000020110111201101132011011820110118000000000000000000000000100000012100                    20110113        AN         00000    
X022038ES0615010FS7310000SUSCRIPCION                000000000000020110111201101132011011820110118000000000000000000000000100000012100                    20110113        AN         00000    
X022038ES0615010FT5310000SUSCRIPCION                000000000000020110111201101132011011820110118000000000000000000000000100000012100                    20110113        AN         00000    
X022038ES0615010FU3310000SUSCRIPCION                000000000000020110111201101132011011820110118000000000000000000000000100000012100                    20110113        AN         00000    
X022038ES0615010FV1310000SUSCRIPCION                000000000000020110111201101132011011820110118000000000000000000000000100000012100                    20110113        AN         00000    
X022038ES0615010FW9310000SUSCRIPCION                000000000000020110111201101132011011820110118000000000000000000000000100000012100                    20110113        AN         00000    
X022038ES0615010FX7310000SUSCRIPCION                000000000000020110111201101132011011820110118000000000000000000000000100000012100                    20110113        AN         00000    
X022038ES0615010FY5310000SUSCRIPCION                000000000000020110111201101132011011820110118000000000000000000000000100000012100                    20110113        AN         00000    
X022038ES0615010FZ2310000SUSCRIPCION                000000000000020110111201101132011011820110118000000000000000000000000100000012100                    20110113        AN         00000    
X022038ES0615010GA3310000SUSCRIPCION                000000000000020110111201101132011011820110118000000000000000000000000100000012100                    20110113        AN         00000    
X022038ES0615010GB1310000SUSCRIPCION                000000000000020110111201101132011011820110118000000000000000000000000100000012100                    20110113        AN         00000    
X022038ES0615010GC9310000SUSCRIPCION                000000000000020110111201101132011011820110118000000000000000000000000100000012100                    20110113        AN         00000    
X022038ES0615010GD7310000SUSCRIPCION                000000000000020110111201101132011011820110118000000000000000000000000100000012100                    20110113        AN         00000    
X022038ES0615010GE5310000SUSCRIPCION                000000000000020110111201101132011011820110118000000000000000000000000100000012100                    20110113        AN         00000    
X022038ES0615010GF2310000SUSCRIPCION                000000000000020110111201101132011011820110118000000000000000000000000100000012100                    20110113        AN         00000    
X022038ES0615010GG0310000SUSCRIPCION                000000000000020110111201101132011011820110118000000000000000000000000100000012100                    20110113        AN         00000    
X022038ES0615010GH8310000SUSCRIPCION                000000000000020110111201101132011011820110118000000000000000000000000100000012100                    20110113        AN         00000    
X022038ES0615010GI6310000SUSCRIPCION                000000000000020110111201101132011011820110118000000000000000000000000100000012100                    20110113        AN         00000    
X022038ES0615010GJ4310000SUSCRIPCION                000000000000020110111201101132011011820110118000000000000000000000000100000012100                    20110113        AN         00000    
X022038ES0615010GK2310000SUSCRIPCION                000000000000020110111201101132011011820110118000000000000000000000000100000012100                    20110113        AN         00000    
X022038ES0615010GL0310000SUSCRIPCION                000000000000020110111201101132011011820110118000000000000000000000000100000012100                    20110113        AN         00000    
X022038ES0615010GM8310000SUSCRIPCION                000000000000020110111201101132011011820110118000000000000000000000000100000012100                    20110113        AN         00000    
X022038ES0615010GN6310000SUSCRIPCION                000000000000020110111201101132011011820110118000000000000000000000000100000012100                    20110113        AN         00000    
X022038ES0615010GO4310000SUSCRIPCION                000000000000020110111201101132011011820110118000000000000000000000000100000012100                    20110113        AN         00000    
X022038ES0615010GP1310000SUSCRIPCION                000000000000020110111201101132011011820110118000000000000000000000000100000012100                    20110113        AN         00000    
X022038ES0615010GQ9310000SUSCRIPCION                000000000000020110111201101132011011820110118000000000000000000000000100000012100                    20110113        AN         00000    
X022038ES0615010GR7310000SUSCRIPCION                000000000000020110111201101132011011820110118000000000000000000000000100000012100                    20110113        AN         00000    
X022038ES0615010GS5310000SUSCRIPCION                000000000000020110111201101132011011820110118000000000000000000000000100000012100                    20110113        AN         00000    
X022038ES0615010GT3310000SUSCRIPCION                000000000000020110111201101132011011820110118000000000000000000000000100000012100                    20110113        AN         00000    
X022038ES0615010GU1310000SUSCRIPCION                000000000000020110111201101132011011820110118000000000000000000000000100000012100                    20110113        AN         00000    
X022038ES0615010GV9310000SUSCRIPCION                000000000000020110111201101132011011820110118000000000000000000000000100000012100                    20110113        AN         00000    
X022038ES0615010GW7310000SUSCRIPCION                000000000000020110111201101132011011820110118000000000000000000000000100000012100                    20110113        AN         00000    
X022038ES0615010GX5310000SUSCRIPCION                000000000000020110111201101132011011820110118000000000000000000000000100000012100                    20110113        AN         00000    
X022038ES0615010GY3310000SUSCRIPCION                000000000000020110111201101132011011820110118000000000000000000000000100000012100                    20110113        AN         00000    
X022038ES0615010GZ0310000SUSCRIPCION                000000000000020110111201101132011011820110118000000000000000000000000100000012100                    20110113        AN         00000    
X022038ES0615010HA1310000SUSCRIPCION                000000000000020110111201101132011011820110118000000000000000000000000100000012100                    20110113        AN         00000    
X022038ES0615010HB9310000SUSCRIPCION                000000000000020110111201101132011011820110118000000000000000000000000100000012100                    20110113        AN         00000    
X022038ES0615010HC7310000SUSCRIPCION                000000000000020110111201101132011011820110118000000000000000000000000100000012100                    20110113        AN         00000    
X022038ES0615010HD5310000SUSCRIPCION                000000000000020110111201101132011011820110118000000000000000000000000100000012100                    20110113        AN         00000    
X022038ES0615010HE3310000SUSCRIPCION                000000000000020110111201101132011011820110118000000000000000000000000100000012100                    20110113        AN         00000    
X022038ES0615010HF0310000SUSCRIPCION                000000000000020110111201101132011011820110118000000000000000000000000100000012100                    20110113        AN         00000    
X022038ES0615010HG8310000SUSCRIPCION                000000000000020110111201101132011011820110118000000000000000000000000100000012100                    20110113        AN         00000    
X022038ES0615010HH6310000SUSCRIPCION                000000000000020110111201101132011011820110118000000000000000000000000100000012100                    20110113        AN         00000    
X022038ES0615010HI4310000SUSCRIPCION                000000000000020110111201101132011011820110118000000000000000000000000100000012100                    20110113        AN         00000    
X022038ES0615010HJ2310000SUSCRIPCION                000000000000020110111201101132011011820110118000000000000000000000000100000012100                    20110113        AN         00000    
X022038ES0615010HK0310000SUSCRIPCION                000000000000020110111201101132011011820110118000000000000000000000000100000012100                    20110113        AN         00000    
X022038ES0615010HL8310000SUSCRIPCION                000000000000020110111201101132011011820110118000000000000000000000000100000012100                    20110113        AN         00000    
X022038ES0615010HM6310000SUSCRIPCION                000000000000020110111201101132011011820110118000000000000000000000000100000012100                    20110113        AN         00000    
X022038ES0615010HN4310000SUSCRIPCION                000000000000020110111201101132011011820110118000000000000000000000000100000012100                    20110113        AN         00000    
X022038ES0615010HO2310000SUSCRIPCION                000000000000020110111201101132011011820110118000000000000000000000000100000012100                    20110113        AN         00000    
X022038ES0615010HP9310000SUSCRIPCION                000000000000020110111201101132011011820110118000000000000000000000000100000012100                    20110113        AN         00000    
X022038ES0615010HQ7310000SUSCRIPCION                000000000000020110111201101132011011820110118000000000000000000000000100000012100                    20110113        AN         00000    
X022038ES0615010HR5310000SUSCRIPCION                000000000000020110111201101132011011820110118000000000000000000000000100000012100                    20110113        AN         00000    
X022038ES0615010HS3310000SUSCRIPCION                000000000000020110111201101132011011820110118000000000000000000000000100000012100                    20110113        AN         00000    
X022038ES0615010HT1310000SUSCRIPCION                000000000000020110111201101132011011820110118000000000000000000000000100000012100                    20110113        AN         00000    
X022038ES0615010HU9310000SUSCRIPCION                000000000000020110111201101132011011820110118000000000000000000000000100000012100                    20110113        AN         00000    
X020232ES0105016036180001CERTIF.POSICION            00000000000002011011320110117199101012011011800000000000000000000000010000001                        2011011320110113AN         00000    
X020232ES0178223006310001SUSCRIPCION                000000000000020110113201101132011011920110119000000000000000000000000100000010094                    20110113        AN         00000    
X022038ES0105016036180001CERTIF.POSICION            00000000000002011011320110117199101012011011800000000000000000000000010000001                        2011011320110113AN         00000    
X022038ES0178223006310001SUSCRIPCION                000000000000020110113201101132011011920110119000000000000000000000000100000010094                    20110113        AN         00000    
