X022038ES0131600019380000A.VOLUN/AUTOCAR            000000000000020110105201101052011011120110111000000000000000000000000100000010182                    2011010520110112MN         00000    
X022038ES0178165017150009PAGO DIVID./CUP            00000000000002011011920110121        2011012100000000005346000000000010000001                        20110104        AS20110119F000000182
X022038ES0182795031310000SUSCRIPCION                000000000000020110112201101122011021220110212000000000000000000000000100000010036                    20110112        AN         00000    
