X022038ES0113900J37110003GENER. DERECHOSES061390097800000000000002011011720110119        2011011900000000000000000000000010000001                        20110114        AN         00000    
X022038ES0125220311150024PAGO DIVID./CUP            00000000000002011012120110125        2011012500000000008867852900000010000001                        20110114        AN         00000    
X022038ES0170884417150011PAGO DIVID./CUP            00000000000002011012120110125        2011012500000000000405000000000010000001                        20110112        AN         00000    
X022038FR0010972927240000AMORT UNICA/ULT            00000000000002011011220110114        2011011800000000000000000000000010000001                        20110114        AN         00000    
X022038FR0010972935240000AMORT UNICA/ULT            00000000000002011011220110114        2011011800000000000000000000000010000001                        20110114        AN         00000    
