X022038ES0181480114150028PAGO DIVID./CUP            00000000000002011012420110126        2011012600000000001620000000000010000001                        20110119        AN         00000    
X022038ES0313860241150005PAGO DIVID./CUP            00000000000002011012120110125        2011012500000000111537000000000010000001                        20110119        AS20110121F000000081
X022038ES0370412001150004PAGO DIVID./CUP            00000000000002011012420110126        2011012600000000101477465700000010000001                        20110119        AS20110124F000000075
X022038ES0615010O07240000AMORT UNICA/ULT            00000000000002011011920110121        2011012500000001523500000000000010000001                        20110119        AS20110120F000002100
X020232ES0124821036150002PAGO DIVID./CUP            00000000000002011011420110118199101012011011900000000001377000000000010000001                        20110119        AN         00000    
X020232ES0124821036150002PAGO DIVID./CUP            00000000000002011012020110124199101012011012400000000001377000000000010000001                        2011011820110119BN         00000    
X022038ES0124821036150002PAGO DIVID./CUP            00000000000002011011420110118199101012011011900000000001377000000000010000001                        20110119        AN         00000    
X022038ES0124821036150002PAGO DIVID./CUP            00000000000002011012020110124199101012011012400000000001377000000000010000001                        2011011820110119BN         00000    
