X022038ES0113770434150012PAGO DIVID./CUP            00000000000002011013120110202        2011020200000000000269730000000010000001                        20110124        AS20110131F000000072
X022038ES0139140000310000SUSCRIPCION                000000000000020110124201101242011012520110125000000000000000000000000100000014                       20110124        AN         00000    
X022038ES0177542000250000EXCL. DE A.C.              000000000000020110124                2011012800000000000000000000000010000001                        20110124        AN         00000    
X022038ES0239140009380006A.VOLUN/AUTOCAR            000000000000020110124201101242011012420110124000000000000000000000000100000014                       20110124        AN         00000    
X022038LU0323134006180000CERTIF.POSICION            00000000000002011012620110128        2011012800000000000000000000000010000001                        20110124        AN         00000    
X020232ES0214841019150203PAGO DIVID./CUP            00000000000002011013120110202199101012011020200000000016227272700000010000001                        20110124        AN         00000    
X022038ES0214841019150203PAGO DIVID./CUP            00000000000002011013120110202199101012011020200000000016227272700000010000001                        20110124        AN         00000    
