X022038ES0105205035250000EXCL. DE A.C.              000000000000020110118                2011012400000000000000000000000010000001                        20110118        AN         00000    
X022038ES0125220311150024PAGO DIVID./CUP            00000000000002011012120110125        2011012500000000008867852900000010000001                        2011011420110118MS20110121F000000182
X020232ES0124821036150002PAGO DIVID./CUP            00000000000002011012020110124199101012011012400000000001377000000000010000001                        20110118        AN         00000    
X022038ES0124821036150002PAGO DIVID./CUP            00000000000002011012020110124199101012011012400000000001377000000000010000001                        20110118        AN         00000    
