00001568AMP     00000001050001.10AMIGACCEMIG       0702008042800120080428200804252008042800000000000000000005540166000000000000000000000000000000000000021  00000000000000000000000050000000000000000010000000N000000000000000000000000000000000001000000000000000000000000000000000000000000000000        0000000000000000        0000000000000000100000000                        BRCMIGACNPR3            11      0000000000000000P20080428                                                                 0000000000000000000000000000000000                                                                                                                                                                                                                                                                                                                                                                                                                                                                                                                    2008042810071502TRAB71                                                  
00001569AMP     00000001050001.10AMIGACCEMIG       0702008042800120080428200804252008042800000000000000000005540166000000000000000000000000000000000000021  00000000000000000000000050000000000000000010000000N000000000000000000000000000000000001000000000000000000000000000000000000000000000000        0000000000000000        0000000000000000100000000                        BRCMIGACNPR3            11      0000000000000000P20080428                                                                 0000000000000000000000000000000000                                                                                                                                                                                                                                                                                                                                                                                                                                                                                                                    2008042810071502TRAB71                                                  
00001570AMP     00000001050001.10AMIGACCEMIG       0702008042800120080428200804252008042800000000000000000005540166000000000000000000000000000000000000021  00000000000000000000000050000000000000000010000000N000000000000000000000000000000000001000000000000000000000000000000000000000000000000        0000000000000000        0000000000000000100000000                        BRCMIGACNPR3            11      0000000000000000P20080428                                                                 0000000000000000000000000000000000                                                                                                                                                                                                                                                                                                                                                                                                                                                                                                                    2008042810071502TRAB71                                                  
00001571AMP     00000001050001.10AMIGACCEMIG       0702008042800120080428200804252008042800000000000000000005540166000000000000000000000000000000000000021  00000000000000000000000050000000000000000010000000N000000000000000000000000000000000001000000000000000000000000000000000000000000000000        0000000000000000        0000000000000000100000000                        BRCMIGACNPR3            11      0000000000000000P20080428                                                                 0000000000000000000000000000000000                                                                                                                                                                                                                                                                                                                                                                                                                                                                                                                    2008042810071502TRAB71                                                  
00001572AMP     00000001050001.10AMIGACCEMIG       0702008042800120080428200804252008042800000000000000000005540166000000000000000000000000000000000000021  00000000000000000000000050000000000000000010000000N000000000000000000000000000000000001000000000000000000000000000000000000000000000000        0000000000000000        0000000000000000100000000                        BRCMIGACNPR3            11      0000000000000000P20080428                                                                 0000000000000000000000000000000000                                                                                                                                                                                                                                                                                                                                                                                                                                                                                                                    2008042810071502TRAB71                                                  
00001573AMP     00000001050001.10AMIGACCEMIG       0702008042800120080428200804252008042800000000000000000005540166000000000000000000000000000000000000021  00000000000000000000000050000000000000000010000000N000000000000000000000000000000000001000000000000000000000000000000000000000000000000        0000000000000000        0000000000000000100000000                        BRCMIGACNPR3            11      0000000000000000P20080428                                                                 0000000000000000000000000000000000                                                                                                                                                                                                                                                                                                                                                                                                                                                                                                                    2008042810071502TRAB71                                                  
00001574AMP     00000001050001.10AMIGACCEMIG       0702008042800120080428200804252008042800000000000000000005540166000000000000000000000000000000000000021  00000000000000000000000050000000000000000010000000N000000000000000000000000000000000001000000000000000000000000000000000000000000000000        0000000000000000        0000000000000000100000000                        BRCMIGACNPR3            11      0000000000000000P20080428                                                                 0000000000000000000000000000000000                                                                                                                                                                                                                                                                                                                                                                                                                                                                                                                    2008042810071502TRAB71                                                  
00001575AMP     00000001050001.10AMIGACCEMIG       0702008042800120080428200804252008042800000000000000000005540166000000000000000000000000000000000000021  00000000000000000000000050000000000000000010000000N000000000000000000000000000000000001000000000000000000000000000000000000000000000000        0000000000000000        0000000000000000100000000                        BRCMIGACNPR3            11      0000000000000000P20080428                                                                 0000000000000000000000000000000000                                                                                                                                                                                                                                                                                                                                                                                                                                                                                                                    2008042810071502TRAB71                                                  
00001576AMP     00000001050001.10AMIGACCEMIG       0702008042800120080428200804252008042800000000000000000005540166000000000000000000000000000000000000021  00000000000000000000000050000000000000000010000000N000000000000000000000000000000000001000000000000000000000000000000000000000000000000        0000000000000000        0000000000000000100000000                        BRCMIGACNPR3            11      0000000000000000P20080428                                                                 0000000000000000000000000000000000                                                                                                                                                                                                                                                                                                                                                                                                                                                                                                                    2008042810071502TRAB71                                                  
00001577AMP     00000001050001.10AMIGACCEMIG       0702008042800120080428200804252008042800000000000000000005540166000000000000000000000000000000000000021  00000000000000000000000050000000000000000010000000N000000000000000000000000000000000001000000000000000000000000000000000000000000000000        0000000000000000        0000000000000000100000000                        BRCMIGACNPR3            11      0000000000000000P20080428                                                                 0000000000000000000000000000000000                                                                                                                                                                                                                                                                                                                                                                                                                                                                                                                    2008042810071502TRAB71                                                  
00001578AMP     00000001050001.10AMIGACCEMIG       0702008042800120080428200804252008042800000000000000000005540166000000000000000000000000000000000000021  00000000000000000000000050000000000000000010000000N000000000000000000000000000000000001000000000000000000000000000000000000000000000000        0000000000000000        0000000000000000100000000                        BRCMIGACNPR3            11      0000000000000000P20080428                                                                 0000000000000000000000000000000000                                                                                                                                                                                                                                                                                                                                                                                                                                                                                                                    2008042810071502TRAB71                                                  
00001579AMP     00000001050001.10AMIGACCEMIG       0702008042800120080428200804252008042800000000000000000005540166000000000000000000000000000000000000021  00000000000000000000000050000000000000000010000000N000000000000000000000000000000000001000000000000000000000000000000000000000000000000        0000000000000000        0000000000000000100000000                        BRCMIGACNPR3            11      0000000000000000P20080428                                                                 0000000000000000000000000000000000                                                                                                                                                                                                                                                                                                                                                                                                                                                                                                                    2008042810071502TRAB71                                                  
00001580AMP     00000001050001.10AMIGACCEMIG       0702008042800120080428200804252008042800000000000000000005540166000000000000000000000000000000000000021  00000000000000000000000050000000000000000010000000N000000000000000000000000000000000001000000000000000000000000000000000000000000000000        0000000000000000        0000000000000000100000000                        BRCMIGACNPR3            11      0000000000000000P20080428                                                                 0000000000000000000000000000000000                                                                                                                                                                                                                                                                                                                                                                                                                                                                                                                    2008042810071502TRAB71                                                  
00001581AMP     00000001050001.10AMIGACCEMIG       0702008042800120080428200804252008042800000000000000000005540166000000000000000000000000000000000000021  00000000000000000000000050000000000000000010000000N000000000000000000000000000000000001000000000000000000000000000000000000000000000000        0000000000000000        0000000000000000100000000                        BRCMIGACNPR3            11      0000000000000000P20080428                                                                 0000000000000000000000000000000000                                                                                                                                                                                                                                                                                                                                                                                                                                                                                                                    2008042810071502TRAB71                                                  
00001582AMP     00000001050001.10AMIGACCEMIG       0702008042800120080428200804252008042800000000000000000005540166000000000000000000000000000000000000021  00000000000000000000000050000000000000000010000000N000000000000000000000000000000000001000000000000000000000000000000000000000000000000        0000000000000000        0000000000000000100000000                        BRCMIGACNPR3            11      0000000000000000P20080428                                                                 0000000000000000000000000000000000                                                                                                                                                                                                                                                                                                                                                                                                                                                                                                                    2008042810071502TRAB71                                                  
00001583AMP     00000001050001.10AMIGACCEMIG       0702008042800120080428200804252008042800000000000000000005540166000000000000000000000000000000000000021  00000000000000000000000050000000000000000010000000N000000000000000000000000000000000001000000000000000000000000000000000000000000000000        0000000000000000        0000000000000000100000000                        BRCMIGACNPR3            11      0000000000000000P20080428                                                                 0000000000000000000000000000000000                                                                                                                                                                                                                                                                                                                                                                                                                                                                                                                    2008042810071502TRAB71                                                  
00001584AMP     00000001050001.10AMIGACCEMIG       0702008042800120080428200804252008042800000000000000000005540166000000000000000000000000000000000000021  00000000000000000000000050000000000000000010000000N000000000000000000000000000000000001000000000000000000000000000000000000000000000000        0000000000000000        0000000000000000100000000                        BRCMIGACNPR3            11      0000000000000000P20080428                                                                 0000000000000000000000000000000000                                                                                                                                                                                                                                                                                                                                                                                                                                                                                                                    2008042810071502TRAB71                                                  
00001585AMP     00000001050001.10AMIGACCEMIG       0702008042800120080428200804252008042800000000000000000005540166000000000000000000000000000000000000021  00000000000000000000000050000000000000000010000000N000000000000000000000000000000000001000000000000000000000000000000000000000000000000        0000000000000000        0000000000000000100000000                        BRCMIGACNPR3            11      0000000000000000P20080428                                                                 0000000000000000000000000000000000                                                                                                                                                                                                                                                                                                                                                                                                                                                                                                                    2008042810071502TRAB71                                                  
00001586AMP     00000001050001.10AMIGACCEMIG       0702008042800120080428200804252008042800000000000000000005540166000000000000000000000000000000000000021  00000000000000000000000050000000000000000010000000N000000000000000000000000000000000001000000000000000000000000000000000000000000000000        0000000000000000        0000000000000000100000000                        BRCMIGACNPR3            11      0000000000000000P20080428                                                                 0000000000000000000000000000000000                                                                                                                                                                                                                                                                                                                                                                                                                                                                                                                    2008042810071502TRAB71                                                  
00001587AMP     00000001050001.10AMIGACCEMIG       0702008042800120080428200804252008042800000000000000000005540166000000000000000000000000000000000000021  00000000000000000000000050000000000000000010000000N000000000000000000000000000000000001000000000000000000000000000000000000000000000000        0000000000000000        0000000000000000100000000                        BRCMIGACNPR3            11      0000000000000000P20080428                                                                 0000000000000000000000000000000000                                                                                                                                                                                                                                                                                                                                                                                                                                                                                                                    2008042810071502TRAB71                                                  
00001588AMP     00000001050001.10AMIGACCEMIG       0702008042800120080428200804252008042800000000000000000005540166000000000000000000000000000000000000021  00000000000000000000000050000000000000000010000000N000000000000000000000000000000000001000000000000000000000000000000000000000000000000        0000000000000000        0000000000000000100000000                        BRCMIGACNPR3            11      0000000000000000P20080428                                                                 0000000000000000000000000000000000                                                                                                                                                                                                                                                                                                                                                                                                                                                                                                                    2008042810071502TRAB71                                                  
00001589AMP     00000001050001.10AMIGACCEMIG       0702008042800120080428200804252008042800000000000000000005540166000000000000000000000000000000000000021  00000000000000000000000050000000000000000010000000N000000000000000000000000000000000001000000000000000000000000000000000000000000000000        0000000000000000        0000000000000000100000000                        BRCMIGACNPR3            11      0000000000000000P20080428                                                                 0000000000000000000000000000000000                                                                                                                                                                                                                                                                                                                                                                                                                                                                                                                    2008042810071502TRAB71                                                  
00001590AMP     00000001050001.10AMIGACCEMIG       0702008042800120080428200804252008042800000000000000000005540166000000000000000000000000000000000000021  00000000000000000000000050000000000000000010000000N000000000000000000000000000000000001000000000000000000000000000000000000000000000000        0000000000000000        0000000000000000100000000                        BRCMIGACNPR3            11      0000000000000000P20080428                                                                 0000000000000000000000000000000000                                                                                                                                                                                                                                                                                                                                                                                                                                                                                                                    2008042810071502TRAB71                                                  
00001591AMP     00000001050001.10AMIGACCEMIG       0702008042800120080428200804252008042800000000000000000005540166000000000000000000000000000000000000021  00000000000000000000000050000000000000000010000000N000000000000000000000000000000000001000000000000000000000000000000000000000000000000        0000000000000000        0000000000000000100000000                        BRCMIGACNPR3            11      0000000000000000P20080428                                                                 0000000000000000000000000000000000                                                                                                                                                                                                                                                                                                                                                                                                                                                                                                                    2008042810071502TRAB71                                                  
00001592AMP     00000001050001.10AMIGACCEMIG       0702008042800120080428200804252008042800000000000000000005540166000000000000000000000000000000000000021  00000000000000000000000050000000000000000010000000N000000000000000000000000000000000001000000000000000000000000000000000000000000000000        0000000000000000        0000000000000000100000000                        BRCMIGACNPR3            11      0000000000000000P20080428                                                                 0000000000000000000000000000000000                                                                                                                                                                                                                                                                                                                                                                                                                                                                                                                    2008042810071502TRAB71                                                  
00001593AMP     00000001050001.10AMIGACCEMIG       0702008042800120080428200804252008042800000000000000000005540166000000000000000000000000000000000000021  00000000000000000000000050000000000000000010000000N000000000000000000000000000000000001000000000000000000000000000000000000000000000000        0000000000000000        0000000000000000100000000                        BRCMIGACNPR3            11      0000000000000000P20080428                                                                 0000000000000000000000000000000000                                                                                                                                                                                                                                                                                                                                                                                                                                                                                                                    2008042810071502TRAB71                                                  
00001594AMP     00000001050001.10AMIGACCEMIG       0702008042800120080428200804252008042800000000000000000005540166000000000000000000000000000000000000021  00000000000000000000000050000000000000000010000000N000000000000000000000000000000000001000000000000000000000000000000000000000000000000        0000000000000000        0000000000000000100000000                        BRCMIGACNPR3            11      0000000000000000P20080428                                                                 0000000000000000000000000000000000                                                                                                                                                                                                                                                                                                                                                                                                                                                                                                                    2008042810071502TRAB71                                                  
00001595AMP     00000001050001.10AMIGACCEMIG       0702008042800120080428200804252008042800000000000000000005540166000000000000000000000000000000000000021  00000000000000000000000050000000000000000010000000N000000000000000000000000000000000001000000000000000000000000000000000000000000000000        0000000000000000        0000000000000000100000000                        BRCMIGACNPR3            11      0000000000000000P20080428                                                                 0000000000000000000000000000000000                                                                                                                                                                                                                                                                                                                                                                                                                                                                                                                    2008042810071502TRAB71                                                  
00001596AMP     00000001050001.10AMIGACCEMIG       0702008042800120080428200804252008042800000000000000000005540166000000000000000000000000000000000000021  00000000000000000000000050000000000000000010000000N000000000000000000000000000000000001000000000000000000000000000000000000000000000000        0000000000000000        0000000000000000100000000                        BRCMIGACNPR3            11      0000000000000000P20080428                                                                 0000000000000000000000000000000000                                                                                                                                                                                                                                                                                                                                                                                                                                                                                                                    2008042810071502TRAB71                                                  
00001597AMP     00000001050001.10AMIGACCEMIG       0702008042800120080428200804252008042800000000000000000005540166000000000000000000000000000000000000021  00000000000000000000000050000000000000000010000000N000000000000000000000000000000000001000000000000000000000000000000000000000000000000        0000000000000000        0000000000000000100000000                        BRCMIGACNPR3            11      0000000000000000P20080428                                                                 0000000000000000000000000000000000                                                                                                                                                                                                                                                                                                                                                                                                                                                                                                                    2008042810071502TRAB71                                                  
00001598AMP     00000001050001.10AMIGACCEMIG       0702008042800120080428200804252008042800000000000000000005540166000000000000000000000000000000000000021  00000000000000000000000050000000000000000010000000N000000000000000000000000000000000001000000000000000000000000000000000000000000000000        0000000000000000        0000000000000000100000000                        BRCMIGACNPR3            11      0000000000000000P20080428                                                                 0000000000000000000000000000000000                                                                                                                                                                                                                                                                                                                                                                                                                                                                                                                    2008042810071502TRAB71                                                  
00001599AMP     00000001050001.10AMIGACCEMIG       0702008042800120080428200804252008042800000000000000000005540166000000000000000000000000000000000000021  00000000000000000000000050000000000000000010000000N000000000000000000000000000000000001000000000000000000000000000000000000000000000000        0000000000000000        0000000000000000100000000                        BRCMIGACNPR3            11      0000000000000000P20080428                                                                 0000000000000000000000000000000000                                                                                                                                                                                                                                                                                                                                                                                                                                                                                                                    2008042810071502TRAB71                                                  
00001600AMP     00000001050001.10AMIGACCEMIG       0702008042800120080428200804252008042800000000000000000005540166000000000000000000000000000000000000021  00000000000000000000000050000000000000000010000000N000000000000000000000000000000000001000000000000000000000000000000000000000000000000        0000000000000000        0000000000000000100000000                        BRCMIGACNPR3            11      0000000000000000P20080428                                                                 0000000000000000000000000000000000                                                                                                                                                                                                                                                                                                                                                                                                                                                                                                                    2008042810071502TRAB71                                                  
00001601AMP     00000001050001.10AMIGACCEMIG       0702008042800120080428200804252008042800000000000000000005540166000000000000000000000000000000000000021  00000000000000000000000050000000000000000010000000N000000000000000000000000000000000001000000000000000000000000000000000000000000000000        0000000000000000        0000000000000000100000000                        BRCMIGACNPR3            11      0000000000000000P20080428                                                                 0000000000000000000000000000000000                                                                                                                                                                                                                                                                                                                                                                                                                                                                                                                    2008042810071502TRAB71                                                  
00001602AMP     00000001050001.10AMIGACCEMIG       0702008042800120080428200804252008042800000000000000000005540166000000000000000000000000000000000000021  00000000000000000000000050000000000000000010000000N000000000000000000000000000000000001000000000000000000000000000000000000000000000000        0000000000000000        0000000000000000100000000                        BRCMIGACNPR3            11      0000000000000000P20080428                                                                 0000000000000000000000000000000000                                                                                                                                                                                                                                                                                                                                                                                                                                                                                                                    2008042810071502TRAB71                                                  
00001603AMP     00000001050001.10AMIGACCEMIG       0702008042800120080428200804252008042800000000000000000005540166000000000000000000000000000000000000021  00000000000000000000000050000000000000000010000000N000000000000000000000000000000000001000000000000000000000000000000000000000000000000        0000000000000000        0000000000000000100000000                        BRCMIGACNPR3            11      0000000000000000P20080428                                                                 0000000000000000000000000000000000                                                                                                                                                                                                                                                                                                                                                                                                                                                                                                                    2008042810071502TRAB71                                                  
00001604AMP     00000001050001.10AMIGACCEMIG       0702008042800120080428200804252008042800000000000000000005540166000000000000000000000000000000000000021  00000000000000000000000050000000000000000010000000N000000000000000000000000000000000001000000000000000000000000000000000000000000000000        0000000000000000        0000000000000000100000000                        BRCMIGACNPR3            11      0000000000000000P20080428                                                                 0000000000000000000000000000000000                                                                                                                                                                                                                                                                                                                                                                                                                                                                                                                    2008042810071502TRAB71                                                  
00001605AMP     00000001050001.10AMIGACCEMIG       0702008042800120080428200804252008042800000000000000000005540166000000000000000000000000000000000000021  00000000000000000000000050000000000000000010000000N000000000000000000000000000000000001000000000000000000000000000000000000000000000000        0000000000000000        0000000000000000100000000                        BRCMIGACNPR3            11      0000000000000000P20080428                                                                 0000000000000000000000000000000000                                                                                                                                                                                                                                                                                                                                                                                                                                                                                                                    2008042810071502TRAB71                                                  
00001606AMP     00000001050001.10AMIGACCEMIG       0702008042800120080428200804252008042800000000000000000005540166000000000000000000000000000000000000021  00000000000000000000000050000000000000000010000000N000000000000000000000000000000000001000000000000000000000000000000000000000000000000        0000000000000000        0000000000000000100000000                        BRCMIGACNPR3            11      0000000000000000P20080428                                                                 0000000000000000000000000000000000                                                                                                                                                                                                                                                                                                                                                                                                                                                                                                                    2008042810071502TRAB71                                                  
00001607AMP     00000001050001.10AMIGACCEMIG       0702008042800120080428200804252008042800000000000000000005540166000000000000000000000000000000000000021  00000000000000000000000050000000000000000010000000N000000000000000000000000000000000001000000000000000000000000000000000000000000000000        0000000000000000        0000000000000000100000000                        BRCMIGACNPR3            11      0000000000000000P20080428                                                                 0000000000000000000000000000000000                                                                                                                                                                                                                                                                                                                                                                                                                                                                                                                    2008042810071502TRAB71                                                  
00001608AMP     00000001050001.10AMIGACCEMIG       0702008042800120080428200804252008042800000000000000000005540166000000000000000000000000000000000000021  00000000000000000000000050000000000000000010000000N000000000000000000000000000000000001000000000000000000000000000000000000000000000000        0000000000000000        0000000000000000100000000                        BRCMIGACNPR3            11      0000000000000000P20080428                                                                 0000000000000000000000000000000000                                                                                                                                                                                                                                                                                                                                                                                                                                                                                                                    2008042810071502TRAB71                                                  
00001609AMP     00000001050001.10AMIGACCEMIG       0702008042800120080428200804252008042800000000000000000005540166000000000000000000000000000000000000021  00000000000000000000000050000000000000000010000000N000000000000000000000000000000000001000000000000000000000000000000000000000000000000        0000000000000000        0000000000000000100000000                        BRCMIGACNPR3            11      0000000000000000P20080428                                                                 0000000000000000000000000000000000                                                                                                                                                                                                                                                                                                                                                                                                                                                                                                                    2008042810071502TRAB71                                                  
00001610AMP     00000001050001.10AMIGACCEMIG       0702008042800120080428200804252008042800000000000000000005540166000000000000000000000000000000000000021  00000000000000000000000050000000000000000010000000N000000000000000000000000000000000001000000000000000000000000000000000000000000000000        0000000000000000        0000000000000000100000000                        BRCMIGACNPR3            11      0000000000000000P20080428                                                                 0000000000000000000000000000000000                                                                                                                                                                                                                                                                                                                                                                                                                                                                                                                    2008042810071502TRAB71                                                  
00001611AMP     00000001050001.10AMIGACCEMIG       0702008042800120080428200804252008042800000000000000000005540166000000000000000000000000000000000000021  00000000000000000000000050000000000000000010000000N000000000000000000000000000000000001000000000000000000000000000000000000000000000000        0000000000000000        0000000000000000100000000                        BRCMIGACNPR3            11      0000000000000000P20080428                                                                 0000000000000000000000000000000000                                                                                                                                                                                                                                                                                                                                                                                                                                                                                                                    2008042810071502TRAB71                                                  
00001612AMP     00000001050001.10AMIGACCEMIG       0702008042800120080428200804252008042800000000000000000005540166000000000000000000000000000000000000021  00000000000000000000000050000000000000000010000000N000000000000000000000000000000000001000000000000000000000000000000000000000000000000        0000000000000000        0000000000000000100000000                        BRCMIGACNPR3            11      0000000000000000P20080428                                                                 0000000000000000000000000000000000                                                                                                                                                                                                                                                                                                                                                                                                                                                                                                                    2008042810071502TRAB71                                                  
00001613AMP     00000001050001.10AMIGACCEMIG       0702008042800120080428200804252008042800000000000000000005540166000000000000000000000000000000000000021  00000000000000000000000050000000000000000010000000N000000000000000000000000000000000001000000000000000000000000000000000000000000000000        0000000000000000        0000000000000000100000000                        BRCMIGACNPR3            11      0000000000000000P20080428                                                                 0000000000000000000000000000000000                                                                                                                                                                                                                                                                                                                                                                                                                                                                                                                    2008042810071502TRAB71                                                  
00001614AMP     00000001050001.10AMIGACCEMIG       0702008042800120080428200804252008042800000000000000000005540166000000000000000000000000000000000000021  00000000000000000000000050000000000000000010000000N000000000000000000000000000000000001000000000000000000000000000000000000000000000000        0000000000000000        0000000000000000100000000                        BRCMIGACNPR3            11      0000000000000000P20080428                                                                 0000000000000000000000000000000000                                                                                                                                                                                                                                                                                                                                                                                                                                                                                                                    2008042810071502TRAB71                                                  
00001615AMP     00000001050001.10AMIGACCEMIG       0702008042800120080428200804252008042800000000000000000005540166000000000000000000000000000000000000021  00000000000000000000000050000000000000000010000000N000000000000000000000000000000000001000000000000000000000000000000000000000000000000        0000000000000000        0000000000000000100000000                        BRCMIGACNPR3            11      0000000000000000P20080428                                                                 0000000000000000000000000000000000                                                                                                                                                                                                                                                                                                                                                                                                                                                                                                                    2008042810071502TRAB71                                                  
00001616AMP     00000001050001.10AMIGACCEMIG       0702008042800120080428200804252008042800000000000000000005540166000000000000000000000000000000000000021  00000000000000000000000050000000000000000010000000N000000000000000000000000000000000001000000000000000000000000000000000000000000000000        0000000000000000        0000000000000000100000000                        BRCMIGACNPR3            11      0000000000000000P20080428                                                                 0000000000000000000000000000000000                                                                                                                                                                                                                                                                                                                                                                                                                                                                                                                    2008042810071502TRAB71                                                  
00001617AMP     00000001050001.10AMIGACCEMIG       0702008042800120080428200804252008042800000000000000000005540166000000000000000000000000000000000000021  00000000000000000000000050000000000000000010000000N000000000000000000000000000000000001000000000000000000000000000000000000000000000000        0000000000000000        0000000000000000100000000                        BRCMIGACNPR3            11      0000000000000000P20080428                                                                 0000000000000000000000000000000000                                                                                                                                                                                                                                                                                                                                                                                                                                                                                                                    2008042810071502TRAB71                                                  
00001618AMP     00000001050001.10AMIGACCEMIG       0702008042800120080428200804252008042800000000000000000005540166000000000000000000000000000000000000021  00000000000000000000000050000000000000000010000000N000000000000000000000000000000000001000000000000000000000000000000000000000000000000        0000000000000000        0000000000000000100000000                        BRCMIGACNPR3            11      0000000000000000P20080428                                                                 0000000000000000000000000000000000                                                                                                                                                                                                                                                                                                                                                                                                                                                                                                                    2008042810071502TRAB71                                                  
00001619AMP     00000001050001.10AMIGACCEMIG       0702008042800120080428200804252008042800000000000000000005540166000000000000000000000000000000000000021  00000000000000000000000050000000000000000010000000N000000000000000000000000000000000001000000000000000000000000000000000000000000000000        0000000000000000        0000000000000000100000000                        BRCMIGACNPR3            11      0000000000000000P20080428                                                                 0000000000000000000000000000000000                                                                                                                                                                                                                                                                                                                                                                                                                                                                                                                    2008042810071502TRAB71                                                  
00001620AMP     00000001050001.10AMIGACCEMIG       0702008042800120080428200804252008042800000000000000000005540166000000000000000000000000000000000000021  00000000000000000000000050000000000000000010000000N000000000000000000000000000000000001000000000000000000000000000000000000000000000000        0000000000000000        0000000000000000100000000                        BRCMIGACNPR3            11      0000000000000000P20080428                                                                 0000000000000000000000000000000000                                                                                                                                                                                                                                                                                                                                                                                                                                                                                                                    2008042810071502TRAB71                                                  
00001621AMP     00000001050001.10AMIGACCEMIG       0702008042800120080428200804252008042800000000000000000005540166000000000000000000000000000000000000021  00000000000000000000000050000000000000000010000000N000000000000000000000000000000000001000000000000000000000000000000000000000000000000        0000000000000000        0000000000000000100000000                        BRCMIGACNPR3            11      0000000000000000P20080428                                                                 0000000000000000000000000000000000                                                                                                                                                                                                                                                                                                                                                                                                                                                                                                                    2008042810071502TRAB71                                                  
00001622AMP     00000001050001.10AMIGACCEMIG       0702008042800120080428200804252008042800000000000000000005540166000000000000000000000000000000000000021  00000000000000000000000050000000000000000010000000N000000000000000000000000000000000001000000000000000000000000000000000000000000000000        0000000000000000        0000000000000000100000000                        BRCMIGACNPR3            11      0000000000000000P20080428                                                                 0000000000000000000000000000000000                                                                                                                                                                                                                                                                                                                                                                                                                                                                                                                    2008042810071502TRAB71                                                  
00001623AMP     00000001050001.10AMIGACCEMIG       0702008042800120080428200804252008042800000000000000000005540166000000000000000000000000000000000000021  00000000000000000000000050000000000000000010000000N000000000000000000000000000000000001000000000000000000000000000000000000000000000000        0000000000000000        0000000000000000100000000                        BRCMIGACNPR3            11      0000000000000000P20080428                                                                 0000000000000000000000000000000000                                                                                                                                                                                                                                                                                                                                                                                                                                                                                                                    2008042810071502TRAB71                                                  
00001624AMP     00000001050001.10AMIGACCEMIG       0702008042800120080428200804252008042800000000000000000005540166000000000000000000000000000000000000021  00000000000000000000000050000000000000000010000000N000000000000000000000000000000000001000000000000000000000000000000000000000000000000        0000000000000000        0000000000000000100000000                        BRCMIGACNPR3            11      0000000000000000P20080428                                                                 0000000000000000000000000000000000                                                                                                                                                                                                                                                                                                                                                                                                                                                                                                                    2008042810071502TRAB71                                                  
00001625AMP     00000001050001.10AMIGACCEMIG       0702008042800120080428200804252008042800000000000000000005540166000000000000000000000000000000000000021  00000000000000000000000050000000000000000010000000N000000000000000000000000000000000001000000000000000000000000000000000000000000000000        0000000000000000        0000000000000000100000000                        BRCMIGACNPR3            11      0000000000000000P20080428                                                                 0000000000000000000000000000000000                                                                                                                                                                                                                                                                                                                                                                                                                                                                                                                    2008042810071502TRAB71                                                  
00001626AMP     00000001050001.10AMIGACCEMIG       0702008042800120080428200804252008042800000000000000000005540166000000000000000000000000000000000000021  00000000000000000000000050000000000000000010000000N000000000000000000000000000000000001000000000000000000000000000000000000000000000000        0000000000000000        0000000000000000100000000                        BRCMIGACNPR3            11      0000000000000000P20080428                                                                 0000000000000000000000000000000000                                                                                                                                                                                                                                                                                                                                                                                                                                                                                                                    2008042810071502TRAB71                                                  
00001627AMP     00000001050001.10AMIGACCEMIG       0702008042800120080428200804252008042800000000000000000005540166000000000000000000000000000000000000021  00000000000000000000000050000000000000000010000000N000000000000000000000000000000000001000000000000000000000000000000000000000000000000        0000000000000000        0000000000000000100000000                        BRCMIGACNPR3            11      0000000000000000P20080428                                                                 0000000000000000000000000000000000                                                                                                                                                                                                                                                                                                                                                                                                                                                                                                                    2008042810071502TRAB71                                                  
00001628AMP     00000001050001.10AMIGACCEMIG       0702008042800120080428200804252008042800000000000000000005540166000000000000000000000000000000000000021  00000000000000000000000050000000000000000010000000N000000000000000000000000000000000001000000000000000000000000000000000000000000000000        0000000000000000        0000000000000000100000000                        BRCMIGACNPR3            11      0000000000000000P20080428                                                                 0000000000000000000000000000000000                                                                                                                                                                                                                                                                                                                                                                                                                                                                                                                    2008042810071502TRAB71                                                  
00001629AMP     00000001050001.10AMIGACCEMIG       0702008042800120080428200804252008042800000000000000000005540166000000000000000000000000000000000000021  00000000000000000000000050000000000000000010000000N000000000000000000000000000000000001000000000000000000000000000000000000000000000000        0000000000000000        0000000000000000100000000                        BRCMIGACNPR3            11      0000000000000000P20080428                                                                 0000000000000000000000000000000000                                                                                                                                                                                                                                                                                                                                                                                                                                                                                                                    2008042810071502TRAB71                                                  
00001630AMP     00000001050001.10AMIGACCEMIG       0702008042800120080428200804252008042800000000000000000005540166000000000000000000000000000000000000021  00000000000000000000000050000000000000000010000000N000000000000000000000000000000000001000000000000000000000000000000000000000000000000        0000000000000000        0000000000000000100000000                        BRCMIGACNPR3            11      0000000000000000P20080428                                                                 0000000000000000000000000000000000                                                                                                                                                                                                                                                                                                                                                                                                                                                                                                                    2008042810071502TRAB71                                                  
00001631AMP     00000001050001.10AMIGACCEMIG       0702008042800120080428200804252008042800000000000000000005540166000000000000000000000000000000000000021  00000000000000000000000050000000000000000010000000N000000000000000000000000000000000001000000000000000000000000000000000000000000000000        0000000000000000        0000000000000000100000000                        BRCMIGACNPR3            11      0000000000000000P20080428                                                                 0000000000000000000000000000000000                                                                                                                                                                                                                                                                                                                                                                                                                                                                                                                    2008042810071502TRAB71                                                  
00001632AMP     00000001050001.10AMIGACCEMIG       0702008042800120080428200804252008042800000000000000000005540166000000000000000000000000000000000000021  00000000000000000000000050000000000000000010000000N000000000000000000000000000000000001000000000000000000000000000000000000000000000000        0000000000000000        0000000000000000100000000                        BRCMIGACNPR3            11      0000000000000000P20080428                                                                 0000000000000000000000000000000000                                                                                                                                                                                                                                                                                                                                                                                                                                                                                                                    2008042810071502TRAB71                                                  
00001633AMP     00000001050001.10AMIGACCEMIG       0702008042800120080428200804252008042800000000000000000005540166000000000000000000000000000000000000021  00000000000000000000000050000000000000000010000000N000000000000000000000000000000000001000000000000000000000000000000000000000000000000        0000000000000000        0000000000000000100000000                        BRCMIGACNPR3            11      0000000000000000P20080428                                                                 0000000000000000000000000000000000                                                                                                                                                                                                                                                                                                                                                                                                                                                                                                                    2008042810071502TRAB71                                                  
00001634AMP     00000001050001.10AMIGACCEMIG       0702008042800120080428200804252008042800000000000000000005540166000000000000000000000000000000000000021  00000000000000000000000050000000000000000010000000N000000000000000000000000000000000001000000000000000000000000000000000000000000000000        0000000000000000        0000000000000000100000000                        BRCMIGACNPR3            11      0000000000000000P20080428                                                                 0000000000000000000000000000000000                                                                                                                                                                                                                                                                                                                                                                                                                                                                                                                    2008042810071502TRAB71                                                  
00001635AMP     00000001050001.10AMIGACCEMIG       0702008042800120080428200804252008042800000000000000000005540166000000000000000000000000000000000000021  00000000000000000000000050000000000000000010000000N000000000000000000000000000000000001000000000000000000000000000000000000000000000000        0000000000000000        0000000000000000100000000                        BRCMIGACNPR3            11      0000000000000000P20080428                                                                 0000000000000000000000000000000000                                                                                                                                                                                                                                                                                                                                                                                                                                                                                                                    2008042810071502TRAB71                                                  
00001636AMP     00000001050001.10AMIGACCEMIG       0702008042800120080428200804252008042800000000000000000005540166000000000000000000000000000000000000021  00000000000000000000000050000000000000000010000000N000000000000000000000000000000000001000000000000000000000000000000000000000000000000        0000000000000000        0000000000000000100000000                        BRCMIGACNPR3            11      0000000000000000P20080428                                                                 0000000000000000000000000000000000                                                                                                                                                                                                                                                                                                                                                                                                                                                                                                                    2008042810071502TRAB71                                                  
00001637AMP     00000001050001.10AMIGACCEMIG       0702008042800120080428200804252008042800000000000000000005540166000000000000000000000000000000000000021  00000000000000000000000050000000000000000010000000N000000000000000000000000000000000001000000000000000000000000000000000000000000000000        0000000000000000        0000000000000000100000000                        BRCMIGACNPR3            11      0000000000000000P20080428                                                                 0000000000000000000000000000000000                                                                                                                                                                                                                                                                                                                                                                                                                                                                                                                    2008042810071502TRAB71                                                  
00001638AMP     00000001050001.10AMIGACCEMIG       0702008042800120080428200804252008042800000000000000000005540166000000000000000000000000000000000000021  00000000000000000000000050000000000000000010000000N000000000000000000000000000000000001000000000000000000000000000000000000000000000000        0000000000000000        0000000000000000100000000                        BRCMIGACNPR3            11      0000000000000000P20080428                                                                 0000000000000000000000000000000000                                                                                                                                                                                                                                                                                                                                                                                                                                                                                                                    2008042810071502TRAB71                                                  
00001639AMP     00000001050001.10AMIGACCEMIG       0702008042800120080428200804252008042800000000000000000005540166000000000000000000000000000000000000021  00000000000000000000000050000000000000000010000000N000000000000000000000000000000000001000000000000000000000000000000000000000000000000        0000000000000000        0000000000000000100000000                        BRCMIGACNPR3            11      0000000000000000P20080428                                                                 0000000000000000000000000000000000                                                                                                                                                                                                                                                                                                                                                                                                                                                                                                                    2008042810071502TRAB71                                                  
00001640AMP     00000001050001.10AMIGACCEMIG       0702008042800120080428200804252008042800000000000000000005540166000000000000000000000000000000000000021  00000000000000000000000050000000000000000010000000N000000000000000000000000000000000001000000000000000000000000000000000000000000000000        0000000000000000        0000000000000000100000000                        BRCMIGACNPR3            11      0000000000000000P20080428                                                                 0000000000000000000000000000000000                                                                                                                                                                                                                                                                                                                                                                                                                                                                                                                    2008042810071502TRAB71                                                  
00001641AMP     00000001050001.10AMIGACCEMIG       0702008042800120080428200804252008042800000000000000000005540166000000000000000000000000000000000000021  00000000000000000000000050000000000000000010000000N000000000000000000000000000000000001000000000000000000000000000000000000000000000000        0000000000000000        0000000000000000100000000                        BRCMIGACNPR3            11      0000000000000000P20080428                                                                 0000000000000000000000000000000000                                                                                                                                                                                                                                                                                                                                                                                                                                                                                                                    2008042810071502TRAB71                                                  
00001642AMP     00000001050001.10AMIGACCEMIG       0702008042800120080428200804252008042800000000000000000005540166000000000000000000000000000000000000021  00000000000000000000000050000000000000000010000000N000000000000000000000000000000000001000000000000000000000000000000000000000000000000        0000000000000000        0000000000000000100000000                        BRCMIGACNPR3            11      0000000000000000P20080428                                                                 0000000000000000000000000000000000                                                                                                                                                                                                                                                                                                                                                                                                                                                                                                                    2008042810071502TRAB71                                                  
00001643AMP     00000001050001.10AMIGACCEMIG       0702008042800120080428200804252008042800000000000000000005540166000000000000000000000000000000000000021  00000000000000000000000050000000000000000010000000N000000000000000000000000000000000001000000000000000000000000000000000000000000000000        0000000000000000        0000000000000000100000000                        BRCMIGACNPR3            11      0000000000000000P20080428                                                                 0000000000000000000000000000000000                                                                                                                                                                                                                                                                                                                                                                                                                                                                                                                    2008042810071502TRAB71                                                  
00001644AMP     00000001050001.10AMIGACCEMIG       0702008042800120080428200804252008042800000000000000000005540166000000000000000000000000000000000000021  00000000000000000000000050000000000000000010000000N000000000000000000000000000000000001000000000000000000000000000000000000000000000000        0000000000000000        0000000000000000100000000                        BRCMIGACNPR3            11      0000000000000000P20080428                                                                 0000000000000000000000000000000000                                                                                                                                                                                                                                                                                                                                                                                                                                                                                                                    2008042810071502TRAB71                                                  
00001645AMP     00000001050001.10AMIGACCEMIG       0702008042800120080428200804252008042800000000000000000005540166000000000000000000000000000000000000021  00000000000000000000000050000000000000000010000000N000000000000000000000000000000000001000000000000000000000000000000000000000000000000        0000000000000000        0000000000000000100000000                        BRCMIGACNPR3            11      0000000000000000P20080428                                                                 0000000000000000000000000000000000                                                                                                                                                                                                                                                                                                                                                                                                                                                                                                                    2008042810071502TRAB71                                                  
00001646AMP     00000001050001.10AMIGACCEMIG       0702008042800120080428200804252008042800000000000000000005540166000000000000000000000000000000000000021  00000000000000000000000050000000000000000010000000N000000000000000000000000000000000001000000000000000000000000000000000000000000000000        0000000000000000        0000000000000000100000000                        BRCMIGACNPR3            11      0000000000000000P20080428                                                                 0000000000000000000000000000000000                                                                                                                                                                                                                                                                                                                                                                                                                                                                                                                    2008042810071502TRAB71                                                  
00001647AMP     00000001050001.10AMIGACCEMIG       0702008042800120080428200804252008042800000000000000000005540166000000000000000000000000000000000000021  00000000000000000000000050000000000000000010000000N000000000000000000000000000000000001000000000000000000000000000000000000000000000000        0000000000000000        0000000000000000100000000                        BRCMIGACNPR3            11      0000000000000000P20080428                                                                 0000000000000000000000000000000000                                                                                                                                                                                                                                                                                                                                                                                                                                                                                                                    2008042810071502TRAB71                                                  
00001648AMP     00000001050001.10AMIGACCEMIG       0702008042800120080428200804252008042800000000000000000005540166000000000000000000000000000000000000021  00000000000000000000000050000000000000000010000000N000000000000000000000000000000000001000000000000000000000000000000000000000000000000        0000000000000000        0000000000000000100000000                        BRCMIGACNPR3            11      0000000000000000P20080428                                                                 0000000000000000000000000000000000                                                                                                                                                                                                                                                                                                                                                                                                                                                                                                                    2008042810071502TRAB71                                                  
00001649AMP     00000001050001.10AMIGACCEMIG       0702008042800120080428200804252008042800000000000000000005540166000000000000000000000000000000000000021  00000000000000000000000050000000000000000010000000N000000000000000000000000000000000001000000000000000000000000000000000000000000000000        0000000000000000        0000000000000000100000000                        BRCMIGACNPR3            11      0000000000000000P20080428                                                                 0000000000000000000000000000000000                                                                                                                                                                                                                                                                                                                                                                                                                                                                                                                    2008042810071502TRAB71                                                  
00001650AMP     00000001050001.10AMIGACCEMIG       0702008042800120080428200804252008042800000000000000000005540166000000000000000000000000000000000000021  00000000000000000000000050000000000000000010000000N000000000000000000000000000000000001000000000000000000000000000000000000000000000000        0000000000000000        0000000000000000100000000                        BRCMIGACNPR3            11      0000000000000000P20080428                                                                 0000000000000000000000000000000000                                                                                                                                                                                                                                                                                                                                                                                                                                                                                                                    2008042810071502TRAB71                                                  
00001651AMP     00000001050001.10AMIGACCEMIG       0702008042800120080428200804252008042800000000000000000005540166000000000000000000000000000000000000021  00000000000000000000000050000000000000000010000000N000000000000000000000000000000000001000000000000000000000000000000000000000000000000        0000000000000000        0000000000000000100000000                        BRCMIGACNPR3            11      0000000000000000P20080428                                                                 0000000000000000000000000000000000                                                                                                                                                                                                                                                                                                                                                                                                                                                                                                                    2008042810071502TRAB71                                                  
00001652AMP     00000001050001.10AMIGACCEMIG       0702008042800120080428200804252008042800000000000000000005540166000000000000000000000000000000000000021  00000000000000000000000050000000000000000010000000N000000000000000000000000000000000001000000000000000000000000000000000000000000000000        0000000000000000        0000000000000000100000000                        BRCMIGACNPR3            11      0000000000000000P20080428                                                                 0000000000000000000000000000000000                                                                                                                                                                                                                                                                                                                                                                                                                                                                                                                    2008042810071502TRAB71                                                  
00001653AMP     00000001050001.10AMIGACCEMIG       0702008042800120080428200804252008042800000000000000000005540166000000000000000000000000000000000000021  00000000000000000000000050000000000000000010000000N000000000000000000000000000000000001000000000000000000000000000000000000000000000000        0000000000000000        0000000000000000100000000                        BRCMIGACNPR3            11      0000000000000000P20080428                                                                 0000000000000000000000000000000000                                                                                                                                                                                                                                                                                                                                                                                                                                                                                                                    2008042810071502TRAB71                                                  
00001654AMP     00000001050001.10AMIGACCEMIG       0702008042800120080428200804252008042800000000000000000005540166000000000000000000000000000000000000021  00000000000000000000000050000000000000000010000000N000000000000000000000000000000000001000000000000000000000000000000000000000000000000        0000000000000000        0000000000000000100000000                        BRCMIGACNPR3            11      0000000000000000P20080428                                                                 0000000000000000000000000000000000                                                                                                                                                                                                                                                                                                                                                                                                                                                                                                                    2008042810071502TRAB71                                                  
00001655AMP     00000001050001.10AMIGACCEMIG       0702008042800120080428200804252008042800000000000000000005540166000000000000000000000000000000000000021  00000000000000000000000050000000000000000010000000N000000000000000000000000000000000001000000000000000000000000000000000000000000000000        0000000000000000        0000000000000000100000000                        BRCMIGACNPR3            11      0000000000000000P20080428                                                                 0000000000000000000000000000000000                                                                                                                                                                                                                                                                                                                                                                                                                                                                                                                    2008042810071502TRAB71                                                  
00001656AMP     00000001050001.10AMIGACCEMIG       0702008042800120080428200804252008042800000000000000000005540166000000000000000000000000000000000000021  00000000000000000000000050000000000000000010000000N000000000000000000000000000000000001000000000000000000000000000000000000000000000000        0000000000000000        0000000000000000100000000                        BRCMIGACNPR3            11      0000000000000000P20080428                                                                 0000000000000000000000000000000000                                                                                                                                                                                                                                                                                                                                                                                                                                                                                                                    2008042810071502TRAB71                                                  
00001657AMP     00000001050001.10AMIGACCEMIG       0702008042800120080428200804252008042800000000000000000005540166000000000000000000000000000000000000021  00000000000000000000000050000000000000000010000000N000000000000000000000000000000000001000000000000000000000000000000000000000000000000        0000000000000000        0000000000000000100000000                        BRCMIGACNPR3            11      0000000000000000P20080428                                                                 0000000000000000000000000000000000                                                                                                                                                                                                                                                                                                                                                                                                                                                                                                                    2008042810071502TRAB71                                                  
