X020232ANN8133W1643310000SUSCRIPCION                000000000000020080626200806302008070320080703000000000000000000000000100000010108                    20080630        AN         00000
X020232ANN8133W1726310000SUSCRIPCION                000000000000020080626200806302008070320080703000000000000000000000000100000010108                    20080630        AN         00000
X020232ANN8133W1809310000SUSCRIPCION                000000000000020080626200806302008070320080703000000000000000000000000100000010108                    20080630        AN         00000
X020232ANN8133W1981310000SUSCRIPCION                000000000000020080626200806302008070320080703000000000000000000000000100000010108                    20080630        AN         00000
X020232ANN8133W2062310000SUSCRIPCION                000000000000020080626200806302008070320080703000000000000000000000000100000010108                    20080630        AN         00000
X020232ANN8133W2146310000SUSCRIPCION                000000000000020080626200806302008070320080703000000000000000000000000100000010108                    20080630        AN         00000
X020232ANN8133W2229310000SUSCRIPCION                000000000000020080626200806302008070320080703000000000000000000000000100000010108                    20080630        AN         00000
X020232ANN8133W2302310000SUSCRIPCION                000000000000020080626200806302008070320080703000000000000000000000000100000010108                    20080630        AN         00000
X020232ANN8133W2484310000SUSCRIPCION                000000000000020080626200806302008070320080703000000000000000000000000100000010108                    20080630        AN         00000
X020232ANN8133W2559310000SUSCRIPCION                000000000000020080626200806302008070320080703000000000000000000000000100000010108                    20080630        AN         00000
X020232ANN8133W2633310000SUSCRIPCION                000000000000020080626200806302008070320080703000000000000000000000000100000010108                    20080630        AN         00000
X020232ANN8133W2716310000SUSCRIPCION                000000000000020080626200806302008070320080703000000000000000000000000100000010108                    20080630        AN         00000
X020232ANN8133W2898310000SUSCRIPCION                000000000000020080626200806302008070320080703000000000000000000000000100000010108                    20080630        AN         00000
X020232ANN8133W2971310000SUSCRIPCION                000000000000020080626200806302008070320080703000000000000000000000000100000010108                    20080630        AN         00000
X020232ANN8133W3052310000SUSCRIPCION                000000000000020080626200806302008070320080703000000000000000000000000100000010108                    20080630        AN         00000
X020232ANN8133W3136310000SUSCRIPCION                000000000000020080626200806302008070320080703000000000000000000000000100000010108                    20080630        AN         00000
X020232ANN8133W3219310000SUSCRIPCION                000000000000020080626200806302008070320080703000000000000000000000000100000010108                    20080630        AN         00000
X020232ANN8133W3391310000SUSCRIPCION                000000000000020080626200806302008070320080703000000000000000000000000100000010108                    20080630        AN         00000
X020232ANN8133W3474310000SUSCRIPCION                000000000000020080626200806302008070320080703000000000000000000000000100000010108                    20080630        AN         00000
X020232ANN8133W3540310000SUSCRIPCION                000000000000020080626200806302008070320080703000000000000000000000000100000010108                    20080630        AN         00000
X020232ANN8133W3623310000SUSCRIPCION                000000000000020080626200806302008070320080703000000000000000000000000100000010108                    20080630        AN         00000
X020232ANN8133W3706310000SUSCRIPCION                000000000000020080626200806302008070320080703000000000000000000000000100000010108                    20080630        AN         00000
X020232ANN8133W3888310000SUSCRIPCION                000000000000020080626200806302008070320080703000000000000000000000000100000010108                    20080630        AN         00000
X020232ANN8133W3961310000SUSCRIPCION                000000000000020080626200806302008070320080703000000000000000000000000100000010108                    20080630        AN         00000
X020232ANN8133W4043310000SUSCRIPCION                000000000000020080626200806302008070320080703000000000000000000000000100000010108                    20080630        AN         00000
X020232ANN8133W4126310000SUSCRIPCION                000000000000020080626200806302008070320080703000000000000000000000000100000010108                    20080630        AN         00000
X020232ANN8133W4209310000SUSCRIPCION                000000000000020080626200806302008070320080703000000000000000000000000100000010108                    20080630        AN         00000
X020232ANN8133W4381310000SUSCRIPCION                000000000000020080626200806302008070320080703000000000000000000000000100000010108                    20080630        AN         00000
X020232ANN8133W4464310000SUSCRIPCION                000000000000020080626200806302008070320080703000000000000000000000000100000010108                    20080630        AN         00000
X020232ANN8133W4530310000SUSCRIPCION                000000000000020080626200806302008070320080703000000000000000000000000100000010108                    20080630        AN         00000
X020232ANN8133W4613310000SUSCRIPCION                000000000000020080626200806302008070320080703000000000000000000000000100000010108                    20080630        AN         00000
X020232ANN8133W4795310000SUSCRIPCION                000000000000020080626200806302008070320080703000000000000000000000000100000010108                    20080630        AN         00000
X020232ANN8133W4878310000SUSCRIPCION                000000000000020080626200806302008070320080703000000000000000000000000100000010108                    20080630        AN         00000
X020232ANN8133W4951310000SUSCRIPCION                000000000000020080626200806302008070320080703000000000000000000000000100000010108                    20080630        AN         00000
X020232ANN8133W5032310000SUSCRIPCION                000000000000020080626200806302008070320080703000000000000000000000000100000010108                    20080630        AN         00000
X020232ANN8133W5115310000SUSCRIPCION                000000000000020080626200806302008070320080703000000000000000000000000100000010108                    20080630        AN         00000
X020232ANN8133W5297310000SUSCRIPCION                000000000000020080626200806302008070320080703000000000000000000000000100000010108                    20080630        AN         00000
X020232ANN8133W5370310000SUSCRIPCION                000000000000020080626200806302008070320080703000000000000000000000000100000010108                    20080630        AN         00000
X020232ANN8133W5453310000SUSCRIPCION                000000000000020080626200806302008070320080703000000000000000000000000100000010108                    20080630        AN         00000
X020232ANN8133W5529310000SUSCRIPCION                000000000000020080626200806302008070320080703000000000000000000000000100000010108                    20080630        AN         00000
X020232ANN8133W5602310000SUSCRIPCION                000000000000020080626200806302008070320080703000000000000000000000000100000010108                    20080630        AN         00000
X020232ANN8133W5784310000SUSCRIPCION                000000000000020080626200806302008070320080703000000000000000000000000100000010108                    20080630        AN         00000
X020232ANN8133W5867310000SUSCRIPCION                000000000000020080626200806302008070320080703000000000000000000000000100000010108                    20080630        AN         00000
X020232ANN8133W5941310000SUSCRIPCION                000000000000020080626200806302008070320080703000000000000000000000000100000010108                    20080630        AN         00000
X020232ANN8133W6022310000SUSCRIPCION                000000000000020080626200806302008070320080703000000000000000000000000100000010108                    20080630        AN         00000
X020232ANN8133W6105310000SUSCRIPCION                000000000000020080626200806302008070320080703000000000000000000000000100000010108                    20080630        AN         00000
X020232ANN8133W6287310000SUSCRIPCION                000000000000020080626200806302008070320080703000000000000000000000000100000010108                    20080630        AN         00000
X020232ANN8133W6360310000SUSCRIPCION                000000000000020080626200806302008070320080703000000000000000000000000100000010108                    20080630        AN         00000
X020232ANN8133W6444310000SUSCRIPCION                000000000000020080626200806302008070320080703000000000000000000000000100000010108                    20080630        AN         00000
X020232ANN8133W6519310000SUSCRIPCION                000000000000020080626200806302008070320080703000000000000000000000000100000010108                    20080630        AN         00000
X020232ANN8133W6691310000SUSCRIPCION                000000000000020080626200806302008070320080703000000000000000000000000100000010108                    20080630        AN         00000
X020232ANN8133W6774310000SUSCRIPCION                000000000000020080626200806302008070320080703000000000000000000000000100000010108                    20080630        AN         00000
X020232ANN8133W6857310000SUSCRIPCION                000000000000020080626200806302008070320080703000000000000000000000000100000010108                    20080630        AN         00000
X020232ANN8133W6931310000SUSCRIPCION                000000000000020080626200806302008070320080703000000000000000000000000100000010108                    20080630        AN         00000
X020232ANN8133W7012310000SUSCRIPCION                000000000000020080626200806302008070320080703000000000000000000000000100000010108                    20080630        AN         00000
X020232ANN8133W7194310000SUSCRIPCION                000000000000020080626200806302008070320080703000000000000000000000000100000010108                    20080630        AN         00000
X020232ANN8133W7277310000SUSCRIPCION                000000000000020080626200806302008070320080703000000000000000000000000100000010108                    20080630        AN         00000
X020232ANN8133W7350310000SUSCRIPCION                000000000000020080626200806302008070320080703000000000000000000000000100000010108                    20080630        AN         00000
X020232ANN8133W7434310000SUSCRIPCION                000000000000020080626200806302008070320080703000000000000000000000000100000010108                    20080630        AN         00000
X020232ANN8133W7509310000SUSCRIPCION                000000000000020080626200806302008070320080703000000000000000000000000100000010108                    20080630        AN         00000
X020232ANN8133W7681310000SUSCRIPCION                000000000000020080626200806302008070320080703000000000000000000000000100000010108                    20080630        AN         00000
X020232ANN8133W7764310000SUSCRIPCION                000000000000020080626200806302008070320080703000000000000000000000000100000010108                    20080630        AN         00000
X020232ANN8133W7848310000SUSCRIPCION                000000000000020080626200806302008070320080703000000000000000000000000100000010108                    20080630        AN         00000
X020232ANN8133W7921310000SUSCRIPCION                000000000000020080626200806302008070320080703000000000000000000000000100000010108                    20080630        AN         00000
X020232ANN8133W8002310000SUSCRIPCION                000000000000020080626200806302008070320080703000000000000000000000000100000010108                    20080630        AN         00000
X020232ANN8133W8184310000SUSCRIPCION                000000000000020080626200806302008070320080703000000000000000000000000100000010108                    20080630        AN         00000
X020232ANN8133W8267310000SUSCRIPCION                000000000000020080626200806302008070320080703000000000000000000000000100000010108                    20080630        AN         00000
X020232ANN8133W8341310000SUSCRIPCION                000000000000020080626200806302008070320080703000000000000000000000000100000010108                    20080630        AN         00000
X020232ANN8133W8424310000SUSCRIPCION                000000000000020080626200806302008070320080703000000000000000000000000100000010108                    20080630        AN         00000
X020232ANN8133W8598310000SUSCRIPCION                000000000000020080626200806302008070320080703000000000000000000000000100000010108                    20080630        AN         00000
X020232ANN8133X8811310000SUSCRIPCION                000000000000020080626200806302008070320080703000000000000000000000000100000010108                    20080630        AN         00000
X020232ANN8133Y1039310000SUSCRIPCION                000000000000020080626200806302008070320080703000000000000000000000000100000010108                    20080630        AN         00000
X020232ANN8133Y1112310000SUSCRIPCION                000000000000020080626200806302008070320080703000000000000000000000000100000010108                    20080630        AN         00000
X020232ANN8133Y1294310000SUSCRIPCION                000000000000020080626200806302008070320080703000000000000000000000000100000010108                    20080630        AN         00000
X020232ANN8133Y1377310000SUSCRIPCION                000000000000020080626200806302008070320080703000000000000000000000000100000010108                    20080630        AN         00000
X020232ANN8133Y1450310000SUSCRIPCION                000000000000020080626200806302008070320080703000000000000000000000000100000010108                    20080630        AN         00000
X020232ANN8133Y1526310000SUSCRIPCION                000000000000020080626200806302008070320080703000000000000000000000000100000010108                    20080630        AN         00000
X020232ANN8133Y1609310000SUSCRIPCION                000000000000020080626200806302008070320080703000000000000000000000000100000010108                    20080630        AN         00000
X020232ANN8133Y1781310000SUSCRIPCION                000000000000020080626200806302008070320080703000000000000000000000000100000010108                    20080630        AN         00000
X020232ANN8133Y1864310000SUSCRIPCION                000000000000020080626200806302008070320080703000000000000000000000000100000010108                    20080630        AN         00000
X020232ANN8133Y1948310000SUSCRIPCION                000000000000020080626200806302008070320080703000000000000000000000000100000010108                    20080630        AN         00000
X020232ANN8133Y2029310000SUSCRIPCION                000000000000020080626200806302008070320080703000000000000000000000000100000010108                    20080630        AN         00000
X020232ANN8133Y2102310000SUSCRIPCION                000000000000020080626200806302008070320080703000000000000000000000000100000010108                    20080630        AN         00000
X020232ANN8133Y2284310000SUSCRIPCION                000000000000020080626200806302008070320080703000000000000000000000000100000010108                    20080630        AN         00000
X020232ANN8133Y2367310000SUSCRIPCION                000000000000020080626200806302008070320080703000000000000000000000000100000010108                    20080630        AN         00000
X020232ANN8133Y2441310000SUSCRIPCION                000000000000020080626200806302008070320080703000000000000000000000000100000010108                    20080630        AN         00000
X020232ANN8133Y2516310000SUSCRIPCION                000000000000020080626200806302008070320080703000000000000000000000000100000010108                    20080630        AN         00000
X020232ANN8133Y2698310000SUSCRIPCION                000000000000020080626200806302008070320080703000000000000000000000000100000010108                    20080630        AN         00000
X020232ANN8133Y2771310000SUSCRIPCION                000000000000020080626200806302008070320080703000000000000000000000000100000010108                    20080630        AN         00000
X020232ANN8133Y2854310000SUSCRIPCION                000000000000020080626200806302008070320080703000000000000000000000000100000010108                    20080630        AN         00000
X020232ANN8133Y2938310000SUSCRIPCION                000000000000020080626200806302008070320080703000000000000000000000000100000010108                    20080630        AN         00000
X020232ANN8133Y3019310000SUSCRIPCION                000000000000020080626200806302008070320080703000000000000000000000000100000010108                    20080630        AN         00000
X020232ANN8133Y3191310000SUSCRIPCION                000000000000020080626200806302008070320080703000000000000000000000000100000010108                    20080630        AN         00000
X020232ANN8133Y3274310000SUSCRIPCION                000000000000020080626200806302008070320080703000000000000000000000000100000010108                    20080630        AN         00000
X020232ANN8133Y3357310000SUSCRIPCION                000000000000020080626200806302008070320080703000000000000000000000000100000010108                    20080630        AN         00000
X020232ANN8133Y3431310000SUSCRIPCION                000000000000020080626200806302008070320080703000000000000000000000000100000010108                    20080630        AN         00000
X020232ANN8133Y3506310000SUSCRIPCION                000000000000020080626200806302008070320080703000000000000000000000000100000010108                    20080630        AN         00000
X020232ANN8133Y3688310000SUSCRIPCION                000000000000020080626200806302008070320080703000000000000000000000000100000010108                    20080630        AN         00000
X020232ANN8133Y3761310000SUSCRIPCION                000000000000020080626200806302008070320080703000000000000000000000000100000010108                    20080630        AN         00000
X020232ANN8133Y3845310000SUSCRIPCION                000000000000020080626200806302008070320080703000000000000000000000000100000010108                    20080630        AN         00000
X020232ANN8133Y3928310000SUSCRIPCION                000000000000020080626200806302008070320080703000000000000000000000000100000010108                    20080630        AN         00000
X020232ANN8133Y4009310000SUSCRIPCION                000000000000020080626200806302008070320080703000000000000000000000000100000010108                    20080630        AN         00000
X020232ANN8133Y4181310000SUSCRIPCION                000000000000020080626200806302008070320080703000000000000000000000000100000010108                    20080630        AN         00000
X020232ANN8133Y4264310000SUSCRIPCION                000000000000020080626200806302008070320080703000000000000000000000000100000010108                    20080630        AN         00000
X020232ANN8133Y4348310000SUSCRIPCION                000000000000020080626200806302008070320080703000000000000000000000000100000010108                    20080630        AN         00000
X020232ANN8133Y4421310000SUSCRIPCION                000000000000020080626200806302008070320080703000000000000000000000000100000010108                    20080630        AN         00000
X020232ANN8133Y4595310000SUSCRIPCION                000000000000020080626200806302008070320080703000000000000000000000000100000010108                    20080630        AN         00000
X020232ANN8133Y4678310000SUSCRIPCION                000000000000020080626200806302008070320080703000000000000000000000000100000010108                    20080630        AN         00000
X020232ANN8133Y4751310000SUSCRIPCION                000000000000020080626200806302008070320080703000000000000000000000000100000010108                    20080630        AN         00000
X020232ANN8133Y4835310000SUSCRIPCION                000000000000020080626200806302008070320080703000000000000000000000000100000010108                    20080630        AN         00000
X020232ANN8133Y4918310000SUSCRIPCION                000000000000020080626200806302008070320080703000000000000000000000000100000010108                    20080630        AN         00000
X020232ANN8133Y5097310000SUSCRIPCION                000000000000020080626200806302008070320080703000000000000000000000000100000010108                    20080630        AN         00000
X020232ANN8133Y5170310000SUSCRIPCION                000000000000020080626200806302008070320080703000000000000000000000000100000010108                    20080630        AN         00000
X020232ANN8133Y5253310000SUSCRIPCION                000000000000020080626200806302008070320080703000000000000000000000000100000010108                    20080630        AN         00000
X020232ANN8133Y5337310000SUSCRIPCION                000000000000020080626200806302008070320080703000000000000000000000000100000010108                    20080630        AN         00000
X020232ANN8133Y5410310000SUSCRIPCION                000000000000020080626200806302008070320080703000000000000000000000000100000010108                    20080630        AN         00000
X020232ANN8133Y5584310000SUSCRIPCION                000000000000020080626200806302008070320080703000000000000000000000000100000010108                    20080630        AN         00000
X020232ANN8133Y5667310000SUSCRIPCION                000000000000020080626200806302008070320080703000000000000000000000000100000010108                    20080630        AN         00000
X020232ANN8133Y5741310000SUSCRIPCION                000000000000020080626200806302008070320080703000000000000000000000000100000010108                    20080630        AN         00000
X020232ANN8133Y5824310000SUSCRIPCION                000000000000020080626200806302008070320080703000000000000000000000000100000010108                    20080630        AN         00000
X020232ANN8133Y5907310000SUSCRIPCION                000000000000020080626200806302008070320080703000000000000000000000000100000010108                    20080630        AN         00000
X020232ANN8133Y6087310000SUSCRIPCION                000000000000020080626200806302008070320080703000000000000000000000000100000010108                    20080630        AN         00000
X020232ANN8133Y6160310000SUSCRIPCION                000000000000020080626200806302008070320080703000000000000000000000000100000010108                    20080630        AN         00000
X020232ANN8133Y6244310000SUSCRIPCION                000000000000020080626200806302008070320080703000000000000000000000000100000010108                    20080630        AN         00000
X020232ANN8133Y6327310000SUSCRIPCION                000000000000020080626200806302008070320080703000000000000000000000000100000010108                    20080630        AN         00000
X020232ANN8133Y6400310000SUSCRIPCION                000000000000020080626200806302008070320080703000000000000000000000000100000010108                    20080630        AN         00000
X020232ANN8133Y6574310000SUSCRIPCION                000000000000020080626200806302008070320080703000000000000000000000000100000010108                    20080630        AN         00000
X020232ANN8133Y6657310000SUSCRIPCION                000000000000020080626200806302008070320080703000000000000000000000000100000010108                    20080630        AN         00000
X020232ANN8133Y6731310000SUSCRIPCION                000000000000020080626200806302008070320080703000000000000000000000000100000010108                    20080630        AN         00000
X020232ANN8133Y6814310000SUSCRIPCION                000000000000020080626200806302008070320080703000000000000000000000000100000010108                    20080630        AN         00000
X020232ANN8133Y6996310000SUSCRIPCION                000000000000020080626200806302008070320080703000000000000000000000000100000010108                    20080630        AN         00000
X020232ANN8133Y7077310000SUSCRIPCION                000000000000020080626200806302008070320080703000000000000000000000000100000010108                    20080630        AN         00000
X020232ANN8133Y7150310000SUSCRIPCION                000000000000020080626200806302008070320080703000000000000000000000000100000010108                    20080630        AN         00000
X020232ANN8133Y7234310000SUSCRIPCION                000000000000020080626200806302008070320080703000000000000000000000000100000010108                    20080630        AN         00000
X020232ANN8133Y7317310000SUSCRIPCION                000000000000020080626200806302008070320080703000000000000000000000000100000010108                    20080630        AN         00000
X020232ANN8133Y7499310000SUSCRIPCION                000000000000020080626200806302008070320080703000000000000000000000000100000010108                    20080630        AN         00000
X020232ANN8133Y7564310000SUSCRIPCION                000000000000020080626200806302008070320080703000000000000000000000000100000010108                    20080630        AN         00000
X020232ANN8133Y7648310000SUSCRIPCION                000000000000020080626200806302008070320080703000000000000000000000000100000010108                    20080630        AN         00000
X020232ANN8133Y7721310000SUSCRIPCION                000000000000020080626200806302008070320080703000000000000000000000000100000010108                    20080630        AN         00000
X020232ANN8133Y7804310000SUSCRIPCION                000000000000020080626200806302008070320080703000000000000000000000000100000010108                    20080630        AN         00000
X020232ANN8133Y7986310000SUSCRIPCION                000000000000020080626200806302008070320080703000000000000000000000000100000010108                    20080630        AN         00000
X020232ANN8133Y8067310000SUSCRIPCION                000000000000020080626200806302008070320080703000000000000000000000000100000010108                    20080630        AN         00000
X020232ANN8133Y8141310000SUSCRIPCION                000000000000020080626200806302008070320080703000000000000000000000000100000010108                    20080630        AN         00000
X020232ANN8133Y8224310000SUSCRIPCION                000000000000020080626200806302008070320080703000000000000000000000000100000010108                    20080630        AN         00000
X020232ANN8133Y8307310000SUSCRIPCION                000000000000020080626200806302008070320080703000000000000000000000000100000010108                    20080630        AN         00000
X020232ANN8133Y8489310000SUSCRIPCION                000000000000020080626200806302008070320080703000000000000000000000000100000010108                    20080630        AN         00000
X020232ANN8133Y8554310000SUSCRIPCION                000000000000020080626200806302008070320080703000000000000000000000000100000010108                    20080630        AN         00000
X020232ANN8133Y8638310000SUSCRIPCION                000000000000020080626200806302008070320080703000000000000000000000000100000010108                    20080630        AN         00000
X020232ANN8133Y8711310000SUSCRIPCION                000000000000020080626200806302008070320080703000000000000000000000000100000010108                    20080630        AN         00000
X020232ANN8133Y8893310000SUSCRIPCION                000000000000020080626200806302008070320080703000000000000000000000000100000010108                    20080630        AN         00000
X020232ANN8134A1044310000SUSCRIPCION                000000000000020080626200806302008070320080703000000000000000000000000100000010108                    20080630        AN         00000
X020232ANN8134A1127310000SUSCRIPCION                000000000000020080626200806302008070320080703000000000000000000000000100000010108                    20080630        AN         00000
X020232ANN8134A1200310000SUSCRIPCION                000000000000020080626200806302008070320080703000000000000000000000000100000010108                    20080630        AN         00000
X020232ANN8134A1382310000SUSCRIPCION                000000000000020080626200806302008070320080703000000000000000000000000100000010108                    20080630        AN         00000
X020232ANN8134A1465310000SUSCRIPCION                000000000000020080626200806302008070320080703000000000000000000000000100000010108                    20080630        AN         00000
X020232ANN8134A1531310000SUSCRIPCION                000000000000020080626200806302008070320080703000000000000000000000000100000010108                    20080630        AN         00000
X020232ANN8134A1614310000SUSCRIPCION                000000000000020080626200806302008070320080703000000000000000000000000100000010108                    20080630        AN         00000
X020232ANN8134A1796310000SUSCRIPCION                000000000000020080626200806302008070320080703000000000000000000000000100000010108                    20080630        AN         00000
X020232ANN8134A1879310000SUSCRIPCION                000000000000020080626200806302008070320080703000000000000000000000000100000010108                    20080630        AN         00000
X020232ANN8134A1952310000SUSCRIPCION                000000000000020080626200806302008070320080703000000000000000000000000100000010108                    20080630        AN         00000
X020232ANN8134A2034310000SUSCRIPCION                000000000000020080626200806302008070320080703000000000000000000000000100000010108                    20080630        AN         00000
X020232ANN8134A2117310000SUSCRIPCION                000000000000020080626200806302008070320080703000000000000000000000000100000010108                    20080630        AN         00000
X020232ANN8134A2299310000SUSCRIPCION                000000000000020080626200806302008070320080703000000000000000000000000100000010108                    20080630        AN         00000
X020232ANN8134A2372310000SUSCRIPCION                000000000000020080626200806302008070320080703000000000000000000000000100000010108                    20080630        AN         00000
X020232ANN8134A2455310000SUSCRIPCION                000000000000020080626200806302008070320080703000000000000000000000000100000010108                    20080630        AN         00000
X020232ANN8134A2521310000SUSCRIPCION                000000000000020080626200806302008070320080703000000000000000000000000100000010108                    20080630        AN         00000
X020232ANN8134A2604310000SUSCRIPCION                000000000000020080626200806302008070320080703000000000000000000000000100000010108                    20080630        AN         00000
X020232ANN8134A2786310000SUSCRIPCION                000000000000020080626200806302008070320080703000000000000000000000000100000010108                    20080630        AN         00000
X020232ANN8134A2869310000SUSCRIPCION                000000000000020080626200806302008070320080703000000000000000000000000100000010108                    20080630        AN         00000
X020232ANN8134A2943310000SUSCRIPCION                000000000000020080626200806302008070320080703000000000000000000000000100000010108                    20080630        AN         00000
X020232ANN8134A3024310000SUSCRIPCION                000000000000020080626200806302008070320080703000000000000000000000000100000010108                    20080630        AN         00000
X020232ANN8134A3107310000SUSCRIPCION                000000000000020080626200806302008070320080703000000000000000000000000100000010108                    20080630        AN         00000
X020232ANN8134A3289310000SUSCRIPCION                000000000000020080626200806302008070320080703000000000000000000000000100000010108                    20080630        AN         00000
X020232ANN8134A3362310000SUSCRIPCION                000000000000020080626200806302008070320080703000000000000000000000000100000010108                    20080630        AN         00000
X020232ANN8134A3446310000SUSCRIPCION                000000000000020080626200806302008070320080703000000000000000000000000100000010108                    20080630        AN         00000
X020232ANN8134A3511310000SUSCRIPCION                000000000000020080626200806302008070320080703000000000000000000000000100000010108                    20080630        AN         00000
X020232ANN8134A3693310000SUSCRIPCION                000000000000020080626200806302008070320080703000000000000000000000000100000010108                    20080630        AN         00000
X020232ANN8134A3776310000SUSCRIPCION                000000000000020080626200806302008070320080703000000000000000000000000100000010108                    20080630        AN         00000
X020232ANN8134A3859310000SUSCRIPCION                000000000000020080626200806302008070320080703000000000000000000000000100000010108                    20080630        AN         00000
X020232ES0002750000390019AMORTIZ. SORTEO            00000000000002008070120080612200806122008070100000000030100000000000010000001                        20080630        AN         00000
X020232ES0002750018390039AMORTIZ. SORTEO            00000000000002008070120080612200806122008070100000000060100000000000010000001                        20080630        AN         00000
X020232ES0002750034390009AMORTIZ. SORTEO            00000000000002008070120080612200806122008070100000000060100000000000010000001                        20080630        AN         00000
X020232ES0002750059390019AMORTIZ. SORTEO            00000000000002008070120080612200806122008070100000000300500000000000010000001                        20080630        AN         00000
X020232ES0002750067390019AMORTIZ. SORTEO            00000000000002008070120080612200806122008070100000001502500000000000010000001                        20080630        AN         00000
X020232ES0113679I37150003PAGO DIVID./CUP            00000000000002008070520080709        2008070900000000000585070000000010000001                        2008062420080626MS20080707F000000128
X020232ES0121975017150009PAGO DIVID./CUP            00000000000002008070720080709        2008070900000000069700000000000010000001                        2008061720080627AS20080707F000002000
X020232ES0122060314150018PAGO DIVID./CUP            00000000000002008070720080709        2008070900000000008733000000000010000001                        20080627        AN         00000
X020232ES0129743219150005PAGO DIVID./CUP            00000000000002008070320080707        2008070700000000001976200000000010000001                        20080630        AN         00000
X020232ES0132955016150019PAGO DIVID./CUP            00000000000002008070220080704        2008070400000000025787312900000010000001                        20080630        AN         00000
X020232ES0141330C19150017PAGO DIVID./CUP            00000000000002008070320080707        2008070700000000003042200000000010000001                        20080630        AS20080703F000002100
X020232ES0161928116150002PAGO DIVID./CUP            00000000000002008070320080707        2008070700000000002706000000000010000001                        20080630        AS20080703F000000182
X020232ES0168561019100002AB.PRIMA EMISI.            00000000000002008070420080708        2008070800000000000800000000000010000001                        20080630        AN         00000
X020232ES0173358211230000EQUIPARACION   ES0173358039000000000000020080703                2008070300000000000000000000000010000001                        20080630        AN         00000
X022038ANN8133W1643310000SUSCRIPCION                000000000000020080626200806302008070320080703000000000000000000000000100000010108                    20080630        AN         00000
X022038ANN8133W1726310000SUSCRIPCION                000000000000020080626200806302008070320080703000000000000000000000000100000010108                    20080630        AN         00000
X022038ANN8133W1809310000SUSCRIPCION                000000000000020080626200806302008070320080703000000000000000000000000100000010108                    20080630        AN         00000
X022038ANN8133W1981310000SUSCRIPCION                000000000000020080626200806302008070320080703000000000000000000000000100000010108                    20080630        AN         00000
X022038ANN8133W2062310000SUSCRIPCION                000000000000020080626200806302008070320080703000000000000000000000000100000010108                    20080630        AN         00000
X022038ANN8133W2146310000SUSCRIPCION                000000000000020080626200806302008070320080703000000000000000000000000100000010108                    20080630        AN         00000
X022038ANN8133W2229310000SUSCRIPCION                000000000000020080626200806302008070320080703000000000000000000000000100000010108                    20080630        AN         00000
X022038ANN8133W2302310000SUSCRIPCION                000000000000020080626200806302008070320080703000000000000000000000000100000010108                    20080630        AN         00000
X022038ANN8133W2484310000SUSCRIPCION                000000000000020080626200806302008070320080703000000000000000000000000100000010108                    20080630        AN         00000
X022038ANN8133W2559310000SUSCRIPCION                000000000000020080626200806302008070320080703000000000000000000000000100000010108                    20080630        AN         00000
X022038ANN8133W2633310000SUSCRIPCION                000000000000020080626200806302008070320080703000000000000000000000000100000010108                    20080630        AN         00000
X022038ANN8133W2716310000SUSCRIPCION                000000000000020080626200806302008070320080703000000000000000000000000100000010108                    20080630        AN         00000
X022038ANN8133W2898310000SUSCRIPCION                000000000000020080626200806302008070320080703000000000000000000000000100000010108                    20080630        AN         00000
X022038ANN8133W2971310000SUSCRIPCION                000000000000020080626200806302008070320080703000000000000000000000000100000010108                    20080630        AN         00000
X022038ANN8133W3052310000SUSCRIPCION                000000000000020080626200806302008070320080703000000000000000000000000100000010108                    20080630        AN         00000
X022038ANN8133W3136310000SUSCRIPCION                000000000000020080626200806302008070320080703000000000000000000000000100000010108                    20080630        AN         00000
X022038ANN8133W3219310000SUSCRIPCION                000000000000020080626200806302008070320080703000000000000000000000000100000010108                    20080630        AN         00000
X022038ANN8133W3391310000SUSCRIPCION                000000000000020080626200806302008070320080703000000000000000000000000100000010108                    20080630        AN         00000
X022038ANN8133W3474310000SUSCRIPCION                000000000000020080626200806302008070320080703000000000000000000000000100000010108                    20080630        AN         00000
X022038ANN8133W3540310000SUSCRIPCION                000000000000020080626200806302008070320080703000000000000000000000000100000010108                    20080630        AN         00000
X022038ANN8133W3623310000SUSCRIPCION                000000000000020080626200806302008070320080703000000000000000000000000100000010108                    20080630        AN         00000
X022038ANN8133W3706310000SUSCRIPCION                000000000000020080626200806302008070320080703000000000000000000000000100000010108                    20080630        AN         00000
X022038ANN8133W3888310000SUSCRIPCION                000000000000020080626200806302008070320080703000000000000000000000000100000010108                    20080630        AN         00000
X022038ANN8133W3961310000SUSCRIPCION                000000000000020080626200806302008070320080703000000000000000000000000100000010108                    20080630        AN         00000
X022038ANN8133W4043310000SUSCRIPCION                000000000000020080626200806302008070320080703000000000000000000000000100000010108                    20080630        AN         00000
X022038ANN8133W4126310000SUSCRIPCION                000000000000020080626200806302008070320080703000000000000000000000000100000010108                    20080630        AN         00000
X022038ANN8133W4209310000SUSCRIPCION                000000000000020080626200806302008070320080703000000000000000000000000100000010108                    20080630        AN         00000
X022038ANN8133W4381310000SUSCRIPCION                000000000000020080626200806302008070320080703000000000000000000000000100000010108                    20080630        AN         00000
X022038ANN8133W4464310000SUSCRIPCION                000000000000020080626200806302008070320080703000000000000000000000000100000010108                    20080630        AN         00000
X022038ANN8133W4530310000SUSCRIPCION                000000000000020080626200806302008070320080703000000000000000000000000100000010108                    20080630        AN         00000
X022038ANN8133W4613310000SUSCRIPCION                000000000000020080626200806302008070320080703000000000000000000000000100000010108                    20080630        AN         00000
X022038ANN8133W4795310000SUSCRIPCION                000000000000020080626200806302008070320080703000000000000000000000000100000010108                    20080630        AN         00000
X022038ANN8133W4878310000SUSCRIPCION                000000000000020080626200806302008070320080703000000000000000000000000100000010108                    20080630        AN         00000
X022038ANN8133W4951310000SUSCRIPCION                000000000000020080626200806302008070320080703000000000000000000000000100000010108                    20080630        AN         00000
X022038ANN8133W5032310000SUSCRIPCION                000000000000020080626200806302008070320080703000000000000000000000000100000010108                    20080630        AN         00000
X022038ANN8133W5115310000SUSCRIPCION                000000000000020080626200806302008070320080703000000000000000000000000100000010108                    20080630        AN         00000
X022038ANN8133W5297310000SUSCRIPCION                000000000000020080626200806302008070320080703000000000000000000000000100000010108                    20080630        AN         00000
X022038ANN8133W5370310000SUSCRIPCION                000000000000020080626200806302008070320080703000000000000000000000000100000010108                    20080630        AN         00000
X022038ANN8133W5453310000SUSCRIPCION                000000000000020080626200806302008070320080703000000000000000000000000100000010108                    20080630        AN         00000
X022038ANN8133W5529310000SUSCRIPCION                000000000000020080626200806302008070320080703000000000000000000000000100000010108                    20080630        AN         00000
X022038ANN8133W5602310000SUSCRIPCION                000000000000020080626200806302008070320080703000000000000000000000000100000010108                    20080630        AN         00000
X022038ANN8133W5784310000SUSCRIPCION                000000000000020080626200806302008070320080703000000000000000000000000100000010108                    20080630        AN         00000
X022038ANN8133W5867310000SUSCRIPCION                000000000000020080626200806302008070320080703000000000000000000000000100000010108                    20080630        AN         00000
X022038ANN8133W5941310000SUSCRIPCION                000000000000020080626200806302008070320080703000000000000000000000000100000010108                    20080630        AN         00000
X022038ANN8133W6022310000SUSCRIPCION                000000000000020080626200806302008070320080703000000000000000000000000100000010108                    20080630        AN         00000
X022038ANN8133W6105310000SUSCRIPCION                000000000000020080626200806302008070320080703000000000000000000000000100000010108                    20080630        AN         00000
X022038ANN8133W6287310000SUSCRIPCION                000000000000020080626200806302008070320080703000000000000000000000000100000010108                    20080630        AN         00000
X022038ANN8133W6360310000SUSCRIPCION                000000000000020080626200806302008070320080703000000000000000000000000100000010108                    20080630        AN         00000
X022038ANN8133W6444310000SUSCRIPCION                000000000000020080626200806302008070320080703000000000000000000000000100000010108                    20080630        AN         00000
X022038ANN8133W6519310000SUSCRIPCION                000000000000020080626200806302008070320080703000000000000000000000000100000010108                    20080630        AN         00000
X022038ANN8133W6691310000SUSCRIPCION                000000000000020080626200806302008070320080703000000000000000000000000100000010108                    20080630        AN         00000
X022038ANN8133W6774310000SUSCRIPCION                000000000000020080626200806302008070320080703000000000000000000000000100000010108                    20080630        AN         00000
X022038ANN8133W6857310000SUSCRIPCION                000000000000020080626200806302008070320080703000000000000000000000000100000010108                    20080630        AN         00000
X022038ANN8133W6931310000SUSCRIPCION                000000000000020080626200806302008070320080703000000000000000000000000100000010108                    20080630        AN         00000
X022038ANN8133W7012310000SUSCRIPCION                000000000000020080626200806302008070320080703000000000000000000000000100000010108                    20080630        AN         00000
X022038ANN8133W7194310000SUSCRIPCION                000000000000020080626200806302008070320080703000000000000000000000000100000010108                    20080630        AN         00000
X022038ANN8133W7277310000SUSCRIPCION                000000000000020080626200806302008070320080703000000000000000000000000100000010108                    20080630        AN         00000
X022038ANN8133W7350310000SUSCRIPCION                000000000000020080626200806302008070320080703000000000000000000000000100000010108                    20080630        AN         00000
X022038ANN8133W7434310000SUSCRIPCION                000000000000020080626200806302008070320080703000000000000000000000000100000010108                    20080630        AN         00000
X022038ANN8133W7509310000SUSCRIPCION                000000000000020080626200806302008070320080703000000000000000000000000100000010108                    20080630        AN         00000
X022038ANN8133W7681310000SUSCRIPCION                000000000000020080626200806302008070320080703000000000000000000000000100000010108                    20080630        AN         00000
X022038ANN8133W7764310000SUSCRIPCION                000000000000020080626200806302008070320080703000000000000000000000000100000010108                    20080630        AN         00000
X022038ANN8133W7848310000SUSCRIPCION                000000000000020080626200806302008070320080703000000000000000000000000100000010108                    20080630        AN         00000
X022038ANN8133W7921310000SUSCRIPCION                000000000000020080626200806302008070320080703000000000000000000000000100000010108                    20080630        AN         00000
X022038ANN8133W8002310000SUSCRIPCION                000000000000020080626200806302008070320080703000000000000000000000000100000010108                    20080630        AN         00000
X022038ANN8133W8184310000SUSCRIPCION                000000000000020080626200806302008070320080703000000000000000000000000100000010108                    20080630        AN         00000
X022038ANN8133W8267310000SUSCRIPCION                000000000000020080626200806302008070320080703000000000000000000000000100000010108                    20080630        AN         00000
X022038ANN8133W8341310000SUSCRIPCION                000000000000020080626200806302008070320080703000000000000000000000000100000010108                    20080630        AN         00000
X022038ANN8133W8424310000SUSCRIPCION                000000000000020080626200806302008070320080703000000000000000000000000100000010108                    20080630        AN         00000
X022038ANN8133W8598310000SUSCRIPCION                000000000000020080626200806302008070320080703000000000000000000000000100000010108                    20080630        AN         00000
X022038ANN8133X8811310000SUSCRIPCION                000000000000020080626200806302008070320080703000000000000000000000000100000010108                    20080630        AN         00000
X022038ANN8133Y1039310000SUSCRIPCION                000000000000020080626200806302008070320080703000000000000000000000000100000010108                    20080630        AN         00000
X022038ANN8133Y1112310000SUSCRIPCION                000000000000020080626200806302008070320080703000000000000000000000000100000010108                    20080630        AN         00000
X022038ANN8133Y1294310000SUSCRIPCION                000000000000020080626200806302008070320080703000000000000000000000000100000010108                    20080630        AN         00000
X022038ANN8133Y1377310000SUSCRIPCION                000000000000020080626200806302008070320080703000000000000000000000000100000010108                    20080630        AN         00000
X022038ANN8133Y1450310000SUSCRIPCION                000000000000020080626200806302008070320080703000000000000000000000000100000010108                    20080630        AN         00000
X022038ANN8133Y1526310000SUSCRIPCION                000000000000020080626200806302008070320080703000000000000000000000000100000010108                    20080630        AN         00000
X022038ANN8133Y1609310000SUSCRIPCION                000000000000020080626200806302008070320080703000000000000000000000000100000010108                    20080630        AN         00000
X022038ANN8133Y1781310000SUSCRIPCION                000000000000020080626200806302008070320080703000000000000000000000000100000010108                    20080630        AN         00000
X022038ANN8133Y1864310000SUSCRIPCION                000000000000020080626200806302008070320080703000000000000000000000000100000010108                    20080630        AN         00000
X022038ANN8133Y1948310000SUSCRIPCION                000000000000020080626200806302008070320080703000000000000000000000000100000010108                    20080630        AN         00000
X022038ANN8133Y2029310000SUSCRIPCION                000000000000020080626200806302008070320080703000000000000000000000000100000010108                    20080630        AN         00000
X022038ANN8133Y2102310000SUSCRIPCION                000000000000020080626200806302008070320080703000000000000000000000000100000010108                    20080630        AN         00000
X022038ANN8133Y2284310000SUSCRIPCION                000000000000020080626200806302008070320080703000000000000000000000000100000010108                    20080630        AN         00000
X022038ANN8133Y2367310000SUSCRIPCION                000000000000020080626200806302008070320080703000000000000000000000000100000010108                    20080630        AN         00000
X022038ANN8133Y2441310000SUSCRIPCION                000000000000020080626200806302008070320080703000000000000000000000000100000010108                    20080630        AN         00000
X022038ANN8133Y2516310000SUSCRIPCION                000000000000020080626200806302008070320080703000000000000000000000000100000010108                    20080630        AN         00000
X022038ANN8133Y2698310000SUSCRIPCION                000000000000020080626200806302008070320080703000000000000000000000000100000010108                    20080630        AN         00000
X022038ANN8133Y2771310000SUSCRIPCION                000000000000020080626200806302008070320080703000000000000000000000000100000010108                    20080630        AN         00000
X022038ANN8133Y2854310000SUSCRIPCION                000000000000020080626200806302008070320080703000000000000000000000000100000010108                    20080630        AN         00000
X022038ANN8133Y2938310000SUSCRIPCION                000000000000020080626200806302008070320080703000000000000000000000000100000010108                    20080630        AN         00000
X022038ANN8133Y3019310000SUSCRIPCION                000000000000020080626200806302008070320080703000000000000000000000000100000010108                    20080630        AN         00000
X022038ANN8133Y3191310000SUSCRIPCION                000000000000020080626200806302008070320080703000000000000000000000000100000010108                    20080630        AN         00000
X022038ANN8133Y3274310000SUSCRIPCION                000000000000020080626200806302008070320080703000000000000000000000000100000010108                    20080630        AN         00000
X022038ANN8133Y3357310000SUSCRIPCION                000000000000020080626200806302008070320080703000000000000000000000000100000010108                    20080630        AN         00000
X022038ANN8133Y3431310000SUSCRIPCION                000000000000020080626200806302008070320080703000000000000000000000000100000010108                    20080630        AN         00000
X022038ANN8133Y3506310000SUSCRIPCION                000000000000020080626200806302008070320080703000000000000000000000000100000010108                    20080630        AN         00000
X022038ANN8133Y3688310000SUSCRIPCION                000000000000020080626200806302008070320080703000000000000000000000000100000010108                    20080630        AN         00000
X022038ANN8133Y3761310000SUSCRIPCION                000000000000020080626200806302008070320080703000000000000000000000000100000010108                    20080630        AN         00000
X022038ANN8133Y3845310000SUSCRIPCION                000000000000020080626200806302008070320080703000000000000000000000000100000010108                    20080630        AN         00000
X022038ANN8133Y3928310000SUSCRIPCION                000000000000020080626200806302008070320080703000000000000000000000000100000010108                    20080630        AN         00000
X022038ANN8133Y4009310000SUSCRIPCION                000000000000020080626200806302008070320080703000000000000000000000000100000010108                    20080630        AN         00000
X022038ANN8133Y4181310000SUSCRIPCION                000000000000020080626200806302008070320080703000000000000000000000000100000010108                    20080630        AN         00000
X022038ANN8133Y4264310000SUSCRIPCION                000000000000020080626200806302008070320080703000000000000000000000000100000010108                    20080630        AN         00000
X022038ANN8133Y4348310000SUSCRIPCION                000000000000020080626200806302008070320080703000000000000000000000000100000010108                    20080630        AN         00000
X022038ANN8133Y4421310000SUSCRIPCION                000000000000020080626200806302008070320080703000000000000000000000000100000010108                    20080630        AN         00000
X022038ANN8133Y4595310000SUSCRIPCION                000000000000020080626200806302008070320080703000000000000000000000000100000010108                    20080630        AN         00000
X022038ANN8133Y4678310000SUSCRIPCION                000000000000020080626200806302008070320080703000000000000000000000000100000010108                    20080630        AN         00000
X022038ANN8133Y4751310000SUSCRIPCION                000000000000020080626200806302008070320080703000000000000000000000000100000010108                    20080630        AN         00000
X022038ANN8133Y4835310000SUSCRIPCION                000000000000020080626200806302008070320080703000000000000000000000000100000010108                    20080630        AN         00000
X022038ANN8133Y4918310000SUSCRIPCION                000000000000020080626200806302008070320080703000000000000000000000000100000010108                    20080630        AN         00000
X022038ANN8133Y5097310000SUSCRIPCION                000000000000020080626200806302008070320080703000000000000000000000000100000010108                    20080630        AN         00000
X022038ANN8133Y5170310000SUSCRIPCION                000000000000020080626200806302008070320080703000000000000000000000000100000010108                    20080630        AN         00000
X022038ANN8133Y5253310000SUSCRIPCION                000000000000020080626200806302008070320080703000000000000000000000000100000010108                    20080630        AN         00000
X022038ANN8133Y5337310000SUSCRIPCION                000000000000020080626200806302008070320080703000000000000000000000000100000010108                    20080630        AN         00000
X022038ANN8133Y5410310000SUSCRIPCION                000000000000020080626200806302008070320080703000000000000000000000000100000010108                    20080630        AN         00000
X022038ANN8133Y5584310000SUSCRIPCION                000000000000020080626200806302008070320080703000000000000000000000000100000010108                    20080630        AN         00000
X022038ANN8133Y5667310000SUSCRIPCION                000000000000020080626200806302008070320080703000000000000000000000000100000010108                    20080630        AN         00000
X022038ANN8133Y5741310000SUSCRIPCION                000000000000020080626200806302008070320080703000000000000000000000000100000010108                    20080630        AN         00000
X022038ANN8133Y5824310000SUSCRIPCION                000000000000020080626200806302008070320080703000000000000000000000000100000010108                    20080630        AN         00000
X022038ANN8133Y5907310000SUSCRIPCION                000000000000020080626200806302008070320080703000000000000000000000000100000010108                    20080630        AN         00000
X022038ANN8133Y6087310000SUSCRIPCION                000000000000020080626200806302008070320080703000000000000000000000000100000010108                    20080630        AN         00000
X022038ANN8133Y6160310000SUSCRIPCION                000000000000020080626200806302008070320080703000000000000000000000000100000010108                    20080630        AN         00000
X022038ANN8133Y6244310000SUSCRIPCION                000000000000020080626200806302008070320080703000000000000000000000000100000010108                    20080630        AN         00000
X022038ANN8133Y6327310000SUSCRIPCION                000000000000020080626200806302008070320080703000000000000000000000000100000010108                    20080630        AN         00000
X022038ANN8133Y6400310000SUSCRIPCION                000000000000020080626200806302008070320080703000000000000000000000000100000010108                    20080630        AN         00000
X022038ANN8133Y6574310000SUSCRIPCION                000000000000020080626200806302008070320080703000000000000000000000000100000010108                    20080630        AN         00000
X022038ANN8133Y6657310000SUSCRIPCION                000000000000020080626200806302008070320080703000000000000000000000000100000010108                    20080630        AN         00000
X022038ANN8133Y6731310000SUSCRIPCION                000000000000020080626200806302008070320080703000000000000000000000000100000010108                    20080630        AN         00000
X022038ANN8133Y6814310000SUSCRIPCION                000000000000020080626200806302008070320080703000000000000000000000000100000010108                    20080630        AN         00000
X022038ANN8133Y6996310000SUSCRIPCION                000000000000020080626200806302008070320080703000000000000000000000000100000010108                    20080630        AN         00000
X022038ANN8133Y7077310000SUSCRIPCION                000000000000020080626200806302008070320080703000000000000000000000000100000010108                    20080630        AN         00000
X022038ANN8133Y7150310000SUSCRIPCION                000000000000020080626200806302008070320080703000000000000000000000000100000010108                    20080630        AN         00000
X022038ANN8133Y7234310000SUSCRIPCION                000000000000020080626200806302008070320080703000000000000000000000000100000010108                    20080630        AN         00000
X022038ANN8133Y7317310000SUSCRIPCION                000000000000020080626200806302008070320080703000000000000000000000000100000010108                    20080630        AN         00000
X022038ANN8133Y7499310000SUSCRIPCION                000000000000020080626200806302008070320080703000000000000000000000000100000010108                    20080630        AN         00000
X022038ANN8133Y7564310000SUSCRIPCION                000000000000020080626200806302008070320080703000000000000000000000000100000010108                    20080630        AN         00000
X022038ANN8133Y7648310000SUSCRIPCION                000000000000020080626200806302008070320080703000000000000000000000000100000010108                    20080630        AN         00000
X022038ANN8133Y7721310000SUSCRIPCION                000000000000020080626200806302008070320080703000000000000000000000000100000010108                    20080630        AN         00000
X022038ANN8133Y7804310000SUSCRIPCION                000000000000020080626200806302008070320080703000000000000000000000000100000010108                    20080630        AN         00000
X022038ANN8133Y7986310000SUSCRIPCION                000000000000020080626200806302008070320080703000000000000000000000000100000010108                    20080630        AN         00000
X022038ANN8133Y8067310000SUSCRIPCION                000000000000020080626200806302008070320080703000000000000000000000000100000010108                    20080630        AN         00000
X022038ANN8133Y8141310000SUSCRIPCION                000000000000020080626200806302008070320080703000000000000000000000000100000010108                    20080630        AN         00000
X022038ANN8133Y8224310000SUSCRIPCION                000000000000020080626200806302008070320080703000000000000000000000000100000010108                    20080630        AN         00000
X022038ANN8133Y8307310000SUSCRIPCION                000000000000020080626200806302008070320080703000000000000000000000000100000010108                    20080630        AN         00000
X022038ANN8133Y8489310000SUSCRIPCION                000000000000020080626200806302008070320080703000000000000000000000000100000010108                    20080630        AN         00000
X022038ANN8133Y8554310000SUSCRIPCION                000000000000020080626200806302008070320080703000000000000000000000000100000010108                    20080630        AN         00000
X022038ANN8133Y8638310000SUSCRIPCION                000000000000020080626200806302008070320080703000000000000000000000000100000010108                    20080630        AN         00000
X022038ANN8133Y8711310000SUSCRIPCION                000000000000020080626200806302008070320080703000000000000000000000000100000010108                    20080630        AN         00000
X022038ANN8133Y8893310000SUSCRIPCION                000000000000020080626200806302008070320080703000000000000000000000000100000010108                    20080630        AN         00000
X022038ANN8134A1044310000SUSCRIPCION                000000000000020080626200806302008070320080703000000000000000000000000100000010108                    20080630        AN         00000
X022038ANN8134A1127310000SUSCRIPCION                000000000000020080626200806302008070320080703000000000000000000000000100000010108                    20080630        AN         00000
X022038ANN8134A1200310000SUSCRIPCION                000000000000020080626200806302008070320080703000000000000000000000000100000010108                    20080630        AN         00000
X022038ANN8134A1382310000SUSCRIPCION                000000000000020080626200806302008070320080703000000000000000000000000100000010108                    20080630        AN         00000
X022038ANN8134A1465310000SUSCRIPCION                000000000000020080626200806302008070320080703000000000000000000000000100000010108                    20080630        AN         00000
X022038ANN8134A1531310000SUSCRIPCION                000000000000020080626200806302008070320080703000000000000000000000000100000010108                    20080630        AN         00000
X022038ANN8134A1614310000SUSCRIPCION                000000000000020080626200806302008070320080703000000000000000000000000100000010108                    20080630        AN         00000
X022038ANN8134A1796310000SUSCRIPCION                000000000000020080626200806302008070320080703000000000000000000000000100000010108                    20080630        AN         00000
X022038ANN8134A1879310000SUSCRIPCION                000000000000020080626200806302008070320080703000000000000000000000000100000010108                    20080630        AN         00000
X022038ANN8134A1952310000SUSCRIPCION                000000000000020080626200806302008070320080703000000000000000000000000100000010108                    20080630        AN         00000
X022038ANN8134A2034310000SUSCRIPCION                000000000000020080626200806302008070320080703000000000000000000000000100000010108                    20080630        AN         00000
X022038ANN8134A2117310000SUSCRIPCION                000000000000020080626200806302008070320080703000000000000000000000000100000010108                    20080630        AN         00000
X022038ANN8134A2299310000SUSCRIPCION                000000000000020080626200806302008070320080703000000000000000000000000100000010108                    20080630        AN         00000
X022038ANN8134A2372310000SUSCRIPCION                000000000000020080626200806302008070320080703000000000000000000000000100000010108                    20080630        AN         00000
X022038ANN8134A2455310000SUSCRIPCION                000000000000020080626200806302008070320080703000000000000000000000000100000010108                    20080630        AN         00000
X022038ANN8134A2521310000SUSCRIPCION                000000000000020080626200806302008070320080703000000000000000000000000100000010108                    20080630        AN         00000
X022038ANN8134A2604310000SUSCRIPCION                000000000000020080626200806302008070320080703000000000000000000000000100000010108                    20080630        AN         00000
X022038ANN8134A2786310000SUSCRIPCION                000000000000020080626200806302008070320080703000000000000000000000000100000010108                    20080630        AN         00000
X022038ANN8134A2869310000SUSCRIPCION                000000000000020080626200806302008070320080703000000000000000000000000100000010108                    20080630        AN         00000
X022038ANN8134A2943310000SUSCRIPCION                000000000000020080626200806302008070320080703000000000000000000000000100000010108                    20080630        AN         00000
X022038ANN8134A3024310000SUSCRIPCION                000000000000020080626200806302008070320080703000000000000000000000000100000010108                    20080630        AN         00000
X022038ANN8134A3107310000SUSCRIPCION                000000000000020080626200806302008070320080703000000000000000000000000100000010108                    20080630        AN         00000
X022038ANN8134A3289310000SUSCRIPCION                000000000000020080626200806302008070320080703000000000000000000000000100000010108                    20080630        AN         00000
X022038ANN8134A3362310000SUSCRIPCION                000000000000020080626200806302008070320080703000000000000000000000000100000010108                    20080630        AN         00000
X022038ANN8134A3446310000SUSCRIPCION                000000000000020080626200806302008070320080703000000000000000000000000100000010108                    20080630        AN         00000
X022038ANN8134A3511310000SUSCRIPCION                000000000000020080626200806302008070320080703000000000000000000000000100000010108                    20080630        AN         00000
X022038ANN8134A3693310000SUSCRIPCION                000000000000020080626200806302008070320080703000000000000000000000000100000010108                    20080630        AN         00000
X022038ANN8134A3776310000SUSCRIPCION                000000000000020080626200806302008070320080703000000000000000000000000100000010108                    20080630        AN         00000
X022038ANN8134A3859310000SUSCRIPCION                000000000000020080626200806302008070320080703000000000000000000000000100000010108                    20080630        AN         00000
X022038ES0002750000390019AMORTIZ. SORTEO            00000000000002008070120080612200806122008070100000000030100000000000010000001                        20080630        AN         00000
X022038ES0002750018390039AMORTIZ. SORTEO            00000000000002008070120080612200806122008070100000000060100000000000010000001                        20080630        AN         00000
X022038ES0002750034390009AMORTIZ. SORTEO            00000000000002008070120080612200806122008070100000000060100000000000010000001                        20080630        AN         00000
X022038ES0002750059390019AMORTIZ. SORTEO            00000000000002008070120080612200806122008070100000000300500000000000010000001                        20080630        AN         00000
X022038ES0002750067390019AMORTIZ. SORTEO            00000000000002008070120080612200806122008070100000001502500000000000010000001                        20080630        AN         00000
X022038ES0113679I37150003PAGO DIVID./CUP            00000000000002008070520080709        2008070900000000000585070000000010000001                        2008062420080626MS20080707F000000128
X022038ES0121975017150009PAGO DIVID./CUP            00000000000002008070720080709        2008070900000000069700000000000010000001                        2008061720080627AS20080707F000002000
X022038ES0122060314150018PAGO DIVID./CUP            00000000000002008070720080709        2008070900000000008733000000000010000001                        20080627        AN         00000
X022038ES0129743219150005PAGO DIVID./CUP            00000000000002008070320080707        2008070700000000001976200000000010000001                        20080630        AN         00000
X022038ES0132955016150019PAGO DIVID./CUP            00000000000002008070220080704        2008070400000000025787312900000010000001                        20080630        AN         00000
X022038ES0141330C19150017PAGO DIVID./CUP            00000000000002008070320080707        2008070700000000003042200000000010000001                        20080630        AS20080703F000002100
X022038ES0161928116150002PAGO DIVID./CUP            00000000000002008070320080707        2008070700000000002706000000000010000001                        20080630        AS20080703F000000182
X022038ES0168561019100002AB.PRIMA EMISI.            00000000000002008070420080708        2008070800000000000800000000000010000001                        20080630        AN         00000
X022038ES0173358211230000EQUIPARACION   ES0173358039000000000000020080703                2008070300000000000000000000000010000001                        20080630        AN         00000
X020232ES0118594417150009PAGO DIVID./CUP            00000000000002008070820080710        2008071000000000004100000000000010000001                        20080630        AN         00000
X020232ES0121501318150000PAGO DIVID./CUP            00000000000002008070820080710        2008071000000000001939538300000010000001                        2008063020080701AS20080708F000000049
X020232ES0129743219150005PAGO DIVID./CUP            00000000000002008070320080707        2008070700000000001976200000000010000001                        2008063020080701MS20080703F000000182
X020232ES0130670112150019PAGO DIVID./CUP            00000000000002008070820080710        2008071000000000008454200000000010000001                        20080701        AS20080708F000000049
X020232ES0132580319150017PAGO DIVID./CUP            00000000000002008070720080709        2008070900000000005740000000000010000001                        20080701        AN         00000
X020232ES0132955016150019PAGO DIVID./CUP            00000000000002008070220080704        2008070400000000025787312900000010000001                        2008063020080701MS20080702F000000030
X020232ES0161560018150000PAGO DIVID./CUP            00000000000002008070820080710        2008071000000000002132000000000010000001                        2008062520080626AS20080708F000000065
X020232ES0168561019100002AB.PRIMA EMISI.            00000000000002008070420080708        2008070800000000000800000000000010000001                        2008063020080701MS20080704F000000075
X022038ES0118594417150009PAGO DIVID./CUP            00000000000002008070820080710        2008071000000000004100000000000010000001                        20080630        AN         00000
X022038ES0121501318150000PAGO DIVID./CUP            00000000000002008070820080710        2008071000000000001939538300000010000001                        2008063020080701AS20080708F000000049
X022038ES0129743219150005PAGO DIVID./CUP            00000000000002008070320080707        2008070700000000001976200000000010000001                        2008063020080701MS20080703F000000182
X022038ES0130670112150019PAGO DIVID./CUP            00000000000002008070820080710        2008071000000000008454200000000010000001                        20080701        AS20080708F000000049
X022038ES0132580319150017PAGO DIVID./CUP            00000000000002008070720080709        2008070900000000005740000000000010000001                        20080701        AN         00000
X022038ES0132955016150019PAGO DIVID./CUP            00000000000002008070220080704        2008070400000000025787312900000010000001                        2008063020080701MS20080702F000000030
X022038ES0161560018150000PAGO DIVID./CUP            00000000000002008070820080710        2008071000000000002132000000000010000001                        2008062520080626AS20080708F000000065
X022038ES0168561019100002AB.PRIMA EMISI.            00000000000002008070420080708        2008070800000000000800000000000010000001                        2008063020080701MS20080704F000000075
X022038ES0155151014150007PAGO DIVID./CUP            00000000000002008070220080704199101012008070400000000000467455900000010000001                        20080701        AN         00000
X020232ANN8133W8671310000SUSCRIPCION                000000000000020080626200807022008070720080707000000000000000000000000100000010108                    20080702        AN         00000
X020232ANN8133W8754310000SUSCRIPCION                000000000000020080626200807022008070720080707000000000000000000000000100000010108                    20080702        AN         00000
X020232ANN8133W8838310000SUSCRIPCION                000000000000020080626200807022008070720080707000000000000000000000000100000010108                    20080702        AN         00000
X020232ES0112466034310000SUSCRIPCION                000000000000020080702200807022008073120080731000000000000000000000000100000010182                    20080702        AN         00000
X020232ES0116385032310000SUSCRIPCION                000000000000020080702200807022008073120080731000000000000000000000000100000010182                    20080702        AN         00000
X020232ES0132105018150011PAGO DIVID./CUP            00000000000002008070420080708        2008070800000000001230000000000010000001                        2008061220080702MS20080704F000000030
X020232ES0158861031310000SUSCRIPCION                000000000000020080702200807022008073120080731000000000000000000000000100000010182                    20080702        AN         00000
X020232ES0307779001150002PAGO DIVID./CUP            00000000000002008070420080708        2008070800000000746200000000000010000001                        20080702        AS20080704F000000049
X020232ES0662292913170000CIERRE DERECHOS            000000000000020080709                2008071600000000000000000000000010000001                        20080620        AN         00000
X022038ANN8133W8671310000SUSCRIPCION                000000000000020080626200807022008070720080707000000000000000000000000100000010108                    20080702        AN         00000
X022038ANN8133W8754310000SUSCRIPCION                000000000000020080626200807022008070720080707000000000000000000000000100000010108                    20080702        AN         00000
X022038ANN8133W8838310000SUSCRIPCION                000000000000020080626200807022008070720080707000000000000000000000000100000010108                    20080702        AN         00000
X022038ES0112466034310000SUSCRIPCION                000000000000020080702200807022008073120080731000000000000000000000000100000010182                    20080702        AN         00000
X022038ES0116385032310000SUSCRIPCION                000000000000020080702200807022008073120080731000000000000000000000000100000010182                    20080702        AN         00000
X022038ES0132105018150011PAGO DIVID./CUP            00000000000002008070420080708        2008070800000000001230000000000010000001                        2008061220080702MS20080704F000000030
X022038ES0158861031310000SUSCRIPCION                000000000000020080702200807022008073120080731000000000000000000000000100000010182                    20080702        AN         00000
X022038ES0307779001150002PAGO DIVID./CUP            00000000000002008070420080708        2008070800000000746200000000000010000001                        20080702        AS20080704F000000049
X022038ES0662292913170000CIERRE DERECHOS            000000000000020080709                2008071600000000000000000000000010000001                        20080620        AN         00000
X022038ES0117360117150008PAGO DIVID./CUP            00000000000002008070820080710199101012008071000000000001312000000000010000001                        20080702        AN         00000
X022038ES0117360117150009PAGO DIVID./CUP            00000000000002008070820080710199101012008071000000000000246000000000010000001                        20080702        AN         00000
X022038ES0126761032310001SUSCRIPCION                000000000000020080702200807022008070420080704000000000000000000000000100000014                       20080702        AN         00000
X022038ES0162064036310001SUSCRIPCION                000000000000020080702200807022008070420080704000000000000000000000000100000014                       20080702        AN         00000
X022038ES0183088030310001SUSCRIPCION                000000000000020080702200807022008070420080704000000000000000000000000100000014                       2008070220080702AN         00000
X020232ES0110628031310000SUSCRIPCION                000000000000020080703200807032008073120080731000000000000000000000000100000010128                    20080703        AN         00000
X020232ES0113211835150040PAGO DIVID./CUP            00000000000002008071020080714        2008071400000000001369400000000010000001                        20080630        AS20080710F000000182
X020232ES0118476037310000SUSCRIPCION                000000000000020080703200807032008073120080731000000000000000000000000100000010128                    20080703        AN         00000
X020232ES0124244G32230000EQUIPARACION   ES0124244E34000000000000020080707                2008070700000000000000000000000010000001                        20080703        AN         00000
X020232ES0134950H34230000EQUIPARACION   ES0134950F36000000000000020080707                2008070700000000000000000000000010000001                        20080703        AN         00000
X020232ES0148224118110000GENER. DERECHOSES064822490700000000000002008070420080708        2008070800000000000000000000000010000001                        20080703        AN         00000
X020232ES0164823033310000SUSCRIPCION                000000000000020080703200807032008073120080731000000000000000000000000100000010128                    20080703        AN         00000
X020232ES0170884714310000SUSCRIPCION                000000000000020080703200807032008071520080715000000000000000000000000100000016                       20080703        AN         00000
X020232ES0173516115150017PAGO DIVID./CUP            00000000000002008070920080711        2008071100000000004100000000000010000001                        20080703        AN         00000
X020232ES0174184038310000SUSCRIPCION                000000000000020080703200807032008073120080731000000000000000000000000100000010182                    20080703        AN         00000
X020232ES0175488032310000SUSCRIPCION                000000000000020080703200807032008073120080731000000000000000000000000100000010182                    20080703        AN         00000
X020232ES0180850416150002PAGO DIVID./CUP            00000000000002008071020080714        2008071400000000000369000000000010000001                        2008070120080703AS20080710F000000182
X020232ES0182870214150035PAGO DIVID./CUP            00000000000002008071020080714        2008071400000000001230000000000010000001                        20080623        AN         00000
X020232NL0006313397240000AMORT UNICA/ULT            00000000000002008070120080703        2008070700000000000000000000000010000001                        20080703        AN         00000
X020232NL0006313405240000AMORT UNICA/ULT            00000000000002008070120080703        2008070700000000000000000000000010000001                        20080703        AN         00000
X020232NL0006313413240000AMORT UNICA/ULT            00000000000002008070120080703        2008070700000000000000000000000010000001                        20080703        AN         00000
X020232NL0006313421240000AMORT UNICA/ULT            00000000000002008070120080703        2008070700000000000000000000000010000001                        20080703        AN         00000
X020232NL0006313439240000AMORT UNICA/ULT            00000000000002008070120080703        2008070700000000000000000000000010000001                        20080703        AN         00000
X020232NL0006313447240000AMORT UNICA/ULT            00000000000002008070120080703        2008070700000000000000000000000010000001                        20080703        AN         00000
X020232NL0006313454240000AMORT UNICA/ULT            00000000000002008070120080703        2008070700000000000000000000000010000001                        20080703        AN         00000
X020232NL0006313561240000AMORT UNICA/ULT            00000000000002008070120080703        2008070700000000000000000000000010000001                        20080703        AN         00000
X020232NL0006313579240000AMORT UNICA/ULT            00000000000002008070120080703        2008070700000000000000000000000010000001                        20080703        AN         00000
X020232NL0006313587240000AMORT UNICA/ULT            00000000000002008070120080703        2008070700000000000000000000000010000001                        20080703        AN         00000
X022038ES0110628031310000SUSCRIPCION                000000000000020080703200807032008073120080731000000000000000000000000100000010128                    20080703        AN         00000
X022038ES0113211835150040PAGO DIVID./CUP            00000000000002008071020080714        2008071400000000001369400000000010000001                        20080630        AS20080710F000000182
X022038ES0118476037310000SUSCRIPCION                000000000000020080703200807032008073120080731000000000000000000000000100000010128                    20080703        AN         00000
X022038ES0124244G32230000EQUIPARACION   ES0124244E34000000000000020080707                2008070700000000000000000000000010000001                        20080703        AN         00000
X022038ES0134950H34230000EQUIPARACION   ES0134950F36000000000000020080707                2008070700000000000000000000000010000001                        20080703        AN         00000
X022038ES0148224118110000GENER. DERECHOSES064822490700000000000002008070420080708        2008070800000000000000000000000010000001                        20080703        AN         00000
X022038ES0164823033310000SUSCRIPCION                000000000000020080703200807032008073120080731000000000000000000000000100000010128                    20080703        AN         00000
X022038ES0170884714310000SUSCRIPCION                000000000000020080703200807032008071520080715000000000000000000000000100000016                       20080703        AN         00000
X022038ES0173516115150017PAGO DIVID./CUP            00000000000002008070920080711        2008071100000000004100000000000010000001                        20080703        AN         00000
X022038ES0174184038310000SUSCRIPCION                000000000000020080703200807032008073120080731000000000000000000000000100000010182                    20080703        AN         00000
X022038ES0175488032310000SUSCRIPCION                000000000000020080703200807032008073120080731000000000000000000000000100000010182                    20080703        AN         00000
X022038ES0180850416150002PAGO DIVID./CUP            00000000000002008071020080714        2008071400000000000369000000000010000001                        2008070120080703AS20080710F000000182
X022038ES0182870214150035PAGO DIVID./CUP            00000000000002008071020080714        2008071400000000001230000000000010000001                        20080623        AN         00000
X022038NL0006313397240000AMORT UNICA/ULT            00000000000002008070120080703        2008070700000000000000000000000010000001                        20080703        AN         00000
X022038NL0006313405240000AMORT UNICA/ULT            00000000000002008070120080703        2008070700000000000000000000000010000001                        20080703        AN         00000
X022038NL0006313413240000AMORT UNICA/ULT            00000000000002008070120080703        2008070700000000000000000000000010000001                        20080703        AN         00000
X022038NL0006313421240000AMORT UNICA/ULT            00000000000002008070120080703        2008070700000000000000000000000010000001                        20080703        AN         00000
X022038NL0006313439240000AMORT UNICA/ULT            00000000000002008070120080703        2008070700000000000000000000000010000001                        20080703        AN         00000
X022038NL0006313447240000AMORT UNICA/ULT            00000000000002008070120080703        2008070700000000000000000000000010000001                        20080703        AN         00000
X022038NL0006313454240000AMORT UNICA/ULT            00000000000002008070120080703        2008070700000000000000000000000010000001                        20080703        AN         00000
X022038NL0006313561240000AMORT UNICA/ULT            00000000000002008070120080703        2008070700000000000000000000000010000001                        20080703        AN         00000
X022038NL0006313579240000AMORT UNICA/ULT            00000000000002008070120080703        2008070700000000000000000000000010000001                        20080703        AN         00000
X022038NL0006313587240000AMORT UNICA/ULT            00000000000002008070120080703        2008070700000000000000000000000010000001                        20080703        AN         00000
X020232ES0113790531150012PAGO DIVID./CUP            00000000000002008071120080715        2008071500000000001025000000000010000001                        20080630        AS20080711F000000075
X020232ES0118594417150009PAGO DIVID./CUP            00000000000002008070820080710        2008071000000000004100000000000010000001                        2008063020080704MS20080708F000002038
X020232ES0121501318180001CERTIF.POSICION            00000000000002008070820080710        2008071000000000000000000000000010000001                        20080704        AN         00000
X020232ES0122060314380000A.VOLUN/AUTOCAR            000000000000020080704200807042008071520080715000000000000000000000000100000010182                    20080704        AN         00000
X020232ES0132580319150017PAGO DIVID./CUP            00000000000002008070720080709        2008070900000000005740000000000010000001                        2008070120080704MS20080707F000000049
X020232ES0156451033310000SUSCRIPCION                000000000000020080619200806192008073020080730000000000000000000000000100000010128                    2008061920080704MN         00000
X020232ES0182870214150035PAGO DIVID./CUP            00000000000002008071020080714        2008071400000000001230000000000010000001                        2008062320080704MS20080710F000000049
X022038ES0113790531150012PAGO DIVID./CUP            00000000000002008071120080715        2008071500000000001025000000000010000001                        20080630        AS20080711F000000075
X022038ES0118594417150009PAGO DIVID./CUP            00000000000002008070820080710        2008071000000000004100000000000010000001                        2008063020080704MS20080708F000002038
X022038ES0121501318180001CERTIF.POSICION            00000000000002008070820080710        2008071000000000000000000000000010000001                        20080704        AN         00000
X022038ES0122060314380000A.VOLUN/AUTOCAR            000000000000020080704200807042008071520080715000000000000000000000000100000010182                    20080704        AN         00000
X022038ES0132580319150017PAGO DIVID./CUP            00000000000002008070720080709        2008070900000000005740000000000010000001                        2008070120080704MS20080707F000000049
X022038ES0156451033310000SUSCRIPCION                000000000000020080619200806192008073020080730000000000000000000000000100000010128                    2008061920080704MN         00000
X022038ES0182870214150035PAGO DIVID./CUP            00000000000002008071020080714        2008071400000000001230000000000010000001                        2008062320080704MS20080710F000000049
X022038ES0167187030250001EXCL. DE A.C.              00000000000002008070419910101199101012008071000000000000000000000000010000001                        20080704        AN         00000
X022038ES0182027039380001A.VOLUN/AUTOCAR            000000000000020080704200807042008071020080710000000000000000000000000100000010144                    20080704        AN         00000
X022038ES0182827032150001PAGO DIVID./CUP            00000000000002008071020080714199101012008071400000000004100000000000010000001                        20080704        AN         00000
X020232DE000DB2EES5310000SUSCRIPCION                000000000000020080707200807072008070820080708000000000000000000000000100000016                       20080707        AN         00000
X020232ES0126962010110000GENER. DERECHOSES062696294000000000000002008070820080710        2008071000000000000000000000000010000001                        20080707        AN         00000
X020232ES0168632018150001PAGO DIVID./CUP            00000000000002008071420080716        2008071600000000002167439900000010000001                        2008062420080625AS20080714F000000182
X020232ES0173516115150017PAGO DIVID./CUP            00000000000002008070920080711        2008071100000000004100000000000010000001                        2008070320080707MS20080709F000000182
X020232ES0175438235150023PAGO DIVID./CUP            00000000000002008071420080716        2008071600000000001483957200000010000001                        20080707        AN         00000
X022038DE000DB2EES5310000SUSCRIPCION                000000000000020080707200807072008070820080708000000000000000000000000100000016                       20080707        AN         00000
X022038ES0126962010110000GENER. DERECHOSES062696294000000000000002008070820080710        2008071000000000000000000000000010000001                        20080707        AN         00000
X022038ES0168632018150001PAGO DIVID./CUP            00000000000002008071420080716        2008071600000000002167439900000010000001                        2008062420080625AS20080714F000000182
X022038ES0173516115150017PAGO DIVID./CUP            00000000000002008070920080711        2008071100000000004100000000000010000001                        2008070320080707MS20080709F000000182
X022038ES0175438235150023PAGO DIVID./CUP            00000000000002008071420080716        2008071600000000001483957200000010000001                        20080707        AN         00000
X022038ES0181222011150031PAGO DIVID./CUP            00000000000002008071420080716199101012008071600000000065600000000000010000001                        20080707        AN         00000
X022038ES0125690513150004PAGO DIVID./CUP            00000000000002008071520080717199101012008071700000000000377200000000010000001                        2008070820080708AN         00000
X022038ES0155734033150011PAGO DIVID./CUP            00000000000002008071520080717199101012008071700000000000303400000000010000001                        2008070820080708AN         00000
X020232ES0107511018150017PAGO DIVID./CUP            00000000000002008071520080717        2008071700000000006150000000000010000001                        2008063020080701AS20080715F000000075
X020232ES0115002018150009PAGO DIVID./CUP            00000000000002008071520080717        2008071700000000001394000000000010000001                        20080701        AS20080715F000000075
X020232ES0132945017150010PAGO DIVID./CUP            00000000000002008071520080717        2008071700000000001240750500000010000001                        2008062620080708AS20080715F000000049
X020232ES0155951033150001PAGO DIVID./CUP            00000000000002008071520080717        2008071700000000003329349900000010000001                        20080708        AN         00000
X020232ES0158476038150000PAGO DIVID./CUP            00000000000002008071020080714        2008071400000000008200000000000010000001                        20080708        AS20080710F000000144
X020232ES0158480311150008PAGO DIVID./CUP            00000000000002008071520080717        2008071700000000002000000000000010000001                        2008070120080703AS20080715F000000182
X020232ES0175438235150023PAGO DIVID./CUP            00000000000002008071420080716        2008071600000000001483957200000010000001                        2008070720080708MS20080714F000000049
X020232ES0183746314150019PAGO DIVID./CUP            00000000000002008071520080717        2008071700000000001025369100000010000001                        2008063020080703AS20080715F000000182
X020232ES0184738039150001PAGO DIVID./CUP            00000000000002008070920080711        2008071100000000000505031200000010000001                        20080708        AS20080709F000000049
X020232ES0213469754150137PAGO DIVID./CUP            00000000000002008071520080717        2008071700000001139399879400000010000001                        20080703        AN         00000
X020232ES0213580022150014PAGO DIVID./CUP            00000000000002008071520080717        2008071700000000042932000000000010000001                        20080703        AS20080715F000000042
X020232ES0326962000110000GENER. DERECHOSES062696294000000000000002008070820080710        2008071000000000000000000000010000003028                        20080708        AN         00000
X022038ES0107511018150017PAGO DIVID./CUP            00000000000002008071520080717        2008071700000000006150000000000010000001                        2008063020080701AS20080715F000000075
X022038ES0115002018150009PAGO DIVID./CUP            00000000000002008071520080717        2008071700000000001394000000000010000001                        20080701        AS20080715F000000075
X022038ES0132945017150010PAGO DIVID./CUP            00000000000002008071520080717        2008071700000000001240750500000010000001                        2008062620080708AS20080715F000000049
X022038ES0155951033150001PAGO DIVID./CUP            00000000000002008071520080717        2008071700000000003329349900000010000001                        20080708        AN         00000
X022038ES0158476038150000PAGO DIVID./CUP            00000000000002008071020080714        2008071400000000008200000000000010000001                        20080708        AS20080710F000000144
X022038ES0158480311150008PAGO DIVID./CUP            00000000000002008071520080717        2008071700000000002000000000000010000001                        2008070120080703AS20080715F000000182
X022038ES0175438235150023PAGO DIVID./CUP            00000000000002008071420080716        2008071600000000001483957200000010000001                        2008070720080708MS20080714F000000049
X022038ES0183746314150019PAGO DIVID./CUP            00000000000002008071520080717        2008071700000000001025369100000010000001                        2008063020080703AS20080715F000000182
X022038ES0184738039150001PAGO DIVID./CUP            00000000000002008070920080711        2008071100000000000505031200000010000001                        20080708        AS20080709F000000049
X022038ES0213469754150137PAGO DIVID./CUP            00000000000002008071520080717        2008071700000001139399879400000010000001                        20080703        AN         00000
X022038ES0213580022150014PAGO DIVID./CUP            00000000000002008071520080717        2008071700000000042932000000000010000001                        20080703        AS20080715F000000042
X022038ES0326962000110000GENER. DERECHOSES062696294000000000000002008070820080710        2008071000000000000000000000010000003028                        20080708        AN         00000
X020232DE000CB3BTH1310000SUSCRIPCION                000000000000020080704200807092008071420080714000000000000000000000000100000014                       20080709        AN         00000
X020232DE000CB3BTJ7310000SUSCRIPCION                000000000000020080704200807092008071420080714000000000000000000000000100000014                       20080709        AN         00000
X020232DE000CB3BTQ2310000SUSCRIPCION                000000000000020080704200807092008071420080714000000000000000000000000100000014                       20080709        AN         00000
X020232DE000CB3BTR0310000SUSCRIPCION                000000000000020080704200807092008071420080714000000000000000000000000100000014                       20080709        AN         00000
X020232DE000CB3BTS8310000SUSCRIPCION                000000000000020080704200807092008071420080714000000000000000000000000100000014                       20080709        AN         00000
X020232DE000CB3BTT6310000SUSCRIPCION                000000000000020080704200807092008071420080714000000000000000000000000100000014                       20080709        AN         00000
X020232DE000CB3BTV2310000SUSCRIPCION                000000000000020080704200807092008071420080714000000000000000000000000100000014                       20080709        AN         00000
X020232DE000CB3BTW0310000SUSCRIPCION                000000000000020080704200807092008071420080714000000000000000000000000100000014                       20080709        AN         00000
X020232DE000CB3BTY6310000SUSCRIPCION                000000000000020080704200807092008071420080714000000000000000000000000100000014                       20080709        AN         00000
X020232DE000CB3BTZ3310000SUSCRIPCION                000000000000020080704200807092008071420080714000000000000000000000000100000014                       20080709        AN         00000
