500016354     20110120SIMUANUPOS     00S008311DEDividendo en efectivo                             000001874US6934751057PNC FINANCIAL SERVICES        NYS       USDRV                    000000000                                                     02320301100002606655        000000000802482             MADRID BOLSA NEW YORK,FIM               0000000000120000000000000000000000600000201101110000000000000000000000000000000001000000000USD00000000001000000000000000000001200000150000000000000000001800000000000000010200001615000000000000000019380000000000000082622011012420110124        INVERSIS CB NEW YORK                                             000000000                                                    20110124                        00000000000000000000000000000000000000000000000000000000000000000000000000000000000000000000000000000000000DE            0000000000000000000000                                                                                                                                                                                                                                                                                                                                                                                           000OB000000002T                                                                                                                                                                                                                                                                                                                                                                                                                                                                                                                                                                                                                                                                                                                                                                                                                                                                                                                                                                                                                                                                                                                                                                                                                                                                                                                                                                                                                                                                                                                                                                                                                                                                                                                                                                                                                                                                                                                                                                                                                                                                                                                                                                                                                                                                                                                                                                                                                                                                                                                                                                                                                                                                                                                                                                                                                                 
500016354     20110120SIMUANUPOS     00S008081DEDividendo en efectivo                             000002902US3696041033GENERAL ELECTRIC              NYS       USDRV                    000000000                                                     02320301100002606391        000000000802481             PLUSMADRID GLOBAL,FIM (ANTES M.DIVISA.) 0000000003751000000000000000000000600160201012210000000000000000000000000000000001000000000USD00000000001400000000000000000052514000150000000000000000078771000000000000446369001615000000000000000848100000000000003615592011012520110125        INVERSIS CB NEW YORK                                             000000000                                                    20110125                        00000000000000000000000000000000000000000000000000000000000000000000000000000000000000000000000000000000000DE            0000000000000000000000                                                                                                                                                                                                                                                                                                                                                                                           000OB000000002T                                                                                                                                                                                                                                                                                                                                                                                                                                                                                                                                                                                                                                                                                                                                                                                                                                                                                                                                                                                                                                                                                                                                                                                                                                                                                                                                                                                                                                                                                                                                                                                                                                                                                                                                                                                                                                                                                                                                                                                                                                                                                                                                                                                                                                                                                                                                                                                                                                                                                                                                                                                                                                                                                                                                                                                                                                 
500016354     20110120SIMUANUPOS     00S008081DEDividendo en efectivo                             000002902US3696041033GENERAL ELECTRIC              NYS       USDRV                    000000000                                                     02320301100002606655        000000000802482             MADRID BOLSA NEW YORK,FIM               0000000004016800000000000000000000642688201012210000000000000000000000000000000001000000000USD00000000001400000000000000000056235200150000000000000000084353000000000000477999001615000000000000000908200000000000003871792011012520110125        INVERSIS CB NEW YORK                                             000000000                                                    20110125                        00000000000000000000000000000000000000000000000000000000000000000000000000000000000000000000000000000000000DE            0000000000000000000000                                                                                                                                                                                                                                                                                                                                                                                           000OB000000002T                                                                                                                                                                                                                                                                                                                                                                                                                                                                                                                                                                                                                                                                                                                                                                                                                                                                                                                                                                                                                                                                                                                                                                                                                                                                                                                                                                                                                                                                                                                                                                                                                                                                                                                                                                                                                                                                                                                                                                                                                                                                                                                                                                                                                                                                                                                                                                                                                                                                                                                                                                                                                                                                                                                                                                                                                                 
500016354     20110120SIMUANUPOS     00S008081DEDividendo en efectivo                             000002902US3696041033GENERAL ELECTRIC              NYS       USDRV                    000000000                                                     02320301100002599058        000000000802689             CAJA MADRID BOLSA GLOBAL FI             0000000004564900000000000000000000730384201012210000000000000000000000000000000001000000000USD00000000001400000000000000000063908600150000000000000000095863000000000000543223001614990000000000001032120000000000004400112011012520110125        INVERSIS CB NEW YORK                                             000000000                                                    20110125                        00000000000000000000000000000000000000000000000000000000000000000000000000000000000000000000000000000000000DE            0000000000000000000000                                                                                                                                                                                                                                                                                                                                                                                           000OB000000002T                                                                                                                                                                                                                                                                                                                                                                                                                                                                                                                                                                                                                                                                                                                                                                                                                                                                                                                                                                                                                                                                                                                                                                                                                                                                                                                                                                                                                                                                                                                                                                                                                                                                                                                                                                                                                                                                                                                                                                                                                                                                                                                                                                                                                                                                                                                                                                                                                                                                                                                                                                                                                                                                                                                                                                                                                                 
500016354     20110120SIMUANUPOS     00S008081DEDividendo en efectivo                             000002902US3696041033GENERAL ELECTRIC              NYS       USDRV                    000000000                                                     02320301100002055066        000000000802488             ALTAE / RESIDENTES EN ESPA베            0000000003838400000000000000000000614144201012210000000000000000000000000000000001000000000USD00000000001400000000000000000053737600149999000000000000080606000000000000456770001615000000000000000867860000000000003699842011012520110125        INVERSIS CB NEW YORK                                             000000000                                                    20110125                        00000000000000000000000000000000000000000000000000000000000000000000000000000000000000000000000000000000000DE            0000000000000000000000                                                                                                                                                                                                                                                                                                                                                                                           000OB000000002T                                                                                                                                                                                                                                                                                                                                                                                                                                                                                                                                                                                                                                                                                                                                                                                                                                                                                                                                                                                                                                                                                                                                                                                                                                                                                                                                                                                                                                                                                                                                                                                                                                                                                                                                                                                                                                                                                                                                                                                                                                                                                                                                                                                                                                                                                                                                                                                                                                                                                                                                                                                                                                                                                                                                                                                                                                 
500016354     20110120SIMUANUPOS     00S008081DEDividendo en efectivo                             000002902US3696041033GENERAL ELECTRIC              NYS       USDRV                    000000000                                                     02320301100002054763        000000000802485             CAJAMADRID / RESIDENTES EN ESPA베       0000000003664700000000000000000000586352201012210000000000000000000000000000000001000000000USD00000000001400000000000000000051305800150001000000000000076959000000000000436099001615000000000000000828590000000000003532402011012520110125        INVERSIS CB NEW YORK                                             000000000                                                    20110125                        00000000000000000000000000000000000000000000000000000000000000000000000000000000000000000000000000000000000DE            0000000000000000000000                                                                                                                                                                                                                                                                                                                                                                                           000OB000000002T                                                                                                                                                                                                                                                                                                                                                                                                                                                                                                                                                                                                                                                                                                                                                                                                                                                                                                                                                                                                                                                                                                                                                                                                                                                                                                                                                                                                                                                                                                                                                                                                                                                                                                                                                                                                                                                                                                                                                                                                                                                                                                                                                                                                                                                                                                                                                                                                                                                                                                                                                                                                                                                                                                                                                                                                                                 
500016354     20110120SIMUANUPOS     00S008106DEDividendo en efectivo                             000003772US0865161014BEST BUY                      NYS       USDRV                    000000000                                                     02320301100002054763        000000000802485             CAJAMADRID / RESIDENTES EN ESPA베       0000000000003100000000000000000000000310201012300000000000000000000000000000000001000000000USD00000000001500000000000000000000046500150538000000000000000070000000000000000395001612900000000000000000750000000000000003202011012520110125        INVERSIS CB NEW YORK                                             000000000                                                    20110125                        00000000000000000000000000000000000000000000000000000000000000000000000000000000000000000000000000000000000DE            0000000000000000000000                                                                                                                                                                                                                                                                                                                                                                                           000OB000000002T                                                                                                                                                                                                                                                                                                                                                                                                                                                                                                                                                                                                                                                                                                                                                                                                                                                                                                                                                                                                                                                                                                                                                                                                                                                                                                                                                                                                                                                                                                                                                                                                                                                                                                                                                                                                                                                                                                                                                                                                                                                                                                                                                                                                                                                                                                                                                                                                                                                                                                                                                                                                                                                                                                                                                                                                                                 
500016354     20110120SIMUANUPOS     00M663227DEDividendo en efectivo                             000008564DE0007500001THYSSENKRUPP                  XTR       EURRV                    000000000                                                     02320301100002055066        000000000802488             ALTAE / RESIDENTES EN ESPA베            0000000000005500000000000000000000005500201101210000000000000000000000000000000001000000000EUR00000000004500000000000000000000247500263838000000000000000653000000000000001822001397980000000000000003460000000000000014762011012420110124        INVERSIS CB FRANFURT                                             000000000                                                    20110124                        00000000000000000000000000000000000000000000000000000000000000000000000000000000000000000000000000000000000              0000000000000000000000                                                                                                                                                                                                                                                                                                                                                                                           000OB000000002T                                                                                                                                                                                                                                                                                                                                                                                                                                                                                                                                                                                                                                                                                                                                                                                                                                                                                                                                                                                                                                                                                                                                                                                                                                                                                                                                                                                                                                                                                                                                                                                                                                                                                                                                                                                                                                                                                                                                                                                                                                                                                                                                                                                                                                                                                                                                                                                                                                                                                                                                                                                                                                                                                                                                                                                                                                 
500016354     20110120SIMUANUPOS     00M663227DEDividendo en efectivo                             000008564DE0007500001THYSSENKRUPP                  XTR       EURRV                    000000000                                                     02320301100002054763        000000000802485             CAJAMADRID / RESIDENTES EN ESPA베       0000000000515600000000000000000000515600201101210000000000000000000000000000000001000000000EUR00000000004500000000000000000023202000263749000000000000061195000000000000170825001398890000000000000324570000000000001383682011012420110124        INVERSIS CB FRANFURT                                             000000000                                                    20110124                        00000000000000000000000000000000000000000000000000000000000000000000000000000000000000000000000000000000000              0000000000000000000000                                                                                                                                                                                                                                                                                                                                                                                           000OB000000002T                                                                                                                                                                                                                                                                                                                                                                                                                                                                                                                                                                                                                                                                                                                                                                                                                                                                                                                                                                                                                                                                                                                                                                                                                                                                                                                                                                                                                                                                                                                                                                                                                                                                                                                                                                                                                                                                                                                                                                                                                                                                                                                                                                                                                                                                                                                                                                                                                                                                                                                                                                                                                                                                                                                                                                                                                                 
500016354     20110120SIMUANUPOS     00S007872DEDividendo en efectivo                             000008700DE0007236101SIEMENS                       XTR       EURRV                    000000000                                                     02320301100002595604        000000000802615             CAJA MADRID E.P.S.V.                    0000000000088800000000000000000000088800201101250000000000000000000000000000000001000000000EUR00000000027000000000000000000023976000263751000000000000063237000000000000176523001398860000000000000335390000000000001429842011012620110126        INVERSIS CB FRANFURT                                             000000000                                                    20110126                        00000000000000000000000000000000000000000000000000000000000000000000000000000000000000000000000000000000000DE            0000000000000000000000                                                                                                                                                                                                                                                                                                                                                                                           000OB000000002T                                                                                                                                                                                                                                                                                                                                                                                                                                                                                                                                                                                                                                                                                                                                                                                                                                                                                                                                                                                                                                                                                                                                                                                                                                                                                                                                                                                                                                                                                                                                                                                                                                                                                                                                                                                                                                                                                                                                                                                                                                                                                                                                                                                                                                                                                                                                                                                                                                                                                                                                                                                                                                                                                                                                                                                                                                 
500016354     20110120SIMUANUPOS     00S007872DEDividendo en efectivo                             000008700DE0007236101SIEMENS                       XTR       EURRV                    000000000                                                     02320100800002488028        000000000802484             CAJAMADRID CARTERA PROPIA               0000000006500000000000000000000006500000201101250000000000000000000000000000000001000000000EUR00000000027000000000000000001755000000263750000000000004628813000000000012921187001398880000000000024550260000000000104661612011012620110126        INVERSIS CB FRANFURT                                             000000000                                                    20110126                        00000000000000000000000000000000000000000000000000000000000000000000000000000000000000000000000000000000000DE            0000000000000000000000                                                                                                                                                                                                                                                                                                                                                                                           000OB000000002T                                                                                                                                                                                                                                                                                                                                                                                                                                                                                                                                                                                                                                                                                                                                                                                                                                                                                                                                                                                                                                                                                                                                                                                                                                                                                                                                                                                                                                                                                                                                                                                                                                                                                                                                                                                                                                                                                                                                                                                                                                                                                                                                                                                                                                                                                                                                                                                                                                                                                                                                                                                                                                                                                                                                                                                                                                 
500016354     20110120SIMUANUPOS     00S007872DEDividendo en efectivo                             000008700DE0007236101SIEMENS                       XTR       EURRV                    000000000                                                     02320301100002055066        000000000802488             ALTAE / RESIDENTES EN ESPA베            0000000000249200000000000000000000249200201101250000000000000000000000000000000001000000000EUR00000000027000000000000000000067284000263751000000000000177462000000000000495378001398880000000000000941220000000000004012562011012620110126        INVERSIS CB FRANFURT                                             000000000                                                    20110126                        00000000000000000000000000000000000000000000000000000000000000000000000000000000000000000000000000000000000DE            0000000000000000000000                                                                                                                                                                                                                                                                                                                                                                                           000OB000000002T                                                                                                                                                                                                                                                                                                                                                                                                                                                                                                                                                                                                                                                                                                                                                                                                                                                                                                                                                                                                                                                                                                                                                                                                                                                                                                                                                                                                                                                                                                                                                                                                                                                                                                                                                                                                                                                                                                                                                                                                                                                                                                                                                                                                                                                                                                                                                                                                                                                                                                                                                                                                                                                                                                                                                                                                                                 
500016354     20110120SIMUANUPOS     00S007872DEDividendo en efectivo                             000008700DE0007236101SIEMENS                       XTR       EURRV                    000000000                                                     02320301100002054860        000000000802820             CAJAMADRID / RESIDENTES EN PAISES 1,2,3 0000000000046800000000000000000000046800201101250000000000000000000000000000000001000000000EUR00000000027000000000000000000012636000263746000000000000033327000000000000093033001398860000000000000176760000000000000753572011012620110126        INVERSIS CB FRANFURT                                             000000000                                                    20110126                        00000000000000000000000000000000000000000000000000000000000000000000000000000000000000000000000000000000000DE            0000000000000000000000                                                                                                                                                                                                                                                                                                                                                                                           000OB000000002T                                                                                                                                                                                                                                                                                                                                                                                                                                                                                                                                                                                                                                                                                                                                                                                                                                                                                                                                                                                                                                                                                                                                                                                                                                                                                                                                                                                                                                                                                                                                                                                                                                                                                                                                                                                                                                                                                                                                                                                                                                                                                                                                                                                                                                                                                                                                                                                                                                                                                                                                                                                                                                                                                                                                                                                                                                 
500016354     20110120SIMUANUPOS     00S007872DEDividendo en efectivo                             000008700DE0007236101SIEMENS                       XTR       EURRV                    000000000                                                     02320301100002054763        000000000802485             CAJAMADRID / RESIDENTES EN ESPA베       0000000001971100000000000000000001971100201101250000000000000000000000000000000001000000000EUR00000000027000000000000000000532197000263750000000000001403670000000000003918300001398870000000000007444770000000000031738232011012620110126        INVERSIS CB FRANFURT                                             000000000                                                    20110126                        00000000000000000000000000000000000000000000000000000000000000000000000000000000000000000000000000000000000DE            0000000000000000000000                                                                                                                                                                                                                                                                                                                                                                                           000OB000000002T                                                                                                                                                                                                                                                                                                                                                                                                                                                                                                                                                                                                                                                                                                                                                                                                                                                                                                                                                                                                                                                                                                                                                                                                                                                                                                                                                                                                                                                                                                                                                                                                                                                                                                                                                                                                                                                                                                                                                                                                                                                                                                                                                                                                                                                                                                                                                                                                                                                                                                                                                                                                                                                                                                                                                                                                                                 
500016354     20110120SIMUANUPOS     000000CUP  PAGO DE CUPON                                     000013676DE0009190702PREF POPULAR CAP 6            RFEOC     EURRF                    000000000                                                     02320301100002495827        000000000802201             RF ALTAE - PERSONAS JURIDICAS           0000000000183200000000000000000183200000        0000000000000000000000000000000001000000000EUR0000000015123286030000000000027705860000000000000000000000000000000000000277058600000000000000000000000000000000000002770586201101202011012020110120INVERSIS CB EUROCLEAR                                            000000000                                                                                    00000000000000000000000000000000000000000000000000000000000000000000000000000000000000000000000000000000000              0000000000000000000000                                                                                                                                                                                                                                                                                                                                                                                           000  000000002                                                                                                                                                                                                                                                                                                                                                                                                                                                                                                                                                                                                                                                                                                                                                                                                                                                                                                                                                                                                                                                                                                                                                                                                                                                                                                                                                                                                                                                                                                                                                                                                                                                                                                                                                                                                                                                                                                                                                                                                                                                                                                                                                                                                                                                                                                                                                                                                                                                                                                                                                                                                                                                                                                                                                                                                                                  
500016354     20110120SIMUANUPOS     000000CUP  PAGO DE CUPON                                     000013676DE0009190702PREF POPULAR CAP 6            RFEOC     EURRF                    000000000                                                     02320301100002497079        000000000802494             RF ALTAE PERSONAS FISICAS RESIDENTES    0000000000952800000000000000000952800000        0000000000000000000000000000000001000000000EUR0000000015123287150000000000144094680000000000000000000000000000000000001440946800190000000000000002737799000000000011671669201101202011012020110120INVERSIS CB EUROCLEAR                                            000000000                                                                                    00000000000000000000000000000000000000000000000000000000000000000000000000000000000000000000000000000000000              0000000000000000000000                                                                                                                                                                                                                                                                                                                                                                                           000  000000002                                                                                                                                                                                                                                                                                                                                                                                                                                                                                                                                                                                                                                                                                                                                                                                                                                                                                                                                                                                                                                                                                                                                                                                                                                                                                                                                                                                                                                                                                                                                                                                                                                                                                                                                                                                                                                                                                                                                                                                                                                                                                                                                                                                                                                                                                                                                                                                                                                                                                                                                                                                                                                                                                                                                                                                                                                  
500016354     20110120SIMUANUPOS     000000CUP  PAGO DE CUPON                                     000013676DE0009190702PREF POPULAR CAP 6            RFEOC     EURRF                    000000000                                                     02320301110002497051        000000000802490             RF CAJAMADRID PERS FISICAS RESIDENTES   0000000000011500000000000000000011500000        0000000000000000000000000000000001000000000EUR0000000015123304350000000000001739180000000000000000000000000000000000000017391800189998000000000000033044000000000000140874201101202011012020110120INVERSIS CB EUROCLEAR                                            000000000                                                                                    00000000000000000000000000000000000000000000000000000000000000000000000000000000000000000000000000000000000              0000000000000000000000                                                                                                                                                                                                                                                                                                                                                                                           000  000000002                                                                                                                                                                                                                                                                                                                                                                                                                                                                                                                                                                                                                                                                                                                                                                                                                                                                                                                                                                                                                                                                                                                                                                                                                                                                                                                                                                                                                                                                                                                                                                                                                                                                                                                                                                                                                                                                                                                                                                                                                                                                                                                                                                                                                                                                                                                                                                                                                                                                                                                                                                                                                                                                                                                                                                                                                                  
500016354     20110120SIMUANUPOS     000000000                                                    000015201DE0001325017DEUDA ARGENTINA 11,75 200511  RFEOC     EURRF                    000000000                                                     02320301110002497051        000000000802490             RF CAJAMADRID PERS FISICAS RESIDENTES   0000000000000400000000000000000000400000        0000000000000000000000000000000001000000000EUR00000000000000000000000000000000000000000000000000000000000000000000000000000000000000000000000000000000000000000000000000002009052020090520        INVERSIS CB EUROCLEAR                                            000000000                                                                                    00000000000000000000000000000000000000000000000000000000000000000000000000000000000000000000000000000000000              0000000000000000000000                                                                                                                                                                                                                                                                                                                                                                                           000  000000002                                                                                                                                                                                                                                                                                                                                                                                                                                                                                                                                                                                                                                                                                                                                                                                                                                                                                                                                                                                                                                                                                                                                                                                                                                                                                                                                                                                                                                                                                                                                                                                                                                                                                                                                                                                                                                                                                                                                                                                                                                                                                                                                                                                                                                                                                                                                                                                                                                                                                                                                                                                                                                                                                                                                                                                                                                  
500016354     20110120SIMUANUPOS     000000000                                                    000015424ES0278430717TELEFONICA 0 COUPON           RFEOC     EURRF                    000000000                                                     02320301100002497079        000000000802494             RF ALTAE PERSONAS FISICAS RESIDENTES    0000000000049500000000000000000014875245        0000000000000000000000000000000001000000000EUR00000000000000000000000000000000000000000000000000000000000000000000000000000000000000000000000000000000000000000000000000002005122820051228        INVERSIS CB EUROCLEAR                                            000000000                                                                                    00000000000000000000000000000000000000000000000000000000000000000000000000000000000000000000000000000000000              0000000000000000000000                                                                                                                                                                                                                                                                                                                                                                                           000  000000002                                                                                                                                                                                                                                                                                                                                                                                                                                                                                                                                                                                                                                                                                                                                                                                                                                                                                                                                                                                                                                                                                                                                                                                                                                                                                                                                                                                                                                                                                                                                                                                                                                                                                                                                                                                                                                                                                                                                                                                                                                                                                                                                                                                                                                                                                                                                                                                                                                                                                                                                                                                                                                                                                                                                                                                                                                  
500016354     20110120SIMUANUPOS     000000000                                                    000015424ES0278430717TELEFONICA 0 COUPON           RFEOC     EURRF                    000000000                                                     02320301100002608200        000000000802641             MAPFRE VIDA                             0000000000015900000000000000000004778109        0000000000000000000000000000000001000000000EUR00000000000000000000000000000000000000000000000000000000000000000000000000000000000000000000000000000000000000000000000000002005122820051228        INVERSIS CB EUROCLEAR                                            000000000                                                                                    00000000000000000000000000000000000000000000000000000000000000000000000000000000000000000000000000000000000              0000000000000000000000                                                                                                                                                                                                                                                                                                                                                                                           000  000000002                                                                                                                                                                                                                                                                                                                                                                                                                                                                                                                                                                                                                                                                                                                                                                                                                                                                                                                                                                                                                                                                                                                                                                                                                                                                                                                                                                                                                                                                                                                                                                                                                                                                                                                                                                                                                                                                                                                                                                                                                                                                                                                                                                                                                                                                                                                                                                                                                                                                                                                                                                                                                                                                                                                                                                                                                                  
500016354     20110120SIMUANUPOS     000000000                                                    000015424ES0278430717TELEFONICA 0 COUPON           RFEOC     EURRF                    000000000                                                     02320301100002495812        000000000802200             RF CAJAMADRID- JURIDICAS RESIDENTES     0000000000583200000000000000000175257432        0000000000000000000000000000000001000000000EUR00000000000000000000000000000000000000000000000000000000000000000000000000000000000000000000000000000000000000000000000000002005122820051228        INVERSIS CB EUROCLEAR                                            000000000                                                                                    00000000000000000000000000000000000000000000000000000000000000000000000000000000000000000000000000000000000              0000000000000000000000                                                                                                                                                                                                                                                                                                                                                                                           000  000000002                                                                                                                                                                                                                                                                                                                                                                                                                                                                                                                                                                                                                                                                                                                                                                                                                                                                                                                                                                                                                                                                                                                                                                                                                                                                                                                                                                                                                                                                                                                                                                                                                                                                                                                                                                                                                                                                                                                                                                                                                                                                                                                                                                                                                                                                                                                                                                                                                                                                                                                                                                                                                                                                                                                                                                                                                                  
500016354     20110120SIMUANUPOS     000000000                                                    000015424ES0278430717TELEFONICA 0 COUPON           RFEOC     EURRF                    000000000                                                     02320301100002497079        000000000802494             RF ALTAE PERSONAS FISICAS RESIDENTES    0000000000049500000000000000000014875245        0000000000000000000000000000000001000000000EUR00000000000000000000000000000000000000000000000000000000000000000000000000000000000000000000000000000000000000000000000000002005122820051228        INVERSIS CB EUROCLEAR                                            000000000                                                                                    00000000000000000000000000000000000000000000000000000000000000000000000000000000000000000000000000000000000              0000000000000000000000                                                                                                                                                                                                                                                                                                                                                                                           000  000000002                                                                                                                                                                                                                                                                                                                                                                                                                                                                                                                                                                                                                                                                                                                                                                                                                                                                                                                                                                                                                                                                                                                                                                                                                                                                                                                                                                                                                                                                                                                                                                                                                                                                                                                                                                                                                                                                                                                                                                                                                                                                                                                                                                                                                                                                                                                                                                                                                                                                                                                                                                                                                                                                                                                                                                                                                                  
500016354     20110120SIMUANUPOS     000000000                                                    000015424ES0278430717TELEFONICA 0 COUPON           RFEOC     EURRF                    000000000                                                     02320301100002608200        000000000802641             MAPFRE VIDA                             0000000000015900000000000000000004778109        0000000000000000000000000000000001000000000EUR00000000000000000000000000000000000000000000000000000000000000000000000000000000000000000000000000000000000000000000000000002005122820051228        INVERSIS CB EUROCLEAR                                            000000000                                                                                    00000000000000000000000000000000000000000000000000000000000000000000000000000000000000000000000000000000000              0000000000000000000000                                                                                                                                                                                                                                                                                                                                                                                           000  000000002                                                                                                                                                                                                                                                                                                                                                                                                                                                                                                                                                                                                                                                                                                                                                                                                                                                                                                                                                                                                                                                                                                                                                                                                                                                                                                                                                                                                                                                                                                                                                                                                                                                                                                                                                                                                                                                                                                                                                                                                                                                                                                                                                                                                                                                                                                                                                                                                                                                                                                                                                                                                                                                                                                                                                                                                                                  
500016354     20110120SIMUANUPOS     000000000                                                    000015424ES0278430717TELEFONICA 0 COUPON           RFEOC     EURRF                    000000000                                                     02320301100002495812        000000000802200             RF CAJAMADRID- JURIDICAS RESIDENTES     0000000000583200000000000000000175257432        0000000000000000000000000000000001000000000EUR00000000000000000000000000000000000000000000000000000000000000000000000000000000000000000000000000000000000000000000000000002005122820051228        INVERSIS CB EUROCLEAR                                            000000000                                                                                    00000000000000000000000000000000000000000000000000000000000000000000000000000000000000000000000000000000000              0000000000000000000000                                                                                                                                                                                                                                                                                                                                                                                           000  000000002                                                                                                                                                                                                                                                                                                                                                                                                                                                                                                                                                                                                                                                                                                                                                                                                                                                                                                                                                                                                                                                                                                                                                                                                                                                                                                                                                                                                                                                                                                                                                                                                                                                                                                                                                                                                                                                                                                                                                                                                                                                                                                                                                                                                                                                                                                                                                                                                                                                                                                                                                                                                                                                                                                                                                                                                                                  
