500016354     20110126SIMUANUPOS     00S007945DEDividendo en efectivo                             000000734US9841211033XEROX CORPORATION             NYS       USDRV                    000000000                                                     02320301100002055066        000000000802488             ALTAE / RESIDENTES EN ESPA베            0000000000300000000000000000000000300000201012280000000000000000000000000000000001000000000USD00000000000425000000000000000001275000150039000000000000001913000000000000010837001614900000000000000020590000000000000087782011012820110128        INVERSIS CB NEW YORK                                             000000000                                                    20110128                        00000000000000000000000000000000000000000000000000000000000000000000000000000000000000000000000000000000000DE            0000000000000000000000                                                                                                                                                                                                                                                                                                                                                                                           000OB000000002T                                                                                                                                                                                                                                                                                                                                                                                                                                                                                                                                                                                                                                                                                                                                                                                                                                                                                                                                                                                                                                                                                                                                                                                                                                                                                                                                                                                                                                                                                                                                                                                                                                                                                                                                                                                                                                                                                                                                                                                                                                                                                                                                                                                                                                                                                                                                                                                                                                                                                                                                                                                                                                                                                                                                                                                                                                 
500016354     20110126SIMUANUPOS     00S008056DEDividendo en efectivo                             000001124US8636671013STRYKER                       NYS       USDRV                    000000000                                                     02320301100002054763        000000000802485             CAJAMADRID / RESIDENTES EN ESPA베       0000000000032000000000000000000000003200201012280000000000000000000000000000000001000000000USD00000000001800000000000000000000576000150000000000000000000864000000000000004896001614580000000000000009300000000000000039662011013120110131        INVERSIS CB NEW YORK                                             000000000                                                    20110131                        00000000000000000000000000000000000000000000000000000000000000000000000000000000000000000000000000000000000DE            0000000000000000000000                                                                                                                                                                                                                                                                                                                                                                                           000OB000000002T                                                                                                                                                                                                                                                                                                                                                                                                                                                                                                                                                                                                                                                                                                                                                                                                                                                                                                                                                                                                                                                                                                                                                                                                                                                                                                                                                                                                                                                                                                                                                                                                                                                                                                                                                                                                                                                                                                                                                                                                                                                                                                                                                                                                                                                                                                                                                                                                                                                                                                                                                                                                                                                                                                                                                                                                                                 
500016354     20110126SIMUANUPOS     00S008064DEDividendo en efectivo                             000002212US5850551061MEDTRONIC                     NYS       USDRV                    000000000                                                     02320301100002054763        000000000802485             CAJAMADRID / RESIDENTES EN ESPA베       0000000000015000000000000000000000001500201101040000000000000000000000000000000001000000000USD00000000002250000000000000000000337500149926000000000000000506000000000000002869001614810000000000000005450000000000000023242011012820110128        INVERSIS CB NEW YORK                                             000000000                                                    20110128                        00000000000000000000000000000000000000000000000000000000000000000000000000000000000000000000000000000000000DE            0000000000000000000000                                                                                                                                                                                                                                                                                                                                                                                           000OB000000002T                                                                                                                                                                                                                                                                                                                                                                                                                                                                                                                                                                                                                                                                                                                                                                                                                                                                                                                                                                                                                                                                                                                                                                                                                                                                                                                                                                                                                                                                                                                                                                                                                                                                                                                                                                                                                                                                                                                                                                                                                                                                                                                                                                                                                                                                                                                                                                                                                                                                                                                                                                                                                                                                                                                                                                                                                                 
500016354     20110126SIMUANUPOS     00S008064DEDividendo en efectivo                             000002212US5850551061MEDTRONIC                     NYS       USDRV                    000000000                                                     02320301100002606655        000000000802482             MADRID BOLSA NEW YORK,FIM               0000000000710000000000000000000000071000201101040000000000000000000000000000000001000000000USD00000000002250000000000000000015975000150003000000000000023963000000000000135787001615020000000000000258000000000000001099872011012820110128        INVERSIS CB NEW YORK                                             000000000                                                    20110128                        00000000000000000000000000000000000000000000000000000000000000000000000000000000000000000000000000000000000DE            0000000000000000000000                                                                                                                                                                                                                                                                                                                                                                                           000OB000000002T                                                                                                                                                                                                                                                                                                                                                                                                                                                                                                                                                                                                                                                                                                                                                                                                                                                                                                                                                                                                                                                                                                                                                                                                                                                                                                                                                                                                                                                                                                                                                                                                                                                                                                                                                                                                                                                                                                                                                                                                                                                                                                                                                                                                                                                                                                                                                                                                                                                                                                                                                                                                                                                                                                                                                                                                                                 
500016354     20110126SIMUANUPOS     00S008268DEDividendo en efectivo                             000002852US35671D8570FREEPORT MCMORAN COPPER & GOLDNYS       USDRV                    000000000                                                     02320301100002606655        000000000802482             MADRID BOLSA NEW YORK,FIM               0000000000045000000000000000000000004500201101110000000000000000000000000000000001000000000USD00000000005000000000000000000002250000150000000000000000003375000000000000019125001615110000000000000036340000000000000154912011020120110201        INVERSIS CB NEW YORK                                             000000000                                                    20110201                        00000000000000000000000000000000000000000000000000000000000000000000000000000000000000000000000000000000000DE            0000000000000000000000                                                                                                                                                                                                                                                                                                                                                                                           000OB000000002T                                                                                                                                                                                                                                                                                                                                                                                                                                                                                                                                                                                                                                                                                                                                                                                                                                                                                                                                                                                                                                                                                                                                                                                                                                                                                                                                                                                                                                                                                                                                                                                                                                                                                                                                                                                                                                                                                                                                                                                                                                                                                                                                                                                                                                                                                                                                                                                                                                                                                                                                                                                                                                                                                                                                                                                                                                 
500016354     20110126SIMUANUPOS     00S008268DEDividendo en efectivo                             000002852US35671D8570FREEPORT MCMORAN COPPER & GOLDNYS       USDRV                    000000000                                                     02320301100002055066        000000000802488             ALTAE / RESIDENTES EN ESPA베            0000000000017000000000000000000000001700201101110000000000000000000000000000000001000000000USD00000000005000000000000000000000850000150000000000000000001275000000000000007225001615290000000000000013730000000000000058522011020120110201        INVERSIS CB NEW YORK                                             000000000                                                    20110201                        00000000000000000000000000000000000000000000000000000000000000000000000000000000000000000000000000000000000DE            0000000000000000000000                                                                                                                                                                                                                                                                                                                                                                                           000OB000000002T                                                                                                                                                                                                                                                                                                                                                                                                                                                                                                                                                                                                                                                                                                                                                                                                                                                                                                                                                                                                                                                                                                                                                                                                                                                                                                                                                                                                                                                                                                                                                                                                                                                                                                                                                                                                                                                                                                                                                                                                                                                                                                                                                                                                                                                                                                                                                                                                                                                                                                                                                                                                                                                                                                                                                                                                                                 
500016354     20110126SIMUANUPOS     00S008081DEDividendo en efectivo                             000002902US3696041033GENERAL ELECTRIC              NYS       USDRV                    000000000                                                     02320301100002055066        000000000802488             ALTAE / RESIDENTES EN ESPA베            0000000003838400000000000000000000614144201012210000000000000000000000000000000001000000000USD00000000001400000000000000000053737600149999000000000000080606000000000000456770001615000000000000000867860000000000003699842011012520110125        INVERSIS CB NEW YORK                                             000000000                                                    20110125                        00000000000000000000000000000000000000000000000000000000000000000000000000000000000000000000000000000000000DE            0000000000000000000000                                                                                                                                                                                                                                                                                                                                                                                           000OB000000002T                                                                                                                                                                                                                                                                                                                                                                                                                                                                                                                                                                                                                                                                                                                                                                                                                                                                                                                                                                                                                                                                                                                                                                                                                                                                                                                                                                                                                                                                                                                                                                                                                                                                                                                                                                                                                                                                                                                                                                                                                                                                                                                                                                                                                                                                                                                                                                                                                                                                                                                                                                                                                                                                                                                                                                                                                                 
500016354     20110126SIMUANUPOS     00S008081DEDividendo en efectivo                             000002902US3696041033GENERAL ELECTRIC              NYS       USDRV                    000000000                                                     02320301100002606655        000000000802482             MADRID BOLSA NEW YORK,FIM               0000000004016800000000000000000000642688201012210000000000000000000000000000000001000000000USD00000000001400000000000000000056235200150000000000000000084353000000000000477999001615000000000000000908200000000000003871792011012520110125        INVERSIS CB NEW YORK                                             000000000                                                    20110125                        00000000000000000000000000000000000000000000000000000000000000000000000000000000000000000000000000000000000DE            0000000000000000000000                                                                                                                                                                                                                                                                                                                                                                                           000OB000000002T                                                                                                                                                                                                                                                                                                                                                                                                                                                                                                                                                                                                                                                                                                                                                                                                                                                                                                                                                                                                                                                                                                                                                                                                                                                                                                                                                                                                                                                                                                                                                                                                                                                                                                                                                                                                                                                                                                                                                                                                                                                                                                                                                                                                                                                                                                                                                                                                                                                                                                                                                                                                                                                                                                                                                                                                                                 
500016354     20110126SIMUANUPOS     00S008081DEDividendo en efectivo                             000002902US3696041033GENERAL ELECTRIC              NYS       USDRV                    000000000                                                     02320301100002599058        000000000802689             CAJA MADRID BOLSA GLOBAL FI             0000000004564900000000000000000000730384201012210000000000000000000000000000000001000000000USD00000000001400000000000000000063908600150000000000000000095863000000000000543223001614990000000000001032120000000000004400112011012520110125        INVERSIS CB NEW YORK                                             000000000                                                    20110125                        00000000000000000000000000000000000000000000000000000000000000000000000000000000000000000000000000000000000DE            0000000000000000000000                                                                                                                                                                                                                                                                                                                                                                                           000OB000000002T                                                                                                                                                                                                                                                                                                                                                                                                                                                                                                                                                                                                                                                                                                                                                                                                                                                                                                                                                                                                                                                                                                                                                                                                                                                                                                                                                                                                                                                                                                                                                                                                                                                                                                                                                                                                                                                                                                                                                                                                                                                                                                                                                                                                                                                                                                                                                                                                                                                                                                                                                                                                                                                                                                                                                                                                                                 
500016354     20110126SIMUANUPOS     00S008081DEDividendo en efectivo                             000002902US3696041033GENERAL ELECTRIC              NYS       USDRV                    000000000                                                     02320301100002054763        000000000802485             CAJAMADRID / RESIDENTES EN ESPA베       0000000003664700000000000000000000586352201012210000000000000000000000000000000001000000000USD00000000001400000000000000000051305800150001000000000000076959000000000000436099001615000000000000000828590000000000003532402011012520110125        INVERSIS CB NEW YORK                                             000000000                                                    20110125                        00000000000000000000000000000000000000000000000000000000000000000000000000000000000000000000000000000000000DE            0000000000000000000000                                                                                                                                                                                                                                                                                                                                                                                           000OB000000002T                                                                                                                                                                                                                                                                                                                                                                                                                                                                                                                                                                                                                                                                                                                                                                                                                                                                                                                                                                                                                                                                                                                                                                                                                                                                                                                                                                                                                                                                                                                                                                                                                                                                                                                                                                                                                                                                                                                                                                                                                                                                                                                                                                                                                                                                                                                                                                                                                                                                                                                                                                                                                                                                                                                                                                                                                                 
500016354     20110126SIMUANUPOS     00S008081DEDividendo en efectivo                             000002902US3696041033GENERAL ELECTRIC              NYS       USDRV                    000000000                                                     02320301100002606391        000000000802481             PLUSMADRID GLOBAL,FIM (ANTES M.DIVISA.) 0000000003751000000000000000000000600160201012210000000000000000000000000000000001000000000USD00000000001400000000000000000052514000150000000000000000078771000000000000446369001615000000000000000848100000000000003615592011012520110125        INVERSIS CB NEW YORK                                             000000000                                                    20110125                        00000000000000000000000000000000000000000000000000000000000000000000000000000000000000000000000000000000000DE            0000000000000000000000                                                                                                                                                                                                                                                                                                                                                                                           000OB000000002T                                                                                                                                                                                                                                                                                                                                                                                                                                                                                                                                                                                                                                                                                                                                                                                                                                                                                                                                                                                                                                                                                                                                                                                                                                                                                                                                                                                                                                                                                                                                                                                                                                                                                                                                                                                                                                                                                                                                                                                                                                                                                                                                                                                                                                                                                                                                                                                                                                                                                                                                                                                                                                                                                                                                                                                                                                 
500016354     20110126SIMUANUPOS     00S008090DEDividendo en efectivo                             000002908US3703341046GENERAL MILLS INC             NYS       USDRV                    000000000                                                     02320301100002055066        000000000802488             ALTAE / RESIDENTES EN ESPA베            0000000000040000000000000000000000030000201101050000000000000000000000000000000001000000000USD00000000002800000000000000000001120000150000000000000000001680000000000000009520001615180000000000000018090000000000000077112011020120110201        INVERSIS CB NEW YORK                                             000000000                                                    20110201                        00000000000000000000000000000000000000000000000000000000000000000000000000000000000000000000000000000000000DE            0000000000000000000000                                                                                                                                                                                                                                                                                                                                                                                           000OB000000002T                                                                                                                                                                                                                                                                                                                                                                                                                                                                                                                                                                                                                                                                                                                                                                                                                                                                                                                                                                                                                                                                                                                                                                                                                                                                                                                                                                                                                                                                                                                                                                                                                                                                                                                                                                                                                                                                                                                                                                                                                                                                                                                                                                                                                                                                                                                                                                                                                                                                                                                                                                                                                                                                                                                                                                                                                                 
500016354     20110126SIMUANUPOS     00S008061DEDividendo en efectivo                             000003236US2605431038DOW CHEMICAL                  NYS       USDRV                    000000000                                                     02320301100002606655        000000000802482             MADRID BOLSA NEW YORK,FIM               0000000000250000000000000000000000625000201012280000000000000000000000000000000001000000000USD00000000001500000000000000000003750000150000000000000000005625000000000000031875001614930000000000000060560000000000000258192011012820110128        INVERSIS CB NEW YORK                                             000000000                                                    20110128                        00000000000000000000000000000000000000000000000000000000000000000000000000000000000000000000000000000000000DE            0000000000000000000000                                                                                                                                                                                                                                                                                                                                                                                           000OB000000002T                                                                                                                                                                                                                                                                                                                                                                                                                                                                                                                                                                                                                                                                                                                                                                                                                                                                                                                                                                                                                                                                                                                                                                                                                                                                                                                                                                                                                                                                                                                                                                                                                                                                                                                                                                                                                                                                                                                                                                                                                                                                                                                                                                                                                                                                                                                                                                                                                                                                                                                                                                                                                                                                                                                                                                                                                                 
500016354     20110126SIMUANUPOS     00S008061DEDividendo en efectivo                             000003236US2605431038DOW CHEMICAL                  NYS       USDRV                    000000000                                                     02320301100002055066        000000000802488             ALTAE / RESIDENTES EN ESPA베            0000000000396000000000000000000000990000201012280000000000000000000000000000000001000000000USD00000000001500000000000000000005940000150000000000000000008910000000000000050490001614980000000000000095930000000000000408972011012820110128        INVERSIS CB NEW YORK                                             000000000                                                    20110128                        00000000000000000000000000000000000000000000000000000000000000000000000000000000000000000000000000000000000DE            0000000000000000000000                                                                                                                                                                                                                                                                                                                                                                                           000OB000000002T                                                                                                                                                                                                                                                                                                                                                                                                                                                                                                                                                                                                                                                                                                                                                                                                                                                                                                                                                                                                                                                                                                                                                                                                                                                                                                                                                                                                                                                                                                                                                                                                                                                                                                                                                                                                                                                                                                                                                                                                                                                                                                                                                                                                                                                                                                                                                                                                                                                                                                                                                                                                                                                                                                                                                                                                                                 
500016354     20110126SIMUANUPOS     00S008061DEDividendo en efectivo                             000003236US2605431038DOW CHEMICAL                  NYS       USDRV                    000000000                                                     02320301100002054763        000000000802485             CAJAMADRID / RESIDENTES EN ESPA베       0000000000029100000000000000000000072750201012280000000000000000000000000000000001000000000USD00000000001500000000000000000000436500150057000000000000000655000000000000003710001615120000000000000007050000000000000030052011012820110128        INVERSIS CB NEW YORK                                             000000000                                                    20110128                        00000000000000000000000000000000000000000000000000000000000000000000000000000000000000000000000000000000000DE            0000000000000000000000                                                                                                                                                                                                                                                                                                                                                                                           000OB000000002T                                                                                                                                                                                                                                                                                                                                                                                                                                                                                                                                                                                                                                                                                                                                                                                                                                                                                                                                                                                                                                                                                                                                                                                                                                                                                                                                                                                                                                                                                                                                                                                                                                                                                                                                                                                                                                                                                                                                                                                                                                                                                                                                                                                                                                                                                                                                                                                                                                                                                                                                                                                                                                                                                                                                                                                                                                 
500016354     20110126SIMUANUPOS     00S008002DEDividendo en efectivo                             000003266US2441991054DEERE AND CO                  NYS       USDRV                    000000000                                                     02320301100002606655        000000000802482             MADRID BOLSA NEW YORK,FIM               0000000000140000000000000000000000140000201012280000000000000000000000000000000001000000000USD00000000003500000000000000000004900000150000000000000000007350000000000000041650001615100000000000000079140000000000000337362011020120110201        INVERSIS CB NEW YORK                                             000000000                                                    20110201                        00000000000000000000000000000000000000000000000000000000000000000000000000000000000000000000000000000000000DE            0000000000000000000000                                                                                                                                                                                                                                                                                                                                                                                           000OB000000002T                                                                                                                                                                                                                                                                                                                                                                                                                                                                                                                                                                                                                                                                                                                                                                                                                                                                                                                                                                                                                                                                                                                                                                                                                                                                                                                                                                                                                                                                                                                                                                                                                                                                                                                                                                                                                                                                                                                                                                                                                                                                                                                                                                                                                                                                                                                                                                                                                                                                                                                                                                                                                                                                                                                                                                                                                                 
500016354     20110126SIMUANUPOS     00S008002DEDividendo en efectivo                             000003266US2441991054DEERE AND CO                  NYS       USDRV                    000000000                                                     02320301100002054763        000000000802485             CAJAMADRID / RESIDENTES EN ESPA베       0000000000200000000000000000000000200000201012280000000000000000000000000000000001000000000USD00000000003500000000000000000007000000150000000000000000010500000000000000059500001615000000000000000113050000000000000481952011020120110201        INVERSIS CB NEW YORK                                             000000000                                                    20110201                        00000000000000000000000000000000000000000000000000000000000000000000000000000000000000000000000000000000000DE            0000000000000000000000                                                                                                                                                                                                                                                                                                                                                                                           000OB000000002T                                                                                                                                                                                                                                                                                                                                                                                                                                                                                                                                                                                                                                                                                                                                                                                                                                                                                                                                                                                                                                                                                                                                                                                                                                                                                                                                                                                                                                                                                                                                                                                                                                                                                                                                                                                                                                                                                                                                                                                                                                                                                                                                                                                                                                                                                                                                                                                                                                                                                                                                                                                                                                                                                                                                                                                                                                 
500016354     20110126SIMUANUPOS     00M663247DEDividendo en efectivo                             000003360US2358511028DANAHER CORP                  NYS       USDRV                    000000000                                                     02320301100002054763        000000000802485             CAJAMADRID / RESIDENTES EN ESPA베       0000000000007000000000000000000000000070201012280000000000000000000000000000000001000000000USD00000000000200000000000000000000014000150000000000000000000021000000000000000119001642860000000000000000230000000000000000962011012820110128        INVERSIS CB NEW YORK                                             000000000                                                    20110128                        00000000000000000000000000000000000000000000000000000000000000000000000000000000000000000000000000000000000              0000000000000000000000                                                                                                                                                                                                                                                                                                                                                                                           000OB000000002T                                                                                                                                                                                                                                                                                                                                                                                                                                                                                                                                                                                                                                                                                                                                                                                                                                                                                                                                                                                                                                                                                                                                                                                                                                                                                                                                                                                                                                                                                                                                                                                                                                                                                                                                                                                                                                                                                                                                                                                                                                                                                                                                                                                                                                                                                                                                                                                                                                                                                                                                                                                                                                                                                                                                                                                                                                 
500016354     20110126SIMUANUPOS     00M663247DEDividendo en efectivo                             000003360US2358511028DANAHER CORP                  NYS       USDRV                    000000000                                                     02320301100002606655        000000000802482             MADRID BOLSA NEW YORK,FIM               0000000000240000000000000000000000002400201012280000000000000000000000000000000001000000000USD00000000000200000000000000000000480000150000000000000000000720000000000000004080001614580000000000000007750000000000000033052011012820110128        INVERSIS CB NEW YORK                                             000000000                                                    20110128                        00000000000000000000000000000000000000000000000000000000000000000000000000000000000000000000000000000000000              0000000000000000000000                                                                                                                                                                                                                                                                                                                                                                                           000OB000000002T                                                                                                                                                                                                                                                                                                                                                                                                                                                                                                                                                                                                                                                                                                                                                                                                                                                                                                                                                                                                                                                                                                                                                                                                                                                                                                                                                                                                                                                                                                                                                                                                                                                                                                                                                                                                                                                                                                                                                                                                                                                                                                                                                                                                                                                                                                                                                                                                                                                                                                                                                                                                                                                                                                                                                                                                                                 
500016354     20110126SIMUANUPOS     00S008086DEDividendo en efectivo                             000003560US46625H1005JP MORGAN CHASE CO            NYS       USDRV                    000000000                                                     02320301100002054763        000000000802485             CAJAMADRID / RESIDENTES EN ESPA베       0000000000119500000000000000000000119500201101030000000000000000000000000000000001000000000USD00000000000500000000000000000000597500149958000000000000000896000000000000005079001615060000000000000009650000000000000041142011013120110131        INVERSIS CB NEW YORK                                             000000000                                                    20110131                        00000000000000000000000000000000000000000000000000000000000000000000000000000000000000000000000000000000000DE            0000000000000000000000                                                                                                                                                                                                                                                                                                                                                                                           000OB000000002T                                                                                                                                                                                                                                                                                                                                                                                                                                                                                                                                                                                                                                                                                                                                                                                                                                                                                                                                                                                                                                                                                                                                                                                                                                                                                                                                                                                                                                                                                                                                                                                                                                                                                                                                                                                                                                                                                                                                                                                                                                                                                                                                                                                                                                                                                                                                                                                                                                                                                                                                                                                                                                                                                                                                                                                                                                 
500016354     20110126SIMUANUPOS     00S008086DEDividendo en efectivo                             000003560US46625H1005JP MORGAN CHASE CO            NYS       USDRV                    000000000                                                     02320301100002055066        000000000802488             ALTAE / RESIDENTES EN ESPA베            0000000000465100000000000000000000465100201101030000000000000000000000000000000001000000000USD00000000000500000000000000000002325500149989000000000000003488000000000000019767001615140000000000000037560000000000000160112011013120110131        INVERSIS CB NEW YORK                                             000000000                                                    20110131                        00000000000000000000000000000000000000000000000000000000000000000000000000000000000000000000000000000000000DE            0000000000000000000000                                                                                                                                                                                                                                                                                                                                                                                           000OB000000002T                                                                                                                                                                                                                                                                                                                                                                                                                                                                                                                                                                                                                                                                                                                                                                                                                                                                                                                                                                                                                                                                                                                                                                                                                                                                                                                                                                                                                                                                                                                                                                                                                                                                                                                                                                                                                                                                                                                                                                                                                                                                                                                                                                                                                                                                                                                                                                                                                                                                                                                                                                                                                                                                                                                                                                                                                                 
500016354     20110126SIMUANUPOS     00S008086DEDividendo en efectivo                             000003560US46625H1005JP MORGAN CHASE CO            NYS       USDRV                    000000000                                                     02320301100002594522        000000000802818             MADRID SECTOR FINANCIERO GLOBAL, FIM    0000000000205000000000000000000000205000201101030000000000000000000000000000000001000000000USD00000000000500000000000000000001025000150049000000000000001538000000000000008712001614630000000000000016550000000000000070572011013120110131        INVERSIS CB NEW YORK                                             000000000                                                    20110131                        00000000000000000000000000000000000000000000000000000000000000000000000000000000000000000000000000000000000DE            0000000000000000000000                                                                                                                                                                                                                                                                                                                                                                                           000OB000000002T                                                                                                                                                                                                                                                                                                                                                                                                                                                                                                                                                                                                                                                                                                                                                                                                                                                                                                                                                                                                                                                                                                                                                                                                                                                                                                                                                                                                                                                                                                                                                                                                                                                                                                                                                                                                                                                                                                                                                                                                                                                                                                                                                                                                                                                                                                                                                                                                                                                                                                                                                                                                                                                                                                                                                                                                                                 
500016354     20110126SIMUANUPOS     00S008086DEDividendo en efectivo                             000003560US46625H1005JP MORGAN CHASE CO            NYS       USDRV                    000000000                                                     02320301100002599058        000000000802689             CAJA MADRID BOLSA GLOBAL FI             0000000001010000000000000000000001010000201101030000000000000000000000000000000001000000000USD00000000000500000000000000000005050000150000000000000000007575000000000000042925001615050000000000000081560000000000000347692011013120110131        INVERSIS CB NEW YORK                                             000000000                                                    20110131                        00000000000000000000000000000000000000000000000000000000000000000000000000000000000000000000000000000000000DE            0000000000000000000000                                                                                                                                                                                                                                                                                                                                                                                           000OB000000002T                                                                                                                                                                                                                                                                                                                                                                                                                                                                                                                                                                                                                                                                                                                                                                                                                                                                                                                                                                                                                                                                                                                                                                                                                                                                                                                                                                                                                                                                                                                                                                                                                                                                                                                                                                                                                                                                                                                                                                                                                                                                                                                                                                                                                                                                                                                                                                                                                                                                                                                                                                                                                                                                                                                                                                                                                                 
500016354     20110126SIMUANUPOS     00S008086DEDividendo en efectivo                             000003560US46625H1005JP MORGAN CHASE CO            NYS       USDRV                    000000000                                                     02320301100002606391        000000000802481             PLUSMADRID GLOBAL,FIM (ANTES M.DIVISA.) 0000000000829900000000000000000000829900201101030000000000000000000000000000000001000000000USD00000000000500000000000000000004149500149994000000000000006224000000000000035271001614890000000000000067010000000000000285702011013120110131        INVERSIS CB NEW YORK                                             000000000                                                    20110131                        00000000000000000000000000000000000000000000000000000000000000000000000000000000000000000000000000000000000DE            0000000000000000000000                                                                                                                                                                                                                                                                                                                                                                                           000OB000000002T                                                                                                                                                                                                                                                                                                                                                                                                                                                                                                                                                                                                                                                                                                                                                                                                                                                                                                                                                                                                                                                                                                                                                                                                                                                                                                                                                                                                                                                                                                                                                                                                                                                                                                                                                                                                                                                                                                                                                                                                                                                                                                                                                                                                                                                                                                                                                                                                                                                                                                                                                                                                                                                                                                                                                                                                                                 
